{
	"contracts/3-2.sol": {
		"Q3": {
			"abi": [
				{
					"inputs": [
						{
							"internalType": "address payable",
							"name": "_a",
							"type": "address"
						}
					],
					"stateMutability": "nonpayable",
					"type": "constructor"
				},
				{
					"inputs": [],
					"name": "accel",
					"outputs": [],
					"stateMutability": "nonpayable",
					"type": "function"
				},
				{
					"inputs": [],
					"name": "breakCar",
					"outputs": [],
					"stateMutability": "nonpayable",
					"type": "function"
				},
				{
					"inputs": [],
					"name": "deposit",
					"outputs": [],
					"stateMutability": "payable",
					"type": "function"
				},
				{
					"inputs": [
						{
							"internalType": "uint256",
							"name": "_a",
							"type": "uint256"
						}
					],
					"name": "depositToGS",
					"outputs": [],
					"stateMutability": "nonpayable",
					"type": "function"
				},
				{
					"inputs": [],
					"name": "getPrePaid",
					"outputs": [
						{
							"internalType": "uint256",
							"name": "",
							"type": "uint256"
						}
					],
					"stateMutability": "view",
					"type": "function"
				},
				{
					"inputs": [],
					"name": "gs",
					"outputs": [
						{
							"internalType": "contract GASSTATION",
							"name": "",
							"type": "address"
						}
					],
					"stateMutability": "view",
					"type": "function"
				},
				{
					"inputs": [],
					"name": "myCar",
					"outputs": [
						{
							"internalType": "enum Q3.carStatus",
							"name": "status",
							"type": "uint8"
						},
						{
							"internalType": "uint256",
							"name": "fuelGauage",
							"type": "uint256"
						},
						{
							"internalType": "uint256",
							"name": "speed",
							"type": "uint256"
						}
					],
					"stateMutability": "view",
					"type": "function"
				},
				{
					"inputs": [],
					"name": "reCharge",
					"outputs": [],
					"stateMutability": "payable",
					"type": "function"
				},
				{
					"inputs": [],
					"name": "turnOff",
					"outputs": [],
					"stateMutability": "nonpayable",
					"type": "function"
				},
				{
					"inputs": [],
					"name": "turnOn",
					"outputs": [],
					"stateMutability": "nonpayable",
					"type": "function"
				}
			],
			"devdoc": {
				"kind": "dev",
				"methods": {},
				"version": 1
			},
			"evm": {
				"assembly": "    /* \"contracts/3-2.sol\":1348:4503  contract Q3 {... */\n  mstore(0x40, 0x80)\n    /* \"contracts/3-2.sol\":3623:3693  constructor(address payable _a) {... */\n  callvalue\n  dup1\n  iszero\n  tag_1\n  jumpi\n  0x00\n  dup1\n  revert\ntag_1:\n  pop\n  mload(0x40)\n  sub(codesize, bytecodeSize)\n  dup1\n  bytecodeSize\n  dup4\n  codecopy\n  dup2\n  dup2\n  add\n  0x40\n  mstore\n  dup2\n  add\n  swap1\n  tag_2\n  swap2\n  swap1\n  tag_3\n  jump\t// in\ntag_2:\n    /* \"contracts/3-2.sol\":3682:3684  _a */\n  dup1\n    /* \"contracts/3-2.sol\":3666:3668  gs */\n  0x03\n  0x00\n    /* \"contracts/3-2.sol\":3666:3685  gs = GASSTATION(_a) */\n  0x0100\n  exp\n  dup2\n  sload\n  dup2\n  0xffffffffffffffffffffffffffffffffffffffff\n  mul\n  not\n  and\n  swap1\n  dup4\n  0xffffffffffffffffffffffffffffffffffffffff\n  and\n  mul\n  or\n  swap1\n  sstore\n  pop\n    /* \"contracts/3-2.sol\":3623:3693  constructor(address payable _a) {... */\n  pop\n    /* \"contracts/3-2.sol\":1348:4503  contract Q3 {... */\n  jump(tag_6)\n    /* \"#utility.yul\":88:205   */\ntag_8:\n    /* \"#utility.yul\":197:198   */\n  0x00\n    /* \"#utility.yul\":194:195   */\n  dup1\n    /* \"#utility.yul\":187:199   */\n  revert\n    /* \"#utility.yul\":334:460   */\ntag_10:\n    /* \"#utility.yul\":371:378   */\n  0x00\n    /* \"#utility.yul\":411:453   */\n  0xffffffffffffffffffffffffffffffffffffffff\n    /* \"#utility.yul\":404:409   */\n  dup3\n    /* \"#utility.yul\":400:454   */\n  and\n    /* \"#utility.yul\":389:454   */\n  swap1\n  pop\n    /* \"#utility.yul\":334:460   */\n  swap2\n  swap1\n  pop\n  jump\t// out\n    /* \"#utility.yul\":466:570   */\ntag_11:\n    /* \"#utility.yul\":511:518   */\n  0x00\n    /* \"#utility.yul\":540:564   */\n  tag_20\n    /* \"#utility.yul\":558:563   */\n  dup3\n    /* \"#utility.yul\":540:564   */\n  tag_10\n  jump\t// in\ntag_20:\n    /* \"#utility.yul\":529:564   */\n  swap1\n  pop\n    /* \"#utility.yul\":466:570   */\n  swap2\n  swap1\n  pop\n  jump\t// out\n    /* \"#utility.yul\":576:714   */\ntag_12:\n    /* \"#utility.yul\":657:689   */\n  tag_22\n    /* \"#utility.yul\":683:688   */\n  dup2\n    /* \"#utility.yul\":657:689   */\n  tag_11\n  jump\t// in\ntag_22:\n    /* \"#utility.yul\":650:655   */\n  dup2\n    /* \"#utility.yul\":647:690   */\n  eq\n    /* \"#utility.yul\":637:708   */\n  tag_23\n  jumpi\n    /* \"#utility.yul\":704:705   */\n  0x00\n    /* \"#utility.yul\":701:702   */\n  dup1\n    /* \"#utility.yul\":694:706   */\n  revert\n    /* \"#utility.yul\":637:708   */\ntag_23:\n    /* \"#utility.yul\":576:714   */\n  pop\n  jump\t// out\n    /* \"#utility.yul\":720:879   */\ntag_13:\n    /* \"#utility.yul\":785:790   */\n  0x00\n    /* \"#utility.yul\":816:822   */\n  dup2\n    /* \"#utility.yul\":810:823   */\n  mload\n    /* \"#utility.yul\":801:823   */\n  swap1\n  pop\n    /* \"#utility.yul\":832:873   */\n  tag_25\n    /* \"#utility.yul\":867:872   */\n  dup2\n    /* \"#utility.yul\":832:873   */\n  tag_12\n  jump\t// in\ntag_25:\n    /* \"#utility.yul\":720:879   */\n  swap3\n  swap2\n  pop\n  pop\n  jump\t// out\n    /* \"#utility.yul\":885:1252   */\ntag_3:\n    /* \"#utility.yul\":963:969   */\n  0x00\n    /* \"#utility.yul\":1012:1014   */\n  0x20\n    /* \"#utility.yul\":1000:1009   */\n  dup3\n    /* \"#utility.yul\":991:998   */\n  dup5\n    /* \"#utility.yul\":987:1010   */\n  sub\n    /* \"#utility.yul\":983:1015   */\n  slt\n    /* \"#utility.yul\":980:1099   */\n  iszero\n  tag_27\n  jumpi\n    /* \"#utility.yul\":1018:1097   */\n  tag_28\n  tag_8\n  jump\t// in\ntag_28:\n    /* \"#utility.yul\":980:1099   */\ntag_27:\n    /* \"#utility.yul\":1138:1139   */\n  0x00\n    /* \"#utility.yul\":1163:1235   */\n  tag_29\n    /* \"#utility.yul\":1227:1234   */\n  dup5\n    /* \"#utility.yul\":1218:1224   */\n  dup3\n    /* \"#utility.yul\":1207:1216   */\n  dup6\n    /* \"#utility.yul\":1203:1225   */\n  add\n    /* \"#utility.yul\":1163:1235   */\n  tag_13\n  jump\t// in\ntag_29:\n    /* \"#utility.yul\":1153:1235   */\n  swap2\n  pop\n    /* \"#utility.yul\":1109:1245   */\n  pop\n    /* \"#utility.yul\":885:1252   */\n  swap3\n  swap2\n  pop\n  pop\n  jump\t// out\n    /* \"contracts/3-2.sol\":1348:4503  contract Q3 {... */\ntag_6:\n  dataSize(sub_0)\n  dup1\n  dataOffset(sub_0)\n  0x00\n  codecopy\n  0x00\n  return\nstop\n\nsub_0: assembly {\n        /* \"contracts/3-2.sol\":1348:4503  contract Q3 {... */\n      mstore(0x40, 0x80)\n      jumpi(tag_1, lt(calldatasize, 0x04))\n      shr(0xe0, calldataload(0x00))\n      dup1\n      0x9cdde813\n      gt\n      tag_12\n      jumpi\n      dup1\n      0x9cdde813\n      eq\n      tag_7\n      jumpi\n      dup1\n      0xaf10c810\n      eq\n      tag_8\n      jumpi\n      dup1\n      0xba33ed7d\n      eq\n      tag_9\n      jumpi\n      dup1\n      0xd0e30db0\n      eq\n      tag_10\n      jumpi\n      dup1\n      0xf282df78\n      eq\n      tag_11\n      jumpi\n      jump(tag_1)\n    tag_12:\n      dup1\n      0xe71aaf\n      eq\n      tag_2\n      jumpi\n      dup1\n      0x075c478a\n      eq\n      tag_3\n      jumpi\n      dup1\n      0x3446136a\n      eq\n      tag_4\n      jumpi\n      dup1\n      0x37de45f8\n      eq\n      tag_5\n      jumpi\n      dup1\n      0x96f1c1a8\n      eq\n      tag_6\n      jumpi\n    tag_1:\n      0x00\n      dup1\n      revert\n        /* \"contracts/3-2.sol\":3594:3614  GASSTATION public gs */\n    tag_2:\n      callvalue\n      dup1\n      iszero\n      tag_13\n      jumpi\n      0x00\n      dup1\n      revert\n    tag_13:\n      pop\n      tag_14\n      tag_15\n      jump\t// in\n    tag_14:\n      mload(0x40)\n      tag_16\n      swap2\n      swap1\n      tag_17\n      jump\t// in\n    tag_16:\n      mload(0x40)\n      dup1\n      swap2\n      sub\n      swap1\n      return\n        /* \"contracts/3-2.sol\":4342:4500  function depositToGS(uint _a) public {... */\n    tag_3:\n      callvalue\n      dup1\n      iszero\n      tag_18\n      jumpi\n      0x00\n      dup1\n      revert\n    tag_18:\n      pop\n      tag_19\n      0x04\n      dup1\n      calldatasize\n      sub\n      dup2\n      add\n      swap1\n      tag_20\n      swap2\n      swap1\n      tag_21\n      jump\t// in\n    tag_20:\n      tag_22\n      jump\t// in\n    tag_19:\n      stop\n        /* \"contracts/3-2.sol\":3953:4290  function reCharge() public payable {... */\n    tag_4:\n      tag_23\n      tag_24\n      jump\t// in\n    tag_23:\n      stop\n        /* \"contracts/3-2.sol\":3701:3833  function getPrePaid() public view returns(uint) {... */\n    tag_5:\n      callvalue\n      dup1\n      iszero\n      tag_25\n      jumpi\n      0x00\n      dup1\n      revert\n    tag_25:\n      pop\n      tag_26\n      tag_27\n      jump\t// in\n    tag_26:\n      mload(0x40)\n      tag_28\n      swap2\n      swap1\n      tag_29\n      jump\t// in\n    tag_28:\n      mload(0x40)\n      dup1\n      swap2\n      sub\n      swap1\n      return\n        /* \"contracts/3-2.sol\":2426:2815  function breakCar() public {... */\n    tag_6:\n      callvalue\n      dup1\n      iszero\n      tag_30\n      jumpi\n      0x00\n      dup1\n      revert\n    tag_30:\n      pop\n      tag_31\n      tag_32\n      jump\t// in\n    tag_31:\n      stop\n        /* \"contracts/3-2.sol\":1684:1700  car public myCar */\n    tag_7:\n      callvalue\n      dup1\n      iszero\n      tag_33\n      jumpi\n      0x00\n      dup1\n      revert\n    tag_33:\n      pop\n      tag_34\n      tag_35\n      jump\t// in\n    tag_34:\n      mload(0x40)\n      tag_36\n      swap4\n      swap3\n      swap2\n      swap1\n      tag_37\n      jump\t// in\n    tag_36:\n      mload(0x40)\n      dup1\n      swap2\n      sub\n      swap1\n      return\n        /* \"contracts/3-2.sol\":2934:3292  function turnOff() public {... */\n    tag_8:\n      callvalue\n      dup1\n      iszero\n      tag_38\n      jumpi\n      0x00\n      dup1\n      revert\n    tag_38:\n      pop\n      tag_39\n      tag_40\n      jump\t// in\n    tag_39:\n      stop\n        /* \"contracts/3-2.sol\":3402:3586  function turnOn() public {... */\n    tag_9:\n      callvalue\n      dup1\n      iszero\n      tag_41\n      jumpi\n      0x00\n      dup1\n      revert\n    tag_41:\n      pop\n      tag_42\n      tag_43\n      jump\t// in\n    tag_42:\n      stop\n        /* \"contracts/3-2.sol\":4298:4334  function deposit() public payable {} */\n    tag_10:\n      tag_44\n      tag_45\n      jump\t// in\n    tag_44:\n      stop\n        /* \"contracts/3-2.sol\":1942:2236  function accel() public {... */\n    tag_11:\n      callvalue\n      dup1\n      iszero\n      tag_46\n      jumpi\n      0x00\n      dup1\n      revert\n    tag_46:\n      pop\n      tag_47\n      tag_48\n      jump\t// in\n    tag_47:\n      stop\n        /* \"contracts/3-2.sol\":3594:3614  GASSTATION public gs */\n    tag_15:\n      0x03\n      0x00\n      swap1\n      sload\n      swap1\n      0x0100\n      exp\n      swap1\n      div\n      0xffffffffffffffffffffffffffffffffffffffff\n      and\n      dup2\n      jump\t// out\n        /* \"contracts/3-2.sol\":4342:4500  function depositToGS(uint _a) public {... */\n    tag_22:\n        /* \"contracts/3-2.sol\":4400:4408  10 ** 18 */\n      0x0de0b6b3a7640000\n        /* \"contracts/3-2.sol\":4395:4397  _a */\n      dup2\n        /* \"contracts/3-2.sol\":4395:4408  _a * 10 ** 18 */\n      tag_50\n      swap2\n      swap1\n      tag_51\n      jump\t// in\n    tag_50:\n        /* \"contracts/3-2.sol\":4390:4408  _a = _a * 10 ** 18 */\n      swap1\n      pop\n        /* \"contracts/3-2.sol\":4427:4429  gs */\n      0x03\n      0x00\n      swap1\n      sload\n      swap1\n      0x0100\n      exp\n      swap1\n      div\n      0xffffffffffffffffffffffffffffffffffffffff\n      and\n        /* \"contracts/3-2.sol\":4419:4439  payable(gs).transfer */\n      0xffffffffffffffffffffffffffffffffffffffff\n      and\n        /* \"contracts/3-2.sol\":4419:4443  payable(gs).transfer(_a) */\n      0x08fc\n        /* \"contracts/3-2.sol\":4440:4442  _a */\n      dup3\n        /* \"contracts/3-2.sol\":4419:4443  payable(gs).transfer(_a) */\n      swap1\n      dup2\n      iszero\n      mul\n      swap1\n      mload(0x40)\n      0x00\n      mload(0x40)\n      dup1\n      dup4\n      sub\n      dup2\n      dup6\n      dup9\n      dup9\n      call\n      swap4\n      pop\n      pop\n      pop\n      pop\n      iszero\n      dup1\n      iszero\n      tag_53\n      jumpi\n      returndatasize\n      0x00\n      dup1\n      returndatacopy\n      revert(0x00, returndatasize)\n    tag_53:\n      pop\n        /* \"contracts/3-2.sol\":4454:4456  gs */\n      0x03\n      0x00\n      swap1\n      sload\n      swap1\n      0x0100\n      exp\n      swap1\n      div\n      0xffffffffffffffffffffffffffffffffffffffff\n      and\n        /* \"contracts/3-2.sol\":4454:4473  gs.renewPrePaidList */\n      0xffffffffffffffffffffffffffffffffffffffff\n      and\n      0x2982efdb\n        /* \"contracts/3-2.sol\":4482:4486  this */\n      address\n        /* \"contracts/3-2.sol\":4489:4491  _a */\n      dup4\n        /* \"contracts/3-2.sol\":4454:4492  gs.renewPrePaidList(address(this), _a) */\n      mload(0x40)\n      dup4\n      0xffffffff\n      and\n      0xe0\n      shl\n      dup2\n      mstore\n      0x04\n      add\n      tag_54\n      swap3\n      swap2\n      swap1\n      tag_55\n      jump\t// in\n    tag_54:\n      0x00\n      mload(0x40)\n      dup1\n      dup4\n      sub\n      dup2\n      0x00\n      dup8\n      dup1\n      extcodesize\n      iszero\n      dup1\n      iszero\n      tag_56\n      jumpi\n      0x00\n      dup1\n      revert\n    tag_56:\n      pop\n      gas\n      call\n      iszero\n      dup1\n      iszero\n      tag_58\n      jumpi\n      returndatasize\n      0x00\n      dup1\n      returndatacopy\n      revert(0x00, returndatasize)\n    tag_58:\n      pop\n      pop\n      pop\n      pop\n        /* \"contracts/3-2.sol\":4342:4500  function depositToGS(uint _a) public {... */\n      pop\n      jump\t// out\n        /* \"contracts/3-2.sol\":3953:4290  function reCharge() public payable {... */\n    tag_24:\n        /* \"contracts/3-2.sol\":3999:4011  uint prePaid */\n      0x00\n        /* \"contracts/3-2.sol\":4014:4026  getPrePaid() */\n      tag_60\n        /* \"contracts/3-2.sol\":4014:4024  getPrePaid */\n      tag_27\n        /* \"contracts/3-2.sol\":4014:4026  getPrePaid() */\n      jump\t// in\n    tag_60:\n        /* \"contracts/3-2.sol\":3999:4026  uint prePaid = getPrePaid() */\n      swap1\n      pop\n        /* \"contracts/3-2.sol\":4058:4064  10**18 */\n      0x0de0b6b3a7640000\n        /* \"contracts/3-2.sol\":4047:4054  prePaid */\n      dup2\n        /* \"contracts/3-2.sol\":4047:4064  prePaid >= 10**18 */\n      lt\n      iszero\n        /* \"contracts/3-2.sol\":4047:4081  prePaid >= 10**18 && msg.value ==0 */\n      dup1\n      iszero\n      tag_61\n      jumpi\n      pop\n        /* \"contracts/3-2.sol\":4080:4081  0 */\n      0x00\n        /* \"contracts/3-2.sol\":4068:4077  msg.value */\n      callvalue\n        /* \"contracts/3-2.sol\":4068:4081  msg.value ==0 */\n      eq\n        /* \"contracts/3-2.sol\":4047:4081  prePaid >= 10**18 && msg.value ==0 */\n    tag_61:\n        /* \"contracts/3-2.sol\":4046:4105  (prePaid >= 10**18 && msg.value ==0) || msg.value == 10**18 */\n      dup1\n      tag_62\n      jumpi\n      pop\n        /* \"contracts/3-2.sol\":4099:4105  10**18 */\n      0x0de0b6b3a7640000\n        /* \"contracts/3-2.sol\":4086:4095  msg.value */\n      callvalue\n        /* \"contracts/3-2.sol\":4086:4105  msg.value == 10**18 */\n      eq\n        /* \"contracts/3-2.sol\":4046:4105  (prePaid >= 10**18 && msg.value ==0) || msg.value == 10**18 */\n    tag_62:\n        /* \"contracts/3-2.sol\":4045:4145  ((prePaid >= 10**18 && msg.value ==0) || msg.value == 10**18) && myCar.status == carStatus.turnedOff */\n      dup1\n      iszero\n      tag_63\n      jumpi\n      pop\n        /* \"contracts/3-2.sol\":4126:4145  carStatus.turnedOff */\n      0x02\n        /* \"contracts/3-2.sol\":4110:4145  myCar.status == carStatus.turnedOff */\n      0x03\n      dup2\n      gt\n      iszero\n      tag_64\n      jumpi\n      tag_65\n      tag_66\n      jump\t// in\n    tag_65:\n    tag_64:\n        /* \"contracts/3-2.sol\":4110:4115  myCar */\n      0x00\n        /* \"contracts/3-2.sol\":4110:4122  myCar.status */\n      dup1\n      add\n      0x00\n      swap1\n      sload\n      swap1\n      0x0100\n      exp\n      swap1\n      div\n      0xff\n      and\n        /* \"contracts/3-2.sol\":4110:4145  myCar.status == carStatus.turnedOff */\n      0x03\n      dup2\n      gt\n      iszero\n      tag_67\n      jumpi\n      tag_68\n      tag_66\n      jump\t// in\n    tag_68:\n    tag_67:\n      eq\n        /* \"contracts/3-2.sol\":4045:4145  ((prePaid >= 10**18 && msg.value ==0) || msg.value == 10**18) && myCar.status == carStatus.turnedOff */\n    tag_63:\n        /* \"contracts/3-2.sol\":4037:4146  require(((prePaid >= 10**18 && msg.value ==0) || msg.value == 10**18) && myCar.status == carStatus.turnedOff) */\n      tag_69\n      jumpi\n      0x00\n      dup1\n      revert\n    tag_69:\n        /* \"contracts/3-2.sol\":4175:4181  10**18 */\n      0x0de0b6b3a7640000\n        /* \"contracts/3-2.sol\":4162:4171  msg.value */\n      callvalue\n        /* \"contracts/3-2.sol\":4162:4181  msg.value != 10**18 */\n      eq\n        /* \"contracts/3-2.sol\":4159:4248  if(msg.value != 10**18) {... */\n      tag_70\n      jumpi\n        /* \"contracts/3-2.sol\":4198:4200  gs */\n      0x03\n      0x00\n      swap1\n      sload\n      swap1\n      0x0100\n      exp\n      swap1\n      div\n      0xffffffffffffffffffffffffffffffffffffffff\n      and\n        /* \"contracts/3-2.sol\":4198:4213  gs.rechargeFuel */\n      0xffffffffffffffffffffffffffffffffffffffff\n      and\n      0x38b18b7a\n        /* \"contracts/3-2.sol\":4222:4226  this */\n      address\n        /* \"contracts/3-2.sol\":4229:4235  10**18 */\n      0x0de0b6b3a7640000\n        /* \"contracts/3-2.sol\":4198:4236  gs.rechargeFuel(address(this), 10**18) */\n      mload(0x40)\n      dup4\n      0xffffffff\n      and\n      0xe0\n      shl\n      dup2\n      mstore\n      0x04\n      add\n      tag_71\n      swap3\n      swap2\n      swap1\n      tag_72\n      jump\t// in\n    tag_71:\n      0x00\n      mload(0x40)\n      dup1\n      dup4\n      sub\n      dup2\n      0x00\n      dup8\n      dup1\n      extcodesize\n      iszero\n      dup1\n      iszero\n      tag_73\n      jumpi\n      0x00\n      dup1\n      revert\n    tag_73:\n      pop\n      gas\n      call\n      iszero\n      dup1\n      iszero\n      tag_75\n      jumpi\n      returndatasize\n      0x00\n      dup1\n      returndatacopy\n      revert(0x00, returndatasize)\n    tag_75:\n      pop\n      pop\n      pop\n      pop\n        /* \"contracts/3-2.sol\":4159:4248  if(msg.value != 10**18) {... */\n    tag_70:\n        /* \"contracts/3-2.sol\":4279:4282  100 */\n      0x64\n        /* \"contracts/3-2.sol\":4260:4265  myCar */\n      0x00\n        /* \"contracts/3-2.sol\":4260:4276  myCar.fuelGauage */\n      0x01\n      add\n        /* \"contracts/3-2.sol\":4260:4282  myCar.fuelGauage = 100 */\n      dup2\n      swap1\n      sstore\n      pop\n        /* \"contracts/3-2.sol\":3988:4290  {... */\n      pop\n        /* \"contracts/3-2.sol\":3953:4290  function reCharge() public payable {... */\n      jump\t// out\n        /* \"contracts/3-2.sol\":3701:3833  function getPrePaid() public view returns(uint) {... */\n    tag_27:\n        /* \"contracts/3-2.sol\":3743:3747  uint */\n      0x00\n        /* \"contracts/3-2.sol\":3767:3769  gs */\n      0x03\n      0x00\n      swap1\n      sload\n      swap1\n      0x0100\n      exp\n      swap1\n      div\n      0xffffffffffffffffffffffffffffffffffffffff\n      and\n        /* \"contracts/3-2.sol\":3767:3781  gs.prePaidList */\n      0xffffffffffffffffffffffffffffffffffffffff\n      and\n      0x4639a55a\n        /* \"contracts/3-2.sol\":3790:3794  this */\n      address\n        /* \"contracts/3-2.sol\":3767:3796  gs.prePaidList(address(this)) */\n      mload(0x40)\n      dup3\n      0xffffffff\n      and\n      0xe0\n      shl\n      dup2\n      mstore\n      0x04\n      add\n      tag_77\n      swap2\n      swap1\n      tag_78\n      jump\t// in\n    tag_77:\n      0x20\n      mload(0x40)\n      dup1\n      dup4\n      sub\n      dup2\n      dup7\n      gas\n      staticcall\n      iszero\n      dup1\n      iszero\n      tag_80\n      jumpi\n      returndatasize\n      0x00\n      dup1\n      returndatacopy\n      revert(0x00, returndatasize)\n    tag_80:\n      pop\n      pop\n      pop\n      pop\n      mload(0x40)\n      returndatasize\n      not(0x1f)\n      0x1f\n      dup3\n      add\n      and\n      dup3\n      add\n      dup1\n      0x40\n      mstore\n      pop\n      dup2\n      add\n      swap1\n      tag_81\n      swap2\n      swap1\n      tag_82\n      jump\t// in\n    tag_81:\n        /* \"contracts/3-2.sol\":3760:3796  return gs.prePaidList(address(this)) */\n      swap1\n      pop\n        /* \"contracts/3-2.sol\":3701:3833  function getPrePaid() public view returns(uint) {... */\n      swap1\n      jump\t// out\n        /* \"contracts/3-2.sol\":2426:2815  function breakCar() public {... */\n    tag_32:\n        /* \"contracts/3-2.sol\":2511:2530  carStatus.turnedOff */\n      0x02\n        /* \"contracts/3-2.sol\":2495:2530  myCar.status != carStatus.turnedOff */\n      0x03\n      dup2\n      gt\n      iszero\n      tag_84\n      jumpi\n      tag_85\n      tag_66\n      jump\t// in\n    tag_85:\n    tag_84:\n        /* \"contracts/3-2.sol\":2495:2500  myCar */\n      0x00\n        /* \"contracts/3-2.sol\":2495:2507  myCar.status */\n      dup1\n      add\n      0x00\n      swap1\n      sload\n      swap1\n      0x0100\n      exp\n      swap1\n      div\n      0xff\n      and\n        /* \"contracts/3-2.sol\":2495:2530  myCar.status != carStatus.turnedOff */\n      0x03\n      dup2\n      gt\n      iszero\n      tag_86\n      jumpi\n      tag_87\n      tag_66\n      jump\t// in\n    tag_87:\n    tag_86:\n      eq\n      iszero\n        /* \"contracts/3-2.sol\":2495:2564  myCar.status != carStatus.turnedOff && myCar.status != carStatus.stop */\n      dup1\n      iszero\n      tag_88\n      jumpi\n      pop\n        /* \"contracts/3-2.sol\":2550:2564  carStatus.stop */\n      0x00\n        /* \"contracts/3-2.sol\":2534:2564  myCar.status != carStatus.stop */\n      0x03\n      dup2\n      gt\n      iszero\n      tag_89\n      jumpi\n      tag_90\n      tag_66\n      jump\t// in\n    tag_90:\n    tag_89:\n        /* \"contracts/3-2.sol\":2534:2539  myCar */\n      0x00\n        /* \"contracts/3-2.sol\":2534:2546  myCar.status */\n      dup1\n      add\n      0x00\n      swap1\n      sload\n      swap1\n      0x0100\n      exp\n      swap1\n      div\n      0xff\n      and\n        /* \"contracts/3-2.sol\":2534:2564  myCar.status != carStatus.stop */\n      0x03\n      dup2\n      gt\n      iszero\n      tag_91\n      jumpi\n      tag_92\n      tag_66\n      jump\t// in\n    tag_92:\n    tag_91:\n      eq\n      iszero\n        /* \"contracts/3-2.sol\":2495:2564  myCar.status != carStatus.turnedOff && myCar.status != carStatus.stop */\n    tag_88:\n        /* \"contracts/3-2.sol\":2464:2565  require(/*myCar.speed !=0 &&*/ myCar.status != carStatus.turnedOff && myCar.status != carStatus.stop) */\n      tag_93\n      jumpi\n      0x00\n      dup1\n      revert\n    tag_93:\n        /* \"contracts/3-2.sol\":2576:2581  myCar */\n      0x00\n        /* \"contracts/3-2.sol\":2576:2587  myCar.speed */\n      0x02\n      add\n      0x00\n        /* \"contracts/3-2.sol\":2576:2589  myCar.speed-- */\n      dup2\n      sload\n      dup1\n      swap3\n      swap2\n      swap1\n      tag_94\n      swap1\n      tag_95\n      jump\t// in\n    tag_94:\n      swap2\n      swap1\n      pop\n      sstore\n      pop\n        /* \"contracts/3-2.sol\":2600:2605  myCar */\n      0x00\n        /* \"contracts/3-2.sol\":2600:2616  myCar.fuelGauage */\n      0x01\n      add\n      0x00\n        /* \"contracts/3-2.sol\":2600:2619  myCar.fuelGauage -- */\n      dup2\n      sload\n      dup1\n      swap3\n      swap2\n      swap1\n      tag_96\n      swap1\n      tag_95\n      jump\t// in\n    tag_96:\n      swap2\n      swap1\n      pop\n      sstore\n      pop\n        /* \"contracts/3-2.sol\":2650:2651  0 */\n      0x00\n        /* \"contracts/3-2.sol\":2635:2640  myCar */\n      dup1\n        /* \"contracts/3-2.sol\":2635:2646  myCar.speed */\n      0x02\n      add\n      sload\n        /* \"contracts/3-2.sol\":2635:2651  myCar.speed == 0 */\n      sub\n        /* \"contracts/3-2.sol\":2632:2709  if(myCar.speed == 0) {... */\n      tag_97\n      jumpi\n        /* \"contracts/3-2.sol\":2683:2697  carStatus.stop */\n      0x00\n        /* \"contracts/3-2.sol\":2668:2673  myCar */\n      dup1\n        /* \"contracts/3-2.sol\":2668:2680  myCar.status */\n      0x00\n      add\n      0x00\n        /* \"contracts/3-2.sol\":2668:2697  myCar.status = carStatus.stop */\n      0x0100\n      exp\n      dup2\n      sload\n      dup2\n      0xff\n      mul\n      not\n      and\n      swap1\n      dup4\n      0x03\n      dup2\n      gt\n      iszero\n      tag_98\n      jumpi\n      tag_99\n      tag_66\n      jump\t// in\n    tag_99:\n    tag_98:\n      mul\n      or\n      swap1\n      sstore\n      pop\n        /* \"contracts/3-2.sol\":2632:2709  if(myCar.speed == 0) {... */\n    tag_97:\n        /* \"contracts/3-2.sol\":2744:2745  0 */\n      0x00\n        /* \"contracts/3-2.sol\":2724:2729  myCar */\n      dup1\n        /* \"contracts/3-2.sol\":2724:2740  myCar.fuelGauage */\n      0x01\n      add\n      sload\n        /* \"contracts/3-2.sol\":2724:2745  myCar.fuelGauage == 0 */\n      sub\n        /* \"contracts/3-2.sol\":2721:2808  if(myCar.fuelGauage == 0) {... */\n      tag_100\n      jumpi\n        /* \"contracts/3-2.sol\":2777:2796  carStatus.outOfFuel */\n      0x03\n        /* \"contracts/3-2.sol\":2762:2767  myCar */\n      0x00\n        /* \"contracts/3-2.sol\":2762:2774  myCar.status */\n      dup1\n      add\n      0x00\n        /* \"contracts/3-2.sol\":2762:2796  myCar.status = carStatus.outOfFuel */\n      0x0100\n      exp\n      dup2\n      sload\n      dup2\n      0xff\n      mul\n      not\n      and\n      swap1\n      dup4\n      0x03\n      dup2\n      gt\n      iszero\n      tag_101\n      jumpi\n      tag_102\n      tag_66\n      jump\t// in\n    tag_102:\n    tag_101:\n      mul\n      or\n      swap1\n      sstore\n      pop\n        /* \"contracts/3-2.sol\":2721:2808  if(myCar.fuelGauage == 0) {... */\n    tag_100:\n        /* \"contracts/3-2.sol\":2426:2815  function breakCar() public {... */\n      jump\t// out\n        /* \"contracts/3-2.sol\":1684:1700  car public myCar */\n    tag_35:\n      0x00\n      dup1\n      0x00\n      add\n      0x00\n      swap1\n      sload\n      swap1\n      0x0100\n      exp\n      swap1\n      div\n      0xff\n      and\n      swap1\n      dup1\n      0x01\n      add\n      sload\n      swap1\n      dup1\n      0x02\n      add\n      sload\n      swap1\n      pop\n      dup4\n      jump\t// out\n        /* \"contracts/3-2.sol\":2934:3292  function turnOff() public {... */\n    tag_40:\n        /* \"contracts/3-2.sol\":2993:2994  0 */\n      0x00\n        /* \"contracts/3-2.sol\":2979:2984  myCar */\n      dup1\n        /* \"contracts/3-2.sol\":2979:2990  myCar.speed */\n      0x02\n      add\n      sload\n        /* \"contracts/3-2.sol\":2979:2994  myCar.speed ==0 */\n      eq\n        /* \"contracts/3-2.sol\":2979:3033  myCar.speed ==0 && myCar.status != carStatus.turnedOff */\n      dup1\n      iszero\n      tag_104\n      jumpi\n      pop\n        /* \"contracts/3-2.sol\":3014:3033  carStatus.turnedOff */\n      0x02\n        /* \"contracts/3-2.sol\":2998:3033  myCar.status != carStatus.turnedOff */\n      0x03\n      dup2\n      gt\n      iszero\n      tag_105\n      jumpi\n      tag_106\n      tag_66\n      jump\t// in\n    tag_106:\n    tag_105:\n        /* \"contracts/3-2.sol\":2998:3003  myCar */\n      0x00\n        /* \"contracts/3-2.sol\":2998:3010  myCar.status */\n      dup1\n      add\n      0x00\n      swap1\n      sload\n      swap1\n      0x0100\n      exp\n      swap1\n      div\n      0xff\n      and\n        /* \"contracts/3-2.sol\":2998:3033  myCar.status != carStatus.turnedOff */\n      0x03\n      dup2\n      gt\n      iszero\n      tag_107\n      jumpi\n      tag_108\n      tag_66\n      jump\t// in\n    tag_108:\n    tag_107:\n      eq\n      iszero\n        /* \"contracts/3-2.sol\":2979:3033  myCar.speed ==0 && myCar.status != carStatus.turnedOff */\n    tag_104:\n        /* \"contracts/3-2.sol\":2979:3057  myCar.speed ==0 && myCar.status != carStatus.turnedOff || myCar.fuelGauage ==0 */\n      dup1\n      tag_109\n      jumpi\n      pop\n        /* \"contracts/3-2.sol\":3056:3057  0 */\n      0x00\n        /* \"contracts/3-2.sol\":3037:3042  myCar */\n      dup1\n        /* \"contracts/3-2.sol\":3037:3053  myCar.fuelGauage */\n      0x01\n      add\n      sload\n        /* \"contracts/3-2.sol\":3037:3057  myCar.fuelGauage ==0 */\n      eq\n        /* \"contracts/3-2.sol\":2979:3057  myCar.speed ==0 && myCar.status != carStatus.turnedOff || myCar.fuelGauage ==0 */\n    tag_109:\n        /* \"contracts/3-2.sol\":2971:3058  require(myCar.speed ==0 && myCar.status != carStatus.turnedOff || myCar.fuelGauage ==0) */\n      tag_110\n      jumpi\n      0x00\n      dup1\n      revert\n    tag_110:\n        /* \"contracts/3-2.sol\":3111:3112  0 */\n      0x00\n        /* \"contracts/3-2.sol\":3097:3102  myCar */\n      dup1\n        /* \"contracts/3-2.sol\":3097:3108  myCar.speed */\n      0x02\n      add\n      sload\n        /* \"contracts/3-2.sol\":3097:3112  myCar.speed !=0 */\n      eq\n        /* \"contracts/3-2.sol\":3094:3238  if(myCar.speed !=0) {... */\n      tag_111\n      jumpi\n        /* \"contracts/3-2.sol\":3142:3143  0 */\n      0x00\n        /* \"contracts/3-2.sol\":3129:3134  myCar */\n      dup1\n        /* \"contracts/3-2.sol\":3129:3140  myCar.speed */\n      0x02\n      add\n        /* \"contracts/3-2.sol\":3129:3143  myCar.speed =0 */\n      dup2\n      swap1\n      sstore\n      pop\n        /* \"contracts/3-2.sol\":3094:3238  if(myCar.speed !=0) {... */\n    tag_111:\n        /* \"contracts/3-2.sol\":3265:3284  carStatus.turnedOff */\n      0x02\n        /* \"contracts/3-2.sol\":3250:3255  myCar */\n      0x00\n        /* \"contracts/3-2.sol\":3250:3262  myCar.status */\n      dup1\n      add\n      0x00\n        /* \"contracts/3-2.sol\":3250:3284  myCar.status = carStatus.turnedOff */\n      0x0100\n      exp\n      dup2\n      sload\n      dup2\n      0xff\n      mul\n      not\n      and\n      swap1\n      dup4\n      0x03\n      dup2\n      gt\n      iszero\n      tag_112\n      jumpi\n      tag_113\n      tag_66\n      jump\t// in\n    tag_113:\n    tag_112:\n      mul\n      or\n      swap1\n      sstore\n      pop\n        /* \"contracts/3-2.sol\":2934:3292  function turnOff() public {... */\n      jump\t// out\n        /* \"contracts/3-2.sol\":3402:3586  function turnOn() public {... */\n    tag_43:\n        /* \"contracts/3-2.sol\":3462:3481  carStatus.turnedOff */\n      0x02\n        /* \"contracts/3-2.sol\":3446:3481  myCar.status == carStatus.turnedOff */\n      0x03\n      dup2\n      gt\n      iszero\n      tag_115\n      jumpi\n      tag_116\n      tag_66\n      jump\t// in\n    tag_116:\n    tag_115:\n        /* \"contracts/3-2.sol\":3446:3451  myCar */\n      0x00\n        /* \"contracts/3-2.sol\":3446:3458  myCar.status */\n      dup1\n      add\n      0x00\n      swap1\n      sload\n      swap1\n      0x0100\n      exp\n      swap1\n      div\n      0xff\n      and\n        /* \"contracts/3-2.sol\":3446:3481  myCar.status == carStatus.turnedOff */\n      0x03\n      dup2\n      gt\n      iszero\n      tag_117\n      jumpi\n      tag_118\n      tag_66\n      jump\t// in\n    tag_118:\n    tag_117:\n      eq\n        /* \"contracts/3-2.sol\":3446:3504  myCar.status == carStatus.turnedOff && myCar.fuelGauage >0 */\n      dup1\n      iszero\n      tag_119\n      jumpi\n      pop\n        /* \"contracts/3-2.sol\":3503:3504  0 */\n      0x00\n        /* \"contracts/3-2.sol\":3485:3490  myCar */\n      dup1\n        /* \"contracts/3-2.sol\":3485:3501  myCar.fuelGauage */\n      0x01\n      add\n      sload\n        /* \"contracts/3-2.sol\":3485:3504  myCar.fuelGauage >0 */\n      gt\n        /* \"contracts/3-2.sol\":3446:3504  myCar.status == carStatus.turnedOff && myCar.fuelGauage >0 */\n    tag_119:\n        /* \"contracts/3-2.sol\":3438:3538  require(myCar.status == carStatus.turnedOff && myCar.fuelGauage >0/*out of fuel로 변경 가능?*/) */\n      tag_120\n      jumpi\n      0x00\n      dup1\n      revert\n    tag_120:\n        /* \"contracts/3-2.sol\":3564:3578  carStatus.stop */\n      0x00\n        /* \"contracts/3-2.sol\":3549:3554  myCar */\n      dup1\n        /* \"contracts/3-2.sol\":3549:3561  myCar.status */\n      0x00\n      add\n      0x00\n        /* \"contracts/3-2.sol\":3549:3578  myCar.status = carStatus.stop */\n      0x0100\n      exp\n      dup2\n      sload\n      dup2\n      0xff\n      mul\n      not\n      and\n      swap1\n      dup4\n      0x03\n      dup2\n      gt\n      iszero\n      tag_121\n      jumpi\n      tag_122\n      tag_66\n      jump\t// in\n    tag_122:\n    tag_121:\n      mul\n      or\n      swap1\n      sstore\n      pop\n        /* \"contracts/3-2.sol\":3402:3586  function turnOn() public {... */\n      jump\t// out\n        /* \"contracts/3-2.sol\":4298:4334  function deposit() public payable {} */\n    tag_45:\n      jump\t// out\n        /* \"contracts/3-2.sol\":1942:2236  function accel() public {... */\n    tag_48:\n        /* \"contracts/3-2.sol\":2003:2005  30 */\n      0x1e\n        /* \"contracts/3-2.sol\":1985:1990  myCar */\n      0x00\n        /* \"contracts/3-2.sol\":1985:2001  myCar.fuelGauage */\n      0x01\n      add\n      sload\n        /* \"contracts/3-2.sol\":1985:2005  myCar.fuelGauage >30 */\n      gt\n        /* \"contracts/3-2.sol\":1985:2025  myCar.fuelGauage >30 && myCar.speed < 70 */\n      dup1\n      iszero\n      tag_125\n      jumpi\n      pop\n        /* \"contracts/3-2.sol\":2023:2025  70 */\n      0x46\n        /* \"contracts/3-2.sol\":2009:2014  myCar */\n      0x00\n        /* \"contracts/3-2.sol\":2009:2020  myCar.speed */\n      0x02\n      add\n      sload\n        /* \"contracts/3-2.sol\":2009:2025  myCar.speed < 70 */\n      lt\n        /* \"contracts/3-2.sol\":1985:2025  myCar.fuelGauage >30 && myCar.speed < 70 */\n    tag_125:\n        /* \"contracts/3-2.sol\":1985:2064  myCar.fuelGauage >30 && myCar.speed < 70 && myCar.status != carStatus.turnedOff */\n      dup1\n      iszero\n      tag_126\n      jumpi\n      pop\n        /* \"contracts/3-2.sol\":2045:2064  carStatus.turnedOff */\n      0x02\n        /* \"contracts/3-2.sol\":2029:2064  myCar.status != carStatus.turnedOff */\n      0x03\n      dup2\n      gt\n      iszero\n      tag_127\n      jumpi\n      tag_128\n      tag_66\n      jump\t// in\n    tag_128:\n    tag_127:\n        /* \"contracts/3-2.sol\":2029:2034  myCar */\n      0x00\n        /* \"contracts/3-2.sol\":2029:2041  myCar.status */\n      dup1\n      add\n      0x00\n      swap1\n      sload\n      swap1\n      0x0100\n      exp\n      swap1\n      div\n      0xff\n      and\n        /* \"contracts/3-2.sol\":2029:2064  myCar.status != carStatus.turnedOff */\n      0x03\n      dup2\n      gt\n      iszero\n      tag_129\n      jumpi\n      tag_130\n      tag_66\n      jump\t// in\n    tag_130:\n    tag_129:\n      eq\n      iszero\n        /* \"contracts/3-2.sol\":1985:2064  myCar.fuelGauage >30 && myCar.speed < 70 && myCar.status != carStatus.turnedOff */\n    tag_126:\n        /* \"contracts/3-2.sol\":1977:2065  require(myCar.fuelGauage >30 && myCar.speed < 70 && myCar.status != carStatus.turnedOff) */\n      tag_131\n      jumpi\n      0x00\n      dup1\n      revert\n    tag_131:\n        /* \"contracts/3-2.sol\":2095:2112  carStatus.driving */\n      0x01\n        /* \"contracts/3-2.sol\":2079:2112  myCar.status != carStatus.driving */\n      0x03\n      dup2\n      gt\n      iszero\n      tag_132\n      jumpi\n      tag_133\n      tag_66\n      jump\t// in\n    tag_133:\n    tag_132:\n        /* \"contracts/3-2.sol\":2079:2084  myCar */\n      0x00\n        /* \"contracts/3-2.sol\":2079:2091  myCar.status */\n      dup1\n      add\n      0x00\n      swap1\n      sload\n      swap1\n      0x0100\n      exp\n      swap1\n      div\n      0xff\n      and\n        /* \"contracts/3-2.sol\":2079:2112  myCar.status != carStatus.driving */\n      0x03\n      dup2\n      gt\n      iszero\n      tag_134\n      jumpi\n      tag_135\n      tag_66\n      jump\t// in\n    tag_135:\n    tag_134:\n      eq\n        /* \"contracts/3-2.sol\":2076:2173  if(myCar.status != carStatus.driving) {... */\n      tag_136\n      jumpi\n        /* \"contracts/3-2.sol\":2144:2161  carStatus.driving */\n      0x01\n        /* \"contracts/3-2.sol\":2129:2134  myCar */\n      0x00\n        /* \"contracts/3-2.sol\":2129:2141  myCar.status */\n      dup1\n      add\n      0x00\n        /* \"contracts/3-2.sol\":2129:2161  myCar.status = carStatus.driving */\n      0x0100\n      exp\n      dup2\n      sload\n      dup2\n      0xff\n      mul\n      not\n      and\n      swap1\n      dup4\n      0x03\n      dup2\n      gt\n      iszero\n      tag_137\n      jumpi\n      tag_138\n      tag_66\n      jump\t// in\n    tag_138:\n    tag_137:\n      mul\n      or\n      swap1\n      sstore\n      pop\n        /* \"contracts/3-2.sol\":2076:2173  if(myCar.status != carStatus.driving) {... */\n    tag_136:\n        /* \"contracts/3-2.sol\":2183:2188  myCar */\n      0x00\n        /* \"contracts/3-2.sol\":2183:2194  myCar.speed */\n      0x02\n      add\n      0x00\n        /* \"contracts/3-2.sol\":2183:2196  myCar.speed++ */\n      dup2\n      sload\n      dup1\n      swap3\n      swap2\n      swap1\n      tag_139\n      swap1\n      tag_140\n      jump\t// in\n    tag_139:\n      swap2\n      swap1\n      pop\n      sstore\n      pop\n        /* \"contracts/3-2.sol\":2227:2228  2 */\n      0x02\n        /* \"contracts/3-2.sol\":2207:2212  myCar */\n      0x00\n        /* \"contracts/3-2.sol\":2207:2223  myCar.fuelGauage */\n      0x01\n      add\n      0x00\n        /* \"contracts/3-2.sol\":2207:2228  myCar.fuelGauage -= 2 */\n      dup3\n      dup3\n      sload\n      tag_141\n      swap2\n      swap1\n      tag_142\n      jump\t// in\n    tag_141:\n      swap3\n      pop\n      pop\n      dup2\n      swap1\n      sstore\n      pop\n        /* \"contracts/3-2.sol\":1942:2236  function accel() public {... */\n      jump\t// out\n        /* \"#utility.yul\":7:133   */\n    tag_143:\n        /* \"#utility.yul\":44:51   */\n      0x00\n        /* \"#utility.yul\":84:126   */\n      0xffffffffffffffffffffffffffffffffffffffff\n        /* \"#utility.yul\":77:82   */\n      dup3\n        /* \"#utility.yul\":73:127   */\n      and\n        /* \"#utility.yul\":62:127   */\n      swap1\n      pop\n        /* \"#utility.yul\":7:133   */\n      swap2\n      swap1\n      pop\n      jump\t// out\n        /* \"#utility.yul\":139:199   */\n    tag_144:\n        /* \"#utility.yul\":167:170   */\n      0x00\n        /* \"#utility.yul\":188:193   */\n      dup2\n        /* \"#utility.yul\":181:193   */\n      swap1\n      pop\n        /* \"#utility.yul\":139:199   */\n      swap2\n      swap1\n      pop\n      jump\t// out\n        /* \"#utility.yul\":205:347   */\n    tag_145:\n        /* \"#utility.yul\":255:264   */\n      0x00\n        /* \"#utility.yul\":288:341   */\n      tag_171\n        /* \"#utility.yul\":306:340   */\n      tag_172\n        /* \"#utility.yul\":315:339   */\n      tag_173\n        /* \"#utility.yul\":333:338   */\n      dup5\n        /* \"#utility.yul\":315:339   */\n      tag_143\n      jump\t// in\n    tag_173:\n        /* \"#utility.yul\":306:340   */\n      tag_144\n      jump\t// in\n    tag_172:\n        /* \"#utility.yul\":288:341   */\n      tag_143\n      jump\t// in\n    tag_171:\n        /* \"#utility.yul\":275:341   */\n      swap1\n      pop\n        /* \"#utility.yul\":205:347   */\n      swap2\n      swap1\n      pop\n      jump\t// out\n        /* \"#utility.yul\":353:487   */\n    tag_146:\n        /* \"#utility.yul\":411:420   */\n      0x00\n        /* \"#utility.yul\":444:481   */\n      tag_175\n        /* \"#utility.yul\":475:480   */\n      dup3\n        /* \"#utility.yul\":444:481   */\n      tag_145\n      jump\t// in\n    tag_175:\n        /* \"#utility.yul\":431:481   */\n      swap1\n      pop\n        /* \"#utility.yul\":353:487   */\n      swap2\n      swap1\n      pop\n      jump\t// out\n        /* \"#utility.yul\":493:653   */\n    tag_147:\n        /* \"#utility.yul\":569:578   */\n      0x00\n        /* \"#utility.yul\":602:647   */\n      tag_177\n        /* \"#utility.yul\":641:646   */\n      dup3\n        /* \"#utility.yul\":602:647   */\n      tag_146\n      jump\t// in\n    tag_177:\n        /* \"#utility.yul\":589:647   */\n      swap1\n      pop\n        /* \"#utility.yul\":493:653   */\n      swap2\n      swap1\n      pop\n      jump\t// out\n        /* \"#utility.yul\":659:842   */\n    tag_148:\n        /* \"#utility.yul\":772:835   */\n      tag_179\n        /* \"#utility.yul\":829:834   */\n      dup2\n        /* \"#utility.yul\":772:835   */\n      tag_147\n      jump\t// in\n    tag_179:\n        /* \"#utility.yul\":767:770   */\n      dup3\n        /* \"#utility.yul\":760:836   */\n      mstore\n        /* \"#utility.yul\":659:842   */\n      pop\n      pop\n      jump\t// out\n        /* \"#utility.yul\":848:1122   */\n    tag_17:\n        /* \"#utility.yul\":967:971   */\n      0x00\n        /* \"#utility.yul\":1005:1007   */\n      0x20\n        /* \"#utility.yul\":994:1003   */\n      dup3\n        /* \"#utility.yul\":990:1008   */\n      add\n        /* \"#utility.yul\":982:1008   */\n      swap1\n      pop\n        /* \"#utility.yul\":1018:1115   */\n      tag_181\n        /* \"#utility.yul\":1112:1113   */\n      0x00\n        /* \"#utility.yul\":1101:1110   */\n      dup4\n        /* \"#utility.yul\":1097:1114   */\n      add\n        /* \"#utility.yul\":1088:1094   */\n      dup5\n        /* \"#utility.yul\":1018:1115   */\n      tag_148\n      jump\t// in\n    tag_181:\n        /* \"#utility.yul\":848:1122   */\n      swap3\n      swap2\n      pop\n      pop\n      jump\t// out\n        /* \"#utility.yul\":1209:1326   */\n    tag_150:\n        /* \"#utility.yul\":1318:1319   */\n      0x00\n        /* \"#utility.yul\":1315:1316   */\n      dup1\n        /* \"#utility.yul\":1308:1320   */\n      revert\n        /* \"#utility.yul\":1455:1532   */\n    tag_152:\n        /* \"#utility.yul\":1492:1499   */\n      0x00\n        /* \"#utility.yul\":1521:1526   */\n      dup2\n        /* \"#utility.yul\":1510:1526   */\n      swap1\n      pop\n        /* \"#utility.yul\":1455:1532   */\n      swap2\n      swap1\n      pop\n      jump\t// out\n        /* \"#utility.yul\":1538:1660   */\n    tag_153:\n        /* \"#utility.yul\":1611:1635   */\n      tag_187\n        /* \"#utility.yul\":1629:1634   */\n      dup2\n        /* \"#utility.yul\":1611:1635   */\n      tag_152\n      jump\t// in\n    tag_187:\n        /* \"#utility.yul\":1604:1609   */\n      dup2\n        /* \"#utility.yul\":1601:1636   */\n      eq\n        /* \"#utility.yul\":1591:1654   */\n      tag_188\n      jumpi\n        /* \"#utility.yul\":1650:1651   */\n      0x00\n        /* \"#utility.yul\":1647:1648   */\n      dup1\n        /* \"#utility.yul\":1640:1652   */\n      revert\n        /* \"#utility.yul\":1591:1654   */\n    tag_188:\n        /* \"#utility.yul\":1538:1660   */\n      pop\n      jump\t// out\n        /* \"#utility.yul\":1666:1805   */\n    tag_154:\n        /* \"#utility.yul\":1712:1717   */\n      0x00\n        /* \"#utility.yul\":1750:1756   */\n      dup2\n        /* \"#utility.yul\":1737:1757   */\n      calldataload\n        /* \"#utility.yul\":1728:1757   */\n      swap1\n      pop\n        /* \"#utility.yul\":1766:1799   */\n      tag_190\n        /* \"#utility.yul\":1793:1798   */\n      dup2\n        /* \"#utility.yul\":1766:1799   */\n      tag_153\n      jump\t// in\n    tag_190:\n        /* \"#utility.yul\":1666:1805   */\n      swap3\n      swap2\n      pop\n      pop\n      jump\t// out\n        /* \"#utility.yul\":1811:2140   */\n    tag_21:\n        /* \"#utility.yul\":1870:1876   */\n      0x00\n        /* \"#utility.yul\":1919:1921   */\n      0x20\n        /* \"#utility.yul\":1907:1916   */\n      dup3\n        /* \"#utility.yul\":1898:1905   */\n      dup5\n        /* \"#utility.yul\":1894:1917   */\n      sub\n        /* \"#utility.yul\":1890:1922   */\n      slt\n        /* \"#utility.yul\":1887:2006   */\n      iszero\n      tag_192\n      jumpi\n        /* \"#utility.yul\":1925:2004   */\n      tag_193\n      tag_150\n      jump\t// in\n    tag_193:\n        /* \"#utility.yul\":1887:2006   */\n    tag_192:\n        /* \"#utility.yul\":2045:2046   */\n      0x00\n        /* \"#utility.yul\":2070:2123   */\n      tag_194\n        /* \"#utility.yul\":2115:2122   */\n      dup5\n        /* \"#utility.yul\":2106:2112   */\n      dup3\n        /* \"#utility.yul\":2095:2104   */\n      dup6\n        /* \"#utility.yul\":2091:2113   */\n      add\n        /* \"#utility.yul\":2070:2123   */\n      tag_154\n      jump\t// in\n    tag_194:\n        /* \"#utility.yul\":2060:2123   */\n      swap2\n      pop\n        /* \"#utility.yul\":2016:2133   */\n      pop\n        /* \"#utility.yul\":1811:2140   */\n      swap3\n      swap2\n      pop\n      pop\n      jump\t// out\n        /* \"#utility.yul\":2146:2264   */\n    tag_155:\n        /* \"#utility.yul\":2233:2257   */\n      tag_196\n        /* \"#utility.yul\":2251:2256   */\n      dup2\n        /* \"#utility.yul\":2233:2257   */\n      tag_152\n      jump\t// in\n    tag_196:\n        /* \"#utility.yul\":2228:2231   */\n      dup3\n        /* \"#utility.yul\":2221:2258   */\n      mstore\n        /* \"#utility.yul\":2146:2264   */\n      pop\n      pop\n      jump\t// out\n        /* \"#utility.yul\":2270:2492   */\n    tag_29:\n        /* \"#utility.yul\":2363:2367   */\n      0x00\n        /* \"#utility.yul\":2401:2403   */\n      0x20\n        /* \"#utility.yul\":2390:2399   */\n      dup3\n        /* \"#utility.yul\":2386:2404   */\n      add\n        /* \"#utility.yul\":2378:2404   */\n      swap1\n      pop\n        /* \"#utility.yul\":2414:2485   */\n      tag_198\n        /* \"#utility.yul\":2482:2483   */\n      0x00\n        /* \"#utility.yul\":2471:2480   */\n      dup4\n        /* \"#utility.yul\":2467:2484   */\n      add\n        /* \"#utility.yul\":2458:2464   */\n      dup5\n        /* \"#utility.yul\":2414:2485   */\n      tag_155\n      jump\t// in\n    tag_198:\n        /* \"#utility.yul\":2270:2492   */\n      swap3\n      swap2\n      pop\n      pop\n      jump\t// out\n        /* \"#utility.yul\":2498:2678   */\n    tag_66:\n        /* \"#utility.yul\":2546:2623   */\n      0x4e487b7100000000000000000000000000000000000000000000000000000000\n        /* \"#utility.yul\":2543:2544   */\n      0x00\n        /* \"#utility.yul\":2536:2624   */\n      mstore\n        /* \"#utility.yul\":2643:2647   */\n      0x21\n        /* \"#utility.yul\":2640:2641   */\n      0x04\n        /* \"#utility.yul\":2633:2648   */\n      mstore\n        /* \"#utility.yul\":2667:2671   */\n      0x24\n        /* \"#utility.yul\":2664:2665   */\n      0x00\n        /* \"#utility.yul\":2657:2672   */\n      revert\n        /* \"#utility.yul\":2684:2800   */\n    tag_156:\n        /* \"#utility.yul\":2768:2769   */\n      0x04\n        /* \"#utility.yul\":2761:2766   */\n      dup2\n        /* \"#utility.yul\":2758:2770   */\n      lt\n        /* \"#utility.yul\":2748:2794   */\n      tag_201\n      jumpi\n        /* \"#utility.yul\":2774:2792   */\n      tag_202\n      tag_66\n      jump\t// in\n    tag_202:\n        /* \"#utility.yul\":2748:2794   */\n    tag_201:\n        /* \"#utility.yul\":2684:2800   */\n      pop\n      jump\t// out\n        /* \"#utility.yul\":2806:2939   */\n    tag_157:\n        /* \"#utility.yul\":2854:2861   */\n      0x00\n        /* \"#utility.yul\":2883:2888   */\n      dup2\n        /* \"#utility.yul\":2872:2888   */\n      swap1\n      pop\n        /* \"#utility.yul\":2889:2933   */\n      tag_204\n        /* \"#utility.yul\":2927:2932   */\n      dup3\n        /* \"#utility.yul\":2889:2933   */\n      tag_156\n      jump\t// in\n    tag_204:\n        /* \"#utility.yul\":2806:2939   */\n      swap2\n      swap1\n      pop\n      jump\t// out\n        /* \"#utility.yul\":2945:3078   */\n    tag_158:\n        /* \"#utility.yul\":3004:3013   */\n      0x00\n        /* \"#utility.yul\":3037:3072   */\n      tag_206\n        /* \"#utility.yul\":3066:3071   */\n      dup3\n        /* \"#utility.yul\":3037:3072   */\n      tag_157\n      jump\t// in\n    tag_206:\n        /* \"#utility.yul\":3024:3072   */\n      swap1\n      pop\n        /* \"#utility.yul\":2945:3078   */\n      swap2\n      swap1\n      pop\n      jump\t// out\n        /* \"#utility.yul\":3084:3233   */\n    tag_159:\n        /* \"#utility.yul\":3180:3226   */\n      tag_208\n        /* \"#utility.yul\":3220:3225   */\n      dup2\n        /* \"#utility.yul\":3180:3226   */\n      tag_158\n      jump\t// in\n    tag_208:\n        /* \"#utility.yul\":3175:3178   */\n      dup3\n        /* \"#utility.yul\":3168:3227   */\n      mstore\n        /* \"#utility.yul\":3084:3233   */\n      pop\n      pop\n      jump\t// out\n        /* \"#utility.yul\":3239:3699   */\n    tag_37:\n        /* \"#utility.yul\":3397:3401   */\n      0x00\n        /* \"#utility.yul\":3435:3437   */\n      0x60\n        /* \"#utility.yul\":3424:3433   */\n      dup3\n        /* \"#utility.yul\":3420:3438   */\n      add\n        /* \"#utility.yul\":3412:3438   */\n      swap1\n      pop\n        /* \"#utility.yul\":3448:3528   */\n      tag_210\n        /* \"#utility.yul\":3525:3526   */\n      0x00\n        /* \"#utility.yul\":3514:3523   */\n      dup4\n        /* \"#utility.yul\":3510:3527   */\n      add\n        /* \"#utility.yul\":3501:3507   */\n      dup7\n        /* \"#utility.yul\":3448:3528   */\n      tag_159\n      jump\t// in\n    tag_210:\n        /* \"#utility.yul\":3538:3610   */\n      tag_211\n        /* \"#utility.yul\":3606:3608   */\n      0x20\n        /* \"#utility.yul\":3595:3604   */\n      dup4\n        /* \"#utility.yul\":3591:3609   */\n      add\n        /* \"#utility.yul\":3582:3588   */\n      dup6\n        /* \"#utility.yul\":3538:3610   */\n      tag_155\n      jump\t// in\n    tag_211:\n        /* \"#utility.yul\":3620:3692   */\n      tag_212\n        /* \"#utility.yul\":3688:3690   */\n      0x40\n        /* \"#utility.yul\":3677:3686   */\n      dup4\n        /* \"#utility.yul\":3673:3691   */\n      add\n        /* \"#utility.yul\":3664:3670   */\n      dup5\n        /* \"#utility.yul\":3620:3692   */\n      tag_155\n      jump\t// in\n    tag_212:\n        /* \"#utility.yul\":3239:3699   */\n      swap5\n      swap4\n      pop\n      pop\n      pop\n      pop\n      jump\t// out\n        /* \"#utility.yul\":3705:3885   */\n    tag_160:\n        /* \"#utility.yul\":3753:3830   */\n      0x4e487b7100000000000000000000000000000000000000000000000000000000\n        /* \"#utility.yul\":3750:3751   */\n      0x00\n        /* \"#utility.yul\":3743:3831   */\n      mstore\n        /* \"#utility.yul\":3850:3854   */\n      0x11\n        /* \"#utility.yul\":3847:3848   */\n      0x04\n        /* \"#utility.yul\":3840:3855   */\n      mstore\n        /* \"#utility.yul\":3874:3878   */\n      0x24\n        /* \"#utility.yul\":3871:3872   */\n      0x00\n        /* \"#utility.yul\":3864:3879   */\n      revert\n        /* \"#utility.yul\":3891:4301   */\n    tag_51:\n        /* \"#utility.yul\":3931:3938   */\n      0x00\n        /* \"#utility.yul\":3954:3974   */\n      tag_215\n        /* \"#utility.yul\":3972:3973   */\n      dup3\n        /* \"#utility.yul\":3954:3974   */\n      tag_152\n      jump\t// in\n    tag_215:\n        /* \"#utility.yul\":3949:3974   */\n      swap2\n      pop\n        /* \"#utility.yul\":3988:4008   */\n      tag_216\n        /* \"#utility.yul\":4006:4007   */\n      dup4\n        /* \"#utility.yul\":3988:4008   */\n      tag_152\n      jump\t// in\n    tag_216:\n        /* \"#utility.yul\":3983:4008   */\n      swap3\n      pop\n        /* \"#utility.yul\":4043:4044   */\n      dup3\n        /* \"#utility.yul\":4040:4041   */\n      dup3\n        /* \"#utility.yul\":4036:4045   */\n      mul\n        /* \"#utility.yul\":4065:4095   */\n      tag_217\n        /* \"#utility.yul\":4083:4094   */\n      dup2\n        /* \"#utility.yul\":4065:4095   */\n      tag_152\n      jump\t// in\n    tag_217:\n        /* \"#utility.yul\":4054:4095   */\n      swap2\n      pop\n        /* \"#utility.yul\":4244:4245   */\n      dup3\n        /* \"#utility.yul\":4235:4242   */\n      dup3\n        /* \"#utility.yul\":4231:4246   */\n      div\n        /* \"#utility.yul\":4228:4229   */\n      dup5\n        /* \"#utility.yul\":4225:4247   */\n      eq\n        /* \"#utility.yul\":4205:4206   */\n      dup4\n        /* \"#utility.yul\":4198:4207   */\n      iszero\n        /* \"#utility.yul\":4178:4261   */\n      or\n        /* \"#utility.yul\":4155:4294   */\n      tag_218\n      jumpi\n        /* \"#utility.yul\":4274:4292   */\n      tag_219\n      tag_160\n      jump\t// in\n    tag_219:\n        /* \"#utility.yul\":4155:4294   */\n    tag_218:\n        /* \"#utility.yul\":3939:4301   */\n      pop\n        /* \"#utility.yul\":3891:4301   */\n      swap3\n      swap2\n      pop\n      pop\n      jump\t// out\n        /* \"#utility.yul\":4307:4403   */\n    tag_161:\n        /* \"#utility.yul\":4344:4351   */\n      0x00\n        /* \"#utility.yul\":4373:4397   */\n      tag_221\n        /* \"#utility.yul\":4391:4396   */\n      dup3\n        /* \"#utility.yul\":4373:4397   */\n      tag_143\n      jump\t// in\n    tag_221:\n        /* \"#utility.yul\":4362:4397   */\n      swap1\n      pop\n        /* \"#utility.yul\":4307:4403   */\n      swap2\n      swap1\n      pop\n      jump\t// out\n        /* \"#utility.yul\":4409:4527   */\n    tag_162:\n        /* \"#utility.yul\":4496:4520   */\n      tag_223\n        /* \"#utility.yul\":4514:4519   */\n      dup2\n        /* \"#utility.yul\":4496:4520   */\n      tag_161\n      jump\t// in\n    tag_223:\n        /* \"#utility.yul\":4491:4494   */\n      dup3\n        /* \"#utility.yul\":4484:4521   */\n      mstore\n        /* \"#utility.yul\":4409:4527   */\n      pop\n      pop\n      jump\t// out\n        /* \"#utility.yul\":4533:4865   */\n    tag_55:\n        /* \"#utility.yul\":4654:4658   */\n      0x00\n        /* \"#utility.yul\":4692:4694   */\n      0x40\n        /* \"#utility.yul\":4681:4690   */\n      dup3\n        /* \"#utility.yul\":4677:4695   */\n      add\n        /* \"#utility.yul\":4669:4695   */\n      swap1\n      pop\n        /* \"#utility.yul\":4705:4776   */\n      tag_225\n        /* \"#utility.yul\":4773:4774   */\n      0x00\n        /* \"#utility.yul\":4762:4771   */\n      dup4\n        /* \"#utility.yul\":4758:4775   */\n      add\n        /* \"#utility.yul\":4749:4755   */\n      dup6\n        /* \"#utility.yul\":4705:4776   */\n      tag_162\n      jump\t// in\n    tag_225:\n        /* \"#utility.yul\":4786:4858   */\n      tag_226\n        /* \"#utility.yul\":4854:4856   */\n      0x20\n        /* \"#utility.yul\":4843:4852   */\n      dup4\n        /* \"#utility.yul\":4839:4857   */\n      add\n        /* \"#utility.yul\":4830:4836   */\n      dup5\n        /* \"#utility.yul\":4786:4858   */\n      tag_155\n      jump\t// in\n    tag_226:\n        /* \"#utility.yul\":4533:4865   */\n      swap4\n      swap3\n      pop\n      pop\n      pop\n      jump\t// out\n        /* \"#utility.yul\":4871:4974   */\n    tag_163:\n        /* \"#utility.yul\":4934:4941   */\n      0x00\n        /* \"#utility.yul\":4963:4968   */\n      dup2\n        /* \"#utility.yul\":4952:4968   */\n      swap1\n      pop\n        /* \"#utility.yul\":4871:4974   */\n      swap2\n      swap1\n      pop\n      jump\t// out\n        /* \"#utility.yul\":4980:5174   */\n    tag_164:\n        /* \"#utility.yul\":5056:5065   */\n      0x00\n        /* \"#utility.yul\":5089:5168   */\n      tag_229\n        /* \"#utility.yul\":5107:5167   */\n      tag_230\n        /* \"#utility.yul\":5116:5166   */\n      tag_231\n        /* \"#utility.yul\":5160:5165   */\n      dup5\n        /* \"#utility.yul\":5116:5166   */\n      tag_163\n      jump\t// in\n    tag_231:\n        /* \"#utility.yul\":5107:5167   */\n      tag_144\n      jump\t// in\n    tag_230:\n        /* \"#utility.yul\":5089:5168   */\n      tag_152\n      jump\t// in\n    tag_229:\n        /* \"#utility.yul\":5076:5168   */\n      swap1\n      pop\n        /* \"#utility.yul\":4980:5174   */\n      swap2\n      swap1\n      pop\n      jump\t// out\n        /* \"#utility.yul\":5180:5363   */\n    tag_165:\n        /* \"#utility.yul\":5293:5356   */\n      tag_233\n        /* \"#utility.yul\":5350:5355   */\n      dup2\n        /* \"#utility.yul\":5293:5356   */\n      tag_164\n      jump\t// in\n    tag_233:\n        /* \"#utility.yul\":5288:5291   */\n      dup3\n        /* \"#utility.yul\":5281:5357   */\n      mstore\n        /* \"#utility.yul\":5180:5363   */\n      pop\n      pop\n      jump\t// out\n        /* \"#utility.yul\":5369:5753   */\n    tag_72:\n        /* \"#utility.yul\":5516:5520   */\n      0x00\n        /* \"#utility.yul\":5554:5556   */\n      0x40\n        /* \"#utility.yul\":5543:5552   */\n      dup3\n        /* \"#utility.yul\":5539:5557   */\n      add\n        /* \"#utility.yul\":5531:5557   */\n      swap1\n      pop\n        /* \"#utility.yul\":5567:5638   */\n      tag_235\n        /* \"#utility.yul\":5635:5636   */\n      0x00\n        /* \"#utility.yul\":5624:5633   */\n      dup4\n        /* \"#utility.yul\":5620:5637   */\n      add\n        /* \"#utility.yul\":5611:5617   */\n      dup6\n        /* \"#utility.yul\":5567:5638   */\n      tag_162\n      jump\t// in\n    tag_235:\n        /* \"#utility.yul\":5648:5746   */\n      tag_236\n        /* \"#utility.yul\":5742:5744   */\n      0x20\n        /* \"#utility.yul\":5731:5740   */\n      dup4\n        /* \"#utility.yul\":5727:5745   */\n      add\n        /* \"#utility.yul\":5718:5724   */\n      dup5\n        /* \"#utility.yul\":5648:5746   */\n      tag_165\n      jump\t// in\n    tag_236:\n        /* \"#utility.yul\":5369:5753   */\n      swap4\n      swap3\n      pop\n      pop\n      pop\n      jump\t// out\n        /* \"#utility.yul\":5759:5981   */\n    tag_78:\n        /* \"#utility.yul\":5852:5856   */\n      0x00\n        /* \"#utility.yul\":5890:5892   */\n      0x20\n        /* \"#utility.yul\":5879:5888   */\n      dup3\n        /* \"#utility.yul\":5875:5893   */\n      add\n        /* \"#utility.yul\":5867:5893   */\n      swap1\n      pop\n        /* \"#utility.yul\":5903:5974   */\n      tag_238\n        /* \"#utility.yul\":5971:5972   */\n      0x00\n        /* \"#utility.yul\":5960:5969   */\n      dup4\n        /* \"#utility.yul\":5956:5973   */\n      add\n        /* \"#utility.yul\":5947:5953   */\n      dup5\n        /* \"#utility.yul\":5903:5974   */\n      tag_162\n      jump\t// in\n    tag_238:\n        /* \"#utility.yul\":5759:5981   */\n      swap3\n      swap2\n      pop\n      pop\n      jump\t// out\n        /* \"#utility.yul\":5987:6130   */\n    tag_166:\n        /* \"#utility.yul\":6044:6049   */\n      0x00\n        /* \"#utility.yul\":6075:6081   */\n      dup2\n        /* \"#utility.yul\":6069:6082   */\n      mload\n        /* \"#utility.yul\":6060:6082   */\n      swap1\n      pop\n        /* \"#utility.yul\":6091:6124   */\n      tag_240\n        /* \"#utility.yul\":6118:6123   */\n      dup2\n        /* \"#utility.yul\":6091:6124   */\n      tag_153\n      jump\t// in\n    tag_240:\n        /* \"#utility.yul\":5987:6130   */\n      swap3\n      swap2\n      pop\n      pop\n      jump\t// out\n        /* \"#utility.yul\":6136:6487   */\n    tag_82:\n        /* \"#utility.yul\":6206:6212   */\n      0x00\n        /* \"#utility.yul\":6255:6257   */\n      0x20\n        /* \"#utility.yul\":6243:6252   */\n      dup3\n        /* \"#utility.yul\":6234:6241   */\n      dup5\n        /* \"#utility.yul\":6230:6253   */\n      sub\n        /* \"#utility.yul\":6226:6258   */\n      slt\n        /* \"#utility.yul\":6223:6342   */\n      iszero\n      tag_242\n      jumpi\n        /* \"#utility.yul\":6261:6340   */\n      tag_243\n      tag_150\n      jump\t// in\n    tag_243:\n        /* \"#utility.yul\":6223:6342   */\n    tag_242:\n        /* \"#utility.yul\":6381:6382   */\n      0x00\n        /* \"#utility.yul\":6406:6470   */\n      tag_244\n        /* \"#utility.yul\":6462:6469   */\n      dup5\n        /* \"#utility.yul\":6453:6459   */\n      dup3\n        /* \"#utility.yul\":6442:6451   */\n      dup6\n        /* \"#utility.yul\":6438:6460   */\n      add\n        /* \"#utility.yul\":6406:6470   */\n      tag_166\n      jump\t// in\n    tag_244:\n        /* \"#utility.yul\":6396:6470   */\n      swap2\n      pop\n        /* \"#utility.yul\":6352:6480   */\n      pop\n        /* \"#utility.yul\":6136:6487   */\n      swap3\n      swap2\n      pop\n      pop\n      jump\t// out\n        /* \"#utility.yul\":6493:6664   */\n    tag_95:\n        /* \"#utility.yul\":6532:6535   */\n      0x00\n        /* \"#utility.yul\":6555:6579   */\n      tag_246\n        /* \"#utility.yul\":6573:6578   */\n      dup3\n        /* \"#utility.yul\":6555:6579   */\n      tag_152\n      jump\t// in\n    tag_246:\n        /* \"#utility.yul\":6546:6579   */\n      swap2\n      pop\n        /* \"#utility.yul\":6601:6605   */\n      0x00\n        /* \"#utility.yul\":6594:6599   */\n      dup3\n        /* \"#utility.yul\":6591:6606   */\n      sub\n        /* \"#utility.yul\":6588:6629   */\n      tag_247\n      jumpi\n        /* \"#utility.yul\":6609:6627   */\n      tag_248\n      tag_160\n      jump\t// in\n    tag_248:\n        /* \"#utility.yul\":6588:6629   */\n    tag_247:\n        /* \"#utility.yul\":6656:6657   */\n      0x01\n        /* \"#utility.yul\":6649:6654   */\n      dup3\n        /* \"#utility.yul\":6645:6658   */\n      sub\n        /* \"#utility.yul\":6638:6658   */\n      swap1\n      pop\n        /* \"#utility.yul\":6493:6664   */\n      swap2\n      swap1\n      pop\n      jump\t// out\n        /* \"#utility.yul\":6670:6903   */\n    tag_140:\n        /* \"#utility.yul\":6709:6712   */\n      0x00\n        /* \"#utility.yul\":6732:6756   */\n      tag_250\n        /* \"#utility.yul\":6750:6755   */\n      dup3\n        /* \"#utility.yul\":6732:6756   */\n      tag_152\n      jump\t// in\n    tag_250:\n        /* \"#utility.yul\":6723:6756   */\n      swap2\n      pop\n        /* \"#utility.yul\":6778:6844   */\n      0xffffffffffffffffffffffffffffffffffffffffffffffffffffffffffffffff\n        /* \"#utility.yul\":6771:6776   */\n      dup3\n        /* \"#utility.yul\":6768:6845   */\n      sub\n        /* \"#utility.yul\":6765:6868   */\n      tag_251\n      jumpi\n        /* \"#utility.yul\":6848:6866   */\n      tag_252\n      tag_160\n      jump\t// in\n    tag_252:\n        /* \"#utility.yul\":6765:6868   */\n    tag_251:\n        /* \"#utility.yul\":6895:6896   */\n      0x01\n        /* \"#utility.yul\":6888:6893   */\n      dup3\n        /* \"#utility.yul\":6884:6897   */\n      add\n        /* \"#utility.yul\":6877:6897   */\n      swap1\n      pop\n        /* \"#utility.yul\":6670:6903   */\n      swap2\n      swap1\n      pop\n      jump\t// out\n        /* \"#utility.yul\":6909:7103   */\n    tag_142:\n        /* \"#utility.yul\":6949:6953   */\n      0x00\n        /* \"#utility.yul\":6969:6989   */\n      tag_254\n        /* \"#utility.yul\":6987:6988   */\n      dup3\n        /* \"#utility.yul\":6969:6989   */\n      tag_152\n      jump\t// in\n    tag_254:\n        /* \"#utility.yul\":6964:6989   */\n      swap2\n      pop\n        /* \"#utility.yul\":7003:7023   */\n      tag_255\n        /* \"#utility.yul\":7021:7022   */\n      dup4\n        /* \"#utility.yul\":7003:7023   */\n      tag_152\n      jump\t// in\n    tag_255:\n        /* \"#utility.yul\":6998:7023   */\n      swap3\n      pop\n        /* \"#utility.yul\":7047:7048   */\n      dup3\n        /* \"#utility.yul\":7044:7045   */\n      dup3\n        /* \"#utility.yul\":7040:7049   */\n      sub\n        /* \"#utility.yul\":7032:7049   */\n      swap1\n      pop\n        /* \"#utility.yul\":7071:7072   */\n      dup2\n        /* \"#utility.yul\":7065:7069   */\n      dup2\n        /* \"#utility.yul\":7062:7073   */\n      gt\n        /* \"#utility.yul\":7059:7096   */\n      iszero\n      tag_256\n      jumpi\n        /* \"#utility.yul\":7076:7094   */\n      tag_257\n      tag_160\n      jump\t// in\n    tag_257:\n        /* \"#utility.yul\":7059:7096   */\n    tag_256:\n        /* \"#utility.yul\":6909:7103   */\n      swap3\n      swap2\n      pop\n      pop\n      jump\t// out\n\n    auxdata: 0xa2646970667358221220fa6098696db04eff5773d712a1b153deb03af807308e290455748c80cfbc66e264736f6c63430008120033\n}\n",
				"bytecode": {
					"linkReferences": {},
					"object": "608060405234801561001057600080fd5b50604051610d94380380610d94833981810160405281019061003291906100dc565b80600360006101000a81548173ffffffffffffffffffffffffffffffffffffffff021916908373ffffffffffffffffffffffffffffffffffffffff16021790555050610109565b600080fd5b600073ffffffffffffffffffffffffffffffffffffffff82169050919050565b60006100a98261007e565b9050919050565b6100b98161009e565b81146100c457600080fd5b50565b6000815190506100d6816100b0565b92915050565b6000602082840312156100f2576100f1610079565b5b6000610100848285016100c7565b91505092915050565b610c7c806101186000396000f3fe6080604052600436106100905760003560e01c80639cdde813116100595780639cdde81314610135578063af10c81014610162578063ba33ed7d14610179578063d0e30db014610190578063f282df781461019a57610090565b8062e71aaf14610095578063075c478a146100c05780633446136a146100e957806337de45f8146100f357806396f1c1a81461011e575b600080fd5b3480156100a157600080fd5b506100aa6101b1565b6040516100b791906108ca565b60405180910390f35b3480156100cc57600080fd5b506100e760048036038101906100e29190610920565b6101d7565b005b6100f16102e8565b005b3480156100ff57600080fd5b5061010861041d565b604051610115919061095c565b60405180910390f35b34801561012a57600080fd5b506101336104c0565b005b34801561014157600080fd5b5061014a6105f1565b604051610159939291906109ee565b60405180910390f35b34801561016e57600080fd5b50610177610616565b005b34801561018557600080fd5b5061018e6106be565b005b61019861073f565b005b3480156101a657600080fd5b506101af610741565b005b600360009054906101000a900473ffffffffffffffffffffffffffffffffffffffff1681565b670de0b6b3a7640000816101eb9190610a54565b9050600360009054906101000a900473ffffffffffffffffffffffffffffffffffffffff1673ffffffffffffffffffffffffffffffffffffffff166108fc829081150290604051600060405180830381858888f19350505050158015610255573d6000803e3d6000fd5b50600360009054906101000a900473ffffffffffffffffffffffffffffffffffffffff1673ffffffffffffffffffffffffffffffffffffffff16632982efdb30836040518363ffffffff1660e01b81526004016102b3929190610ab7565b600060405180830381600087803b1580156102cd57600080fd5b505af11580156102e1573d6000803e3d6000fd5b5050505050565b60006102f261041d565b9050670de0b6b3a7640000811015801561030c5750600034145b8061031e5750670de0b6b3a764000034145b801561035f57506002600381111561033957610338610977565b5b6000800160009054906101000a900460ff16600381111561035d5761035c610977565b5b145b61036857600080fd5b670de0b6b3a7640000341461040f57600360009054906101000a900473ffffffffffffffffffffffffffffffffffffffff1673ffffffffffffffffffffffffffffffffffffffff166338b18b7a30670de0b6b3a76400006040518363ffffffff1660e01b81526004016103dc929190610b1b565b600060405180830381600087803b1580156103f657600080fd5b505af115801561040a573d6000803e3d6000fd5b505050505b606460006001018190555050565b6000600360009054906101000a900473ffffffffffffffffffffffffffffffffffffffff1673ffffffffffffffffffffffffffffffffffffffff16634639a55a306040518263ffffffff1660e01b815260040161047a9190610b44565b602060405180830381865afa158015610497573d6000803e3d6000fd5b505050506040513d601f19601f820116820180604052508101906104bb9190610b74565b905090565b600260038111156104d4576104d3610977565b5b6000800160009054906101000a900460ff1660038111156104f8576104f7610977565b5b1415801561053c57506000600381111561051557610514610977565b5b6000800160009054906101000a900460ff16600381111561053957610538610977565b5b14155b61054557600080fd5b6000600201600081548092919061055b90610ba1565b91905055506000600101600081548092919061057690610ba1565b919050555060008060020154036105b55760008060000160006101000a81548160ff021916908360038111156105af576105ae610977565b5b02179055505b60008060010154036105ef5760036000800160006101000a81548160ff021916908360038111156105e9576105e8610977565b5b02179055505b565b60008060000160009054906101000a900460ff16908060010154908060020154905083565b6000806002015414801561066057506002600381111561063957610638610977565b5b6000800160009054906101000a900460ff16600381111561065d5761065c610977565b5b14155b8061066f575060008060010154145b61067857600080fd5b600080600201541461068f57600080600201819055505b60026000800160006101000a81548160ff021916908360038111156106b7576106b6610977565b5b0217905550565b600260038111156106d2576106d1610977565b5b6000800160009054906101000a900460ff1660038111156106f6576106f5610977565b5b148015610707575060008060010154115b61071057600080fd5b60008060000160006101000a81548160ff0219169083600381111561073857610737610977565b5b0217905550565b565b601e60006001015411801561075b57506046600060020154105b801561079d57506002600381111561077657610775610977565b5b6000800160009054906101000a900460ff16600381111561079a57610799610977565b5b14155b6107a657600080fd5b600160038111156107ba576107b9610977565b5b6000800160009054906101000a900460ff1660038111156107de576107dd610977565b5b146108115760016000800160006101000a81548160ff0219169083600381111561080b5761080a610977565b5b02179055505b6000600201600081548092919061082790610bca565b91905055506002600060010160008282546108429190610c12565b92505081905550565b600073ffffffffffffffffffffffffffffffffffffffff82169050919050565b6000819050919050565b600061089061088b6108868461084b565b61086b565b61084b565b9050919050565b60006108a282610875565b9050919050565b60006108b482610897565b9050919050565b6108c4816108a9565b82525050565b60006020820190506108df60008301846108bb565b92915050565b600080fd5b6000819050919050565b6108fd816108ea565b811461090857600080fd5b50565b60008135905061091a816108f4565b92915050565b600060208284031215610936576109356108e5565b5b60006109448482850161090b565b91505092915050565b610956816108ea565b82525050565b6000602082019050610971600083018461094d565b92915050565b7f4e487b7100000000000000000000000000000000000000000000000000000000600052602160045260246000fd5b600481106109b7576109b6610977565b5b50565b60008190506109c8826109a6565b919050565b60006109d8826109ba565b9050919050565b6109e8816109cd565b82525050565b6000606082019050610a0360008301866109df565b610a10602083018561094d565b610a1d604083018461094d565b949350505050565b7f4e487b7100000000000000000000000000000000000000000000000000000000600052601160045260246000fd5b6000610a5f826108ea565b9150610a6a836108ea565b9250828202610a78816108ea565b91508282048414831517610a8f57610a8e610a25565b5b5092915050565b6000610aa18261084b565b9050919050565b610ab181610a96565b82525050565b6000604082019050610acc6000830185610aa8565b610ad9602083018461094d565b9392505050565b6000819050919050565b6000610b05610b00610afb84610ae0565b61086b565b6108ea565b9050919050565b610b1581610aea565b82525050565b6000604082019050610b306000830185610aa8565b610b3d6020830184610b0c565b9392505050565b6000602082019050610b596000830184610aa8565b92915050565b600081519050610b6e816108f4565b92915050565b600060208284031215610b8a57610b896108e5565b5b6000610b9884828501610b5f565b91505092915050565b6000610bac826108ea565b915060008203610bbf57610bbe610a25565b5b600182039050919050565b6000610bd5826108ea565b91507fffffffffffffffffffffffffffffffffffffffffffffffffffffffffffffffff8203610c0757610c06610a25565b5b600182019050919050565b6000610c1d826108ea565b9150610c28836108ea565b9250828203905081811115610c4057610c3f610a25565b5b9291505056fea2646970667358221220fa6098696db04eff5773d712a1b153deb03af807308e290455748c80cfbc66e264736f6c63430008120033",
					"opcodes": "PUSH1 0x80 PUSH1 0x40 MSTORE CALLVALUE DUP1 ISZERO PUSH2 0x10 JUMPI PUSH1 0x0 DUP1 REVERT JUMPDEST POP PUSH1 0x40 MLOAD PUSH2 0xD94 CODESIZE SUB DUP1 PUSH2 0xD94 DUP4 CODECOPY DUP2 DUP2 ADD PUSH1 0x40 MSTORE DUP2 ADD SWAP1 PUSH2 0x32 SWAP2 SWAP1 PUSH2 0xDC JUMP JUMPDEST DUP1 PUSH1 0x3 PUSH1 0x0 PUSH2 0x100 EXP DUP2 SLOAD DUP2 PUSH20 0xFFFFFFFFFFFFFFFFFFFFFFFFFFFFFFFFFFFFFFFF MUL NOT AND SWAP1 DUP4 PUSH20 0xFFFFFFFFFFFFFFFFFFFFFFFFFFFFFFFFFFFFFFFF AND MUL OR SWAP1 SSTORE POP POP PUSH2 0x109 JUMP JUMPDEST PUSH1 0x0 DUP1 REVERT JUMPDEST PUSH1 0x0 PUSH20 0xFFFFFFFFFFFFFFFFFFFFFFFFFFFFFFFFFFFFFFFF DUP3 AND SWAP1 POP SWAP2 SWAP1 POP JUMP JUMPDEST PUSH1 0x0 PUSH2 0xA9 DUP3 PUSH2 0x7E JUMP JUMPDEST SWAP1 POP SWAP2 SWAP1 POP JUMP JUMPDEST PUSH2 0xB9 DUP2 PUSH2 0x9E JUMP JUMPDEST DUP2 EQ PUSH2 0xC4 JUMPI PUSH1 0x0 DUP1 REVERT JUMPDEST POP JUMP JUMPDEST PUSH1 0x0 DUP2 MLOAD SWAP1 POP PUSH2 0xD6 DUP2 PUSH2 0xB0 JUMP JUMPDEST SWAP3 SWAP2 POP POP JUMP JUMPDEST PUSH1 0x0 PUSH1 0x20 DUP3 DUP5 SUB SLT ISZERO PUSH2 0xF2 JUMPI PUSH2 0xF1 PUSH2 0x79 JUMP JUMPDEST JUMPDEST PUSH1 0x0 PUSH2 0x100 DUP5 DUP3 DUP6 ADD PUSH2 0xC7 JUMP JUMPDEST SWAP2 POP POP SWAP3 SWAP2 POP POP JUMP JUMPDEST PUSH2 0xC7C DUP1 PUSH2 0x118 PUSH1 0x0 CODECOPY PUSH1 0x0 RETURN INVALID PUSH1 0x80 PUSH1 0x40 MSTORE PUSH1 0x4 CALLDATASIZE LT PUSH2 0x90 JUMPI PUSH1 0x0 CALLDATALOAD PUSH1 0xE0 SHR DUP1 PUSH4 0x9CDDE813 GT PUSH2 0x59 JUMPI DUP1 PUSH4 0x9CDDE813 EQ PUSH2 0x135 JUMPI DUP1 PUSH4 0xAF10C810 EQ PUSH2 0x162 JUMPI DUP1 PUSH4 0xBA33ED7D EQ PUSH2 0x179 JUMPI DUP1 PUSH4 0xD0E30DB0 EQ PUSH2 0x190 JUMPI DUP1 PUSH4 0xF282DF78 EQ PUSH2 0x19A JUMPI PUSH2 0x90 JUMP JUMPDEST DUP1 PUSH3 0xE71AAF EQ PUSH2 0x95 JUMPI DUP1 PUSH4 0x75C478A EQ PUSH2 0xC0 JUMPI DUP1 PUSH4 0x3446136A EQ PUSH2 0xE9 JUMPI DUP1 PUSH4 0x37DE45F8 EQ PUSH2 0xF3 JUMPI DUP1 PUSH4 0x96F1C1A8 EQ PUSH2 0x11E JUMPI JUMPDEST PUSH1 0x0 DUP1 REVERT JUMPDEST CALLVALUE DUP1 ISZERO PUSH2 0xA1 JUMPI PUSH1 0x0 DUP1 REVERT JUMPDEST POP PUSH2 0xAA PUSH2 0x1B1 JUMP JUMPDEST PUSH1 0x40 MLOAD PUSH2 0xB7 SWAP2 SWAP1 PUSH2 0x8CA JUMP JUMPDEST PUSH1 0x40 MLOAD DUP1 SWAP2 SUB SWAP1 RETURN JUMPDEST CALLVALUE DUP1 ISZERO PUSH2 0xCC JUMPI PUSH1 0x0 DUP1 REVERT JUMPDEST POP PUSH2 0xE7 PUSH1 0x4 DUP1 CALLDATASIZE SUB DUP2 ADD SWAP1 PUSH2 0xE2 SWAP2 SWAP1 PUSH2 0x920 JUMP JUMPDEST PUSH2 0x1D7 JUMP JUMPDEST STOP JUMPDEST PUSH2 0xF1 PUSH2 0x2E8 JUMP JUMPDEST STOP JUMPDEST CALLVALUE DUP1 ISZERO PUSH2 0xFF JUMPI PUSH1 0x0 DUP1 REVERT JUMPDEST POP PUSH2 0x108 PUSH2 0x41D JUMP JUMPDEST PUSH1 0x40 MLOAD PUSH2 0x115 SWAP2 SWAP1 PUSH2 0x95C JUMP JUMPDEST PUSH1 0x40 MLOAD DUP1 SWAP2 SUB SWAP1 RETURN JUMPDEST CALLVALUE DUP1 ISZERO PUSH2 0x12A JUMPI PUSH1 0x0 DUP1 REVERT JUMPDEST POP PUSH2 0x133 PUSH2 0x4C0 JUMP JUMPDEST STOP JUMPDEST CALLVALUE DUP1 ISZERO PUSH2 0x141 JUMPI PUSH1 0x0 DUP1 REVERT JUMPDEST POP PUSH2 0x14A PUSH2 0x5F1 JUMP JUMPDEST PUSH1 0x40 MLOAD PUSH2 0x159 SWAP4 SWAP3 SWAP2 SWAP1 PUSH2 0x9EE JUMP JUMPDEST PUSH1 0x40 MLOAD DUP1 SWAP2 SUB SWAP1 RETURN JUMPDEST CALLVALUE DUP1 ISZERO PUSH2 0x16E JUMPI PUSH1 0x0 DUP1 REVERT JUMPDEST POP PUSH2 0x177 PUSH2 0x616 JUMP JUMPDEST STOP JUMPDEST CALLVALUE DUP1 ISZERO PUSH2 0x185 JUMPI PUSH1 0x0 DUP1 REVERT JUMPDEST POP PUSH2 0x18E PUSH2 0x6BE JUMP JUMPDEST STOP JUMPDEST PUSH2 0x198 PUSH2 0x73F JUMP JUMPDEST STOP JUMPDEST CALLVALUE DUP1 ISZERO PUSH2 0x1A6 JUMPI PUSH1 0x0 DUP1 REVERT JUMPDEST POP PUSH2 0x1AF PUSH2 0x741 JUMP JUMPDEST STOP JUMPDEST PUSH1 0x3 PUSH1 0x0 SWAP1 SLOAD SWAP1 PUSH2 0x100 EXP SWAP1 DIV PUSH20 0xFFFFFFFFFFFFFFFFFFFFFFFFFFFFFFFFFFFFFFFF AND DUP2 JUMP JUMPDEST PUSH8 0xDE0B6B3A7640000 DUP2 PUSH2 0x1EB SWAP2 SWAP1 PUSH2 0xA54 JUMP JUMPDEST SWAP1 POP PUSH1 0x3 PUSH1 0x0 SWAP1 SLOAD SWAP1 PUSH2 0x100 EXP SWAP1 DIV PUSH20 0xFFFFFFFFFFFFFFFFFFFFFFFFFFFFFFFFFFFFFFFF AND PUSH20 0xFFFFFFFFFFFFFFFFFFFFFFFFFFFFFFFFFFFFFFFF AND PUSH2 0x8FC DUP3 SWAP1 DUP2 ISZERO MUL SWAP1 PUSH1 0x40 MLOAD PUSH1 0x0 PUSH1 0x40 MLOAD DUP1 DUP4 SUB DUP2 DUP6 DUP9 DUP9 CALL SWAP4 POP POP POP POP ISZERO DUP1 ISZERO PUSH2 0x255 JUMPI RETURNDATASIZE PUSH1 0x0 DUP1 RETURNDATACOPY RETURNDATASIZE PUSH1 0x0 REVERT JUMPDEST POP PUSH1 0x3 PUSH1 0x0 SWAP1 SLOAD SWAP1 PUSH2 0x100 EXP SWAP1 DIV PUSH20 0xFFFFFFFFFFFFFFFFFFFFFFFFFFFFFFFFFFFFFFFF AND PUSH20 0xFFFFFFFFFFFFFFFFFFFFFFFFFFFFFFFFFFFFFFFF AND PUSH4 0x2982EFDB ADDRESS DUP4 PUSH1 0x40 MLOAD DUP4 PUSH4 0xFFFFFFFF AND PUSH1 0xE0 SHL DUP2 MSTORE PUSH1 0x4 ADD PUSH2 0x2B3 SWAP3 SWAP2 SWAP1 PUSH2 0xAB7 JUMP JUMPDEST PUSH1 0x0 PUSH1 0x40 MLOAD DUP1 DUP4 SUB DUP2 PUSH1 0x0 DUP8 DUP1 EXTCODESIZE ISZERO DUP1 ISZERO PUSH2 0x2CD JUMPI PUSH1 0x0 DUP1 REVERT JUMPDEST POP GAS CALL ISZERO DUP1 ISZERO PUSH2 0x2E1 JUMPI RETURNDATASIZE PUSH1 0x0 DUP1 RETURNDATACOPY RETURNDATASIZE PUSH1 0x0 REVERT JUMPDEST POP POP POP POP POP JUMP JUMPDEST PUSH1 0x0 PUSH2 0x2F2 PUSH2 0x41D JUMP JUMPDEST SWAP1 POP PUSH8 0xDE0B6B3A7640000 DUP2 LT ISZERO DUP1 ISZERO PUSH2 0x30C JUMPI POP PUSH1 0x0 CALLVALUE EQ JUMPDEST DUP1 PUSH2 0x31E JUMPI POP PUSH8 0xDE0B6B3A7640000 CALLVALUE EQ JUMPDEST DUP1 ISZERO PUSH2 0x35F JUMPI POP PUSH1 0x2 PUSH1 0x3 DUP2 GT ISZERO PUSH2 0x339 JUMPI PUSH2 0x338 PUSH2 0x977 JUMP JUMPDEST JUMPDEST PUSH1 0x0 DUP1 ADD PUSH1 0x0 SWAP1 SLOAD SWAP1 PUSH2 0x100 EXP SWAP1 DIV PUSH1 0xFF AND PUSH1 0x3 DUP2 GT ISZERO PUSH2 0x35D JUMPI PUSH2 0x35C PUSH2 0x977 JUMP JUMPDEST JUMPDEST EQ JUMPDEST PUSH2 0x368 JUMPI PUSH1 0x0 DUP1 REVERT JUMPDEST PUSH8 0xDE0B6B3A7640000 CALLVALUE EQ PUSH2 0x40F JUMPI PUSH1 0x3 PUSH1 0x0 SWAP1 SLOAD SWAP1 PUSH2 0x100 EXP SWAP1 DIV PUSH20 0xFFFFFFFFFFFFFFFFFFFFFFFFFFFFFFFFFFFFFFFF AND PUSH20 0xFFFFFFFFFFFFFFFFFFFFFFFFFFFFFFFFFFFFFFFF AND PUSH4 0x38B18B7A ADDRESS PUSH8 0xDE0B6B3A7640000 PUSH1 0x40 MLOAD DUP4 PUSH4 0xFFFFFFFF AND PUSH1 0xE0 SHL DUP2 MSTORE PUSH1 0x4 ADD PUSH2 0x3DC SWAP3 SWAP2 SWAP1 PUSH2 0xB1B JUMP JUMPDEST PUSH1 0x0 PUSH1 0x40 MLOAD DUP1 DUP4 SUB DUP2 PUSH1 0x0 DUP8 DUP1 EXTCODESIZE ISZERO DUP1 ISZERO PUSH2 0x3F6 JUMPI PUSH1 0x0 DUP1 REVERT JUMPDEST POP GAS CALL ISZERO DUP1 ISZERO PUSH2 0x40A JUMPI RETURNDATASIZE PUSH1 0x0 DUP1 RETURNDATACOPY RETURNDATASIZE PUSH1 0x0 REVERT JUMPDEST POP POP POP POP JUMPDEST PUSH1 0x64 PUSH1 0x0 PUSH1 0x1 ADD DUP2 SWAP1 SSTORE POP POP JUMP JUMPDEST PUSH1 0x0 PUSH1 0x3 PUSH1 0x0 SWAP1 SLOAD SWAP1 PUSH2 0x100 EXP SWAP1 DIV PUSH20 0xFFFFFFFFFFFFFFFFFFFFFFFFFFFFFFFFFFFFFFFF AND PUSH20 0xFFFFFFFFFFFFFFFFFFFFFFFFFFFFFFFFFFFFFFFF AND PUSH4 0x4639A55A ADDRESS PUSH1 0x40 MLOAD DUP3 PUSH4 0xFFFFFFFF AND PUSH1 0xE0 SHL DUP2 MSTORE PUSH1 0x4 ADD PUSH2 0x47A SWAP2 SWAP1 PUSH2 0xB44 JUMP JUMPDEST PUSH1 0x20 PUSH1 0x40 MLOAD DUP1 DUP4 SUB DUP2 DUP7 GAS STATICCALL ISZERO DUP1 ISZERO PUSH2 0x497 JUMPI RETURNDATASIZE PUSH1 0x0 DUP1 RETURNDATACOPY RETURNDATASIZE PUSH1 0x0 REVERT JUMPDEST POP POP POP POP PUSH1 0x40 MLOAD RETURNDATASIZE PUSH1 0x1F NOT PUSH1 0x1F DUP3 ADD AND DUP3 ADD DUP1 PUSH1 0x40 MSTORE POP DUP2 ADD SWAP1 PUSH2 0x4BB SWAP2 SWAP1 PUSH2 0xB74 JUMP JUMPDEST SWAP1 POP SWAP1 JUMP JUMPDEST PUSH1 0x2 PUSH1 0x3 DUP2 GT ISZERO PUSH2 0x4D4 JUMPI PUSH2 0x4D3 PUSH2 0x977 JUMP JUMPDEST JUMPDEST PUSH1 0x0 DUP1 ADD PUSH1 0x0 SWAP1 SLOAD SWAP1 PUSH2 0x100 EXP SWAP1 DIV PUSH1 0xFF AND PUSH1 0x3 DUP2 GT ISZERO PUSH2 0x4F8 JUMPI PUSH2 0x4F7 PUSH2 0x977 JUMP JUMPDEST JUMPDEST EQ ISZERO DUP1 ISZERO PUSH2 0x53C JUMPI POP PUSH1 0x0 PUSH1 0x3 DUP2 GT ISZERO PUSH2 0x515 JUMPI PUSH2 0x514 PUSH2 0x977 JUMP JUMPDEST JUMPDEST PUSH1 0x0 DUP1 ADD PUSH1 0x0 SWAP1 SLOAD SWAP1 PUSH2 0x100 EXP SWAP1 DIV PUSH1 0xFF AND PUSH1 0x3 DUP2 GT ISZERO PUSH2 0x539 JUMPI PUSH2 0x538 PUSH2 0x977 JUMP JUMPDEST JUMPDEST EQ ISZERO JUMPDEST PUSH2 0x545 JUMPI PUSH1 0x0 DUP1 REVERT JUMPDEST PUSH1 0x0 PUSH1 0x2 ADD PUSH1 0x0 DUP2 SLOAD DUP1 SWAP3 SWAP2 SWAP1 PUSH2 0x55B SWAP1 PUSH2 0xBA1 JUMP JUMPDEST SWAP2 SWAP1 POP SSTORE POP PUSH1 0x0 PUSH1 0x1 ADD PUSH1 0x0 DUP2 SLOAD DUP1 SWAP3 SWAP2 SWAP1 PUSH2 0x576 SWAP1 PUSH2 0xBA1 JUMP JUMPDEST SWAP2 SWAP1 POP SSTORE POP PUSH1 0x0 DUP1 PUSH1 0x2 ADD SLOAD SUB PUSH2 0x5B5 JUMPI PUSH1 0x0 DUP1 PUSH1 0x0 ADD PUSH1 0x0 PUSH2 0x100 EXP DUP2 SLOAD DUP2 PUSH1 0xFF MUL NOT AND SWAP1 DUP4 PUSH1 0x3 DUP2 GT ISZERO PUSH2 0x5AF JUMPI PUSH2 0x5AE PUSH2 0x977 JUMP JUMPDEST JUMPDEST MUL OR SWAP1 SSTORE POP JUMPDEST PUSH1 0x0 DUP1 PUSH1 0x1 ADD SLOAD SUB PUSH2 0x5EF JUMPI PUSH1 0x3 PUSH1 0x0 DUP1 ADD PUSH1 0x0 PUSH2 0x100 EXP DUP2 SLOAD DUP2 PUSH1 0xFF MUL NOT AND SWAP1 DUP4 PUSH1 0x3 DUP2 GT ISZERO PUSH2 0x5E9 JUMPI PUSH2 0x5E8 PUSH2 0x977 JUMP JUMPDEST JUMPDEST MUL OR SWAP1 SSTORE POP JUMPDEST JUMP JUMPDEST PUSH1 0x0 DUP1 PUSH1 0x0 ADD PUSH1 0x0 SWAP1 SLOAD SWAP1 PUSH2 0x100 EXP SWAP1 DIV PUSH1 0xFF AND SWAP1 DUP1 PUSH1 0x1 ADD SLOAD SWAP1 DUP1 PUSH1 0x2 ADD SLOAD SWAP1 POP DUP4 JUMP JUMPDEST PUSH1 0x0 DUP1 PUSH1 0x2 ADD SLOAD EQ DUP1 ISZERO PUSH2 0x660 JUMPI POP PUSH1 0x2 PUSH1 0x3 DUP2 GT ISZERO PUSH2 0x639 JUMPI PUSH2 0x638 PUSH2 0x977 JUMP JUMPDEST JUMPDEST PUSH1 0x0 DUP1 ADD PUSH1 0x0 SWAP1 SLOAD SWAP1 PUSH2 0x100 EXP SWAP1 DIV PUSH1 0xFF AND PUSH1 0x3 DUP2 GT ISZERO PUSH2 0x65D JUMPI PUSH2 0x65C PUSH2 0x977 JUMP JUMPDEST JUMPDEST EQ ISZERO JUMPDEST DUP1 PUSH2 0x66F JUMPI POP PUSH1 0x0 DUP1 PUSH1 0x1 ADD SLOAD EQ JUMPDEST PUSH2 0x678 JUMPI PUSH1 0x0 DUP1 REVERT JUMPDEST PUSH1 0x0 DUP1 PUSH1 0x2 ADD SLOAD EQ PUSH2 0x68F JUMPI PUSH1 0x0 DUP1 PUSH1 0x2 ADD DUP2 SWAP1 SSTORE POP JUMPDEST PUSH1 0x2 PUSH1 0x0 DUP1 ADD PUSH1 0x0 PUSH2 0x100 EXP DUP2 SLOAD DUP2 PUSH1 0xFF MUL NOT AND SWAP1 DUP4 PUSH1 0x3 DUP2 GT ISZERO PUSH2 0x6B7 JUMPI PUSH2 0x6B6 PUSH2 0x977 JUMP JUMPDEST JUMPDEST MUL OR SWAP1 SSTORE POP JUMP JUMPDEST PUSH1 0x2 PUSH1 0x3 DUP2 GT ISZERO PUSH2 0x6D2 JUMPI PUSH2 0x6D1 PUSH2 0x977 JUMP JUMPDEST JUMPDEST PUSH1 0x0 DUP1 ADD PUSH1 0x0 SWAP1 SLOAD SWAP1 PUSH2 0x100 EXP SWAP1 DIV PUSH1 0xFF AND PUSH1 0x3 DUP2 GT ISZERO PUSH2 0x6F6 JUMPI PUSH2 0x6F5 PUSH2 0x977 JUMP JUMPDEST JUMPDEST EQ DUP1 ISZERO PUSH2 0x707 JUMPI POP PUSH1 0x0 DUP1 PUSH1 0x1 ADD SLOAD GT JUMPDEST PUSH2 0x710 JUMPI PUSH1 0x0 DUP1 REVERT JUMPDEST PUSH1 0x0 DUP1 PUSH1 0x0 ADD PUSH1 0x0 PUSH2 0x100 EXP DUP2 SLOAD DUP2 PUSH1 0xFF MUL NOT AND SWAP1 DUP4 PUSH1 0x3 DUP2 GT ISZERO PUSH2 0x738 JUMPI PUSH2 0x737 PUSH2 0x977 JUMP JUMPDEST JUMPDEST MUL OR SWAP1 SSTORE POP JUMP JUMPDEST JUMP JUMPDEST PUSH1 0x1E PUSH1 0x0 PUSH1 0x1 ADD SLOAD GT DUP1 ISZERO PUSH2 0x75B JUMPI POP PUSH1 0x46 PUSH1 0x0 PUSH1 0x2 ADD SLOAD LT JUMPDEST DUP1 ISZERO PUSH2 0x79D JUMPI POP PUSH1 0x2 PUSH1 0x3 DUP2 GT ISZERO PUSH2 0x776 JUMPI PUSH2 0x775 PUSH2 0x977 JUMP JUMPDEST JUMPDEST PUSH1 0x0 DUP1 ADD PUSH1 0x0 SWAP1 SLOAD SWAP1 PUSH2 0x100 EXP SWAP1 DIV PUSH1 0xFF AND PUSH1 0x3 DUP2 GT ISZERO PUSH2 0x79A JUMPI PUSH2 0x799 PUSH2 0x977 JUMP JUMPDEST JUMPDEST EQ ISZERO JUMPDEST PUSH2 0x7A6 JUMPI PUSH1 0x0 DUP1 REVERT JUMPDEST PUSH1 0x1 PUSH1 0x3 DUP2 GT ISZERO PUSH2 0x7BA JUMPI PUSH2 0x7B9 PUSH2 0x977 JUMP JUMPDEST JUMPDEST PUSH1 0x0 DUP1 ADD PUSH1 0x0 SWAP1 SLOAD SWAP1 PUSH2 0x100 EXP SWAP1 DIV PUSH1 0xFF AND PUSH1 0x3 DUP2 GT ISZERO PUSH2 0x7DE JUMPI PUSH2 0x7DD PUSH2 0x977 JUMP JUMPDEST JUMPDEST EQ PUSH2 0x811 JUMPI PUSH1 0x1 PUSH1 0x0 DUP1 ADD PUSH1 0x0 PUSH2 0x100 EXP DUP2 SLOAD DUP2 PUSH1 0xFF MUL NOT AND SWAP1 DUP4 PUSH1 0x3 DUP2 GT ISZERO PUSH2 0x80B JUMPI PUSH2 0x80A PUSH2 0x977 JUMP JUMPDEST JUMPDEST MUL OR SWAP1 SSTORE POP JUMPDEST PUSH1 0x0 PUSH1 0x2 ADD PUSH1 0x0 DUP2 SLOAD DUP1 SWAP3 SWAP2 SWAP1 PUSH2 0x827 SWAP1 PUSH2 0xBCA JUMP JUMPDEST SWAP2 SWAP1 POP SSTORE POP PUSH1 0x2 PUSH1 0x0 PUSH1 0x1 ADD PUSH1 0x0 DUP3 DUP3 SLOAD PUSH2 0x842 SWAP2 SWAP1 PUSH2 0xC12 JUMP JUMPDEST SWAP3 POP POP DUP2 SWAP1 SSTORE POP JUMP JUMPDEST PUSH1 0x0 PUSH20 0xFFFFFFFFFFFFFFFFFFFFFFFFFFFFFFFFFFFFFFFF DUP3 AND SWAP1 POP SWAP2 SWAP1 POP JUMP JUMPDEST PUSH1 0x0 DUP2 SWAP1 POP SWAP2 SWAP1 POP JUMP JUMPDEST PUSH1 0x0 PUSH2 0x890 PUSH2 0x88B PUSH2 0x886 DUP5 PUSH2 0x84B JUMP JUMPDEST PUSH2 0x86B JUMP JUMPDEST PUSH2 0x84B JUMP JUMPDEST SWAP1 POP SWAP2 SWAP1 POP JUMP JUMPDEST PUSH1 0x0 PUSH2 0x8A2 DUP3 PUSH2 0x875 JUMP JUMPDEST SWAP1 POP SWAP2 SWAP1 POP JUMP JUMPDEST PUSH1 0x0 PUSH2 0x8B4 DUP3 PUSH2 0x897 JUMP JUMPDEST SWAP1 POP SWAP2 SWAP1 POP JUMP JUMPDEST PUSH2 0x8C4 DUP2 PUSH2 0x8A9 JUMP JUMPDEST DUP3 MSTORE POP POP JUMP JUMPDEST PUSH1 0x0 PUSH1 0x20 DUP3 ADD SWAP1 POP PUSH2 0x8DF PUSH1 0x0 DUP4 ADD DUP5 PUSH2 0x8BB JUMP JUMPDEST SWAP3 SWAP2 POP POP JUMP JUMPDEST PUSH1 0x0 DUP1 REVERT JUMPDEST PUSH1 0x0 DUP2 SWAP1 POP SWAP2 SWAP1 POP JUMP JUMPDEST PUSH2 0x8FD DUP2 PUSH2 0x8EA JUMP JUMPDEST DUP2 EQ PUSH2 0x908 JUMPI PUSH1 0x0 DUP1 REVERT JUMPDEST POP JUMP JUMPDEST PUSH1 0x0 DUP2 CALLDATALOAD SWAP1 POP PUSH2 0x91A DUP2 PUSH2 0x8F4 JUMP JUMPDEST SWAP3 SWAP2 POP POP JUMP JUMPDEST PUSH1 0x0 PUSH1 0x20 DUP3 DUP5 SUB SLT ISZERO PUSH2 0x936 JUMPI PUSH2 0x935 PUSH2 0x8E5 JUMP JUMPDEST JUMPDEST PUSH1 0x0 PUSH2 0x944 DUP5 DUP3 DUP6 ADD PUSH2 0x90B JUMP JUMPDEST SWAP2 POP POP SWAP3 SWAP2 POP POP JUMP JUMPDEST PUSH2 0x956 DUP2 PUSH2 0x8EA JUMP JUMPDEST DUP3 MSTORE POP POP JUMP JUMPDEST PUSH1 0x0 PUSH1 0x20 DUP3 ADD SWAP1 POP PUSH2 0x971 PUSH1 0x0 DUP4 ADD DUP5 PUSH2 0x94D JUMP JUMPDEST SWAP3 SWAP2 POP POP JUMP JUMPDEST PUSH32 0x4E487B7100000000000000000000000000000000000000000000000000000000 PUSH1 0x0 MSTORE PUSH1 0x21 PUSH1 0x4 MSTORE PUSH1 0x24 PUSH1 0x0 REVERT JUMPDEST PUSH1 0x4 DUP2 LT PUSH2 0x9B7 JUMPI PUSH2 0x9B6 PUSH2 0x977 JUMP JUMPDEST JUMPDEST POP JUMP JUMPDEST PUSH1 0x0 DUP2 SWAP1 POP PUSH2 0x9C8 DUP3 PUSH2 0x9A6 JUMP JUMPDEST SWAP2 SWAP1 POP JUMP JUMPDEST PUSH1 0x0 PUSH2 0x9D8 DUP3 PUSH2 0x9BA JUMP JUMPDEST SWAP1 POP SWAP2 SWAP1 POP JUMP JUMPDEST PUSH2 0x9E8 DUP2 PUSH2 0x9CD JUMP JUMPDEST DUP3 MSTORE POP POP JUMP JUMPDEST PUSH1 0x0 PUSH1 0x60 DUP3 ADD SWAP1 POP PUSH2 0xA03 PUSH1 0x0 DUP4 ADD DUP7 PUSH2 0x9DF JUMP JUMPDEST PUSH2 0xA10 PUSH1 0x20 DUP4 ADD DUP6 PUSH2 0x94D JUMP JUMPDEST PUSH2 0xA1D PUSH1 0x40 DUP4 ADD DUP5 PUSH2 0x94D JUMP JUMPDEST SWAP5 SWAP4 POP POP POP POP JUMP JUMPDEST PUSH32 0x4E487B7100000000000000000000000000000000000000000000000000000000 PUSH1 0x0 MSTORE PUSH1 0x11 PUSH1 0x4 MSTORE PUSH1 0x24 PUSH1 0x0 REVERT JUMPDEST PUSH1 0x0 PUSH2 0xA5F DUP3 PUSH2 0x8EA JUMP JUMPDEST SWAP2 POP PUSH2 0xA6A DUP4 PUSH2 0x8EA JUMP JUMPDEST SWAP3 POP DUP3 DUP3 MUL PUSH2 0xA78 DUP2 PUSH2 0x8EA JUMP JUMPDEST SWAP2 POP DUP3 DUP3 DIV DUP5 EQ DUP4 ISZERO OR PUSH2 0xA8F JUMPI PUSH2 0xA8E PUSH2 0xA25 JUMP JUMPDEST JUMPDEST POP SWAP3 SWAP2 POP POP JUMP JUMPDEST PUSH1 0x0 PUSH2 0xAA1 DUP3 PUSH2 0x84B JUMP JUMPDEST SWAP1 POP SWAP2 SWAP1 POP JUMP JUMPDEST PUSH2 0xAB1 DUP2 PUSH2 0xA96 JUMP JUMPDEST DUP3 MSTORE POP POP JUMP JUMPDEST PUSH1 0x0 PUSH1 0x40 DUP3 ADD SWAP1 POP PUSH2 0xACC PUSH1 0x0 DUP4 ADD DUP6 PUSH2 0xAA8 JUMP JUMPDEST PUSH2 0xAD9 PUSH1 0x20 DUP4 ADD DUP5 PUSH2 0x94D JUMP JUMPDEST SWAP4 SWAP3 POP POP POP JUMP JUMPDEST PUSH1 0x0 DUP2 SWAP1 POP SWAP2 SWAP1 POP JUMP JUMPDEST PUSH1 0x0 PUSH2 0xB05 PUSH2 0xB00 PUSH2 0xAFB DUP5 PUSH2 0xAE0 JUMP JUMPDEST PUSH2 0x86B JUMP JUMPDEST PUSH2 0x8EA JUMP JUMPDEST SWAP1 POP SWAP2 SWAP1 POP JUMP JUMPDEST PUSH2 0xB15 DUP2 PUSH2 0xAEA JUMP JUMPDEST DUP3 MSTORE POP POP JUMP JUMPDEST PUSH1 0x0 PUSH1 0x40 DUP3 ADD SWAP1 POP PUSH2 0xB30 PUSH1 0x0 DUP4 ADD DUP6 PUSH2 0xAA8 JUMP JUMPDEST PUSH2 0xB3D PUSH1 0x20 DUP4 ADD DUP5 PUSH2 0xB0C JUMP JUMPDEST SWAP4 SWAP3 POP POP POP JUMP JUMPDEST PUSH1 0x0 PUSH1 0x20 DUP3 ADD SWAP1 POP PUSH2 0xB59 PUSH1 0x0 DUP4 ADD DUP5 PUSH2 0xAA8 JUMP JUMPDEST SWAP3 SWAP2 POP POP JUMP JUMPDEST PUSH1 0x0 DUP2 MLOAD SWAP1 POP PUSH2 0xB6E DUP2 PUSH2 0x8F4 JUMP JUMPDEST SWAP3 SWAP2 POP POP JUMP JUMPDEST PUSH1 0x0 PUSH1 0x20 DUP3 DUP5 SUB SLT ISZERO PUSH2 0xB8A JUMPI PUSH2 0xB89 PUSH2 0x8E5 JUMP JUMPDEST JUMPDEST PUSH1 0x0 PUSH2 0xB98 DUP5 DUP3 DUP6 ADD PUSH2 0xB5F JUMP JUMPDEST SWAP2 POP POP SWAP3 SWAP2 POP POP JUMP JUMPDEST PUSH1 0x0 PUSH2 0xBAC DUP3 PUSH2 0x8EA JUMP JUMPDEST SWAP2 POP PUSH1 0x0 DUP3 SUB PUSH2 0xBBF JUMPI PUSH2 0xBBE PUSH2 0xA25 JUMP JUMPDEST JUMPDEST PUSH1 0x1 DUP3 SUB SWAP1 POP SWAP2 SWAP1 POP JUMP JUMPDEST PUSH1 0x0 PUSH2 0xBD5 DUP3 PUSH2 0x8EA JUMP JUMPDEST SWAP2 POP PUSH32 0xFFFFFFFFFFFFFFFFFFFFFFFFFFFFFFFFFFFFFFFFFFFFFFFFFFFFFFFFFFFFFFFF DUP3 SUB PUSH2 0xC07 JUMPI PUSH2 0xC06 PUSH2 0xA25 JUMP JUMPDEST JUMPDEST PUSH1 0x1 DUP3 ADD SWAP1 POP SWAP2 SWAP1 POP JUMP JUMPDEST PUSH1 0x0 PUSH2 0xC1D DUP3 PUSH2 0x8EA JUMP JUMPDEST SWAP2 POP PUSH2 0xC28 DUP4 PUSH2 0x8EA JUMP JUMPDEST SWAP3 POP DUP3 DUP3 SUB SWAP1 POP DUP2 DUP2 GT ISZERO PUSH2 0xC40 JUMPI PUSH2 0xC3F PUSH2 0xA25 JUMP JUMPDEST JUMPDEST SWAP3 SWAP2 POP POP JUMP INVALID LOG2 PUSH5 0x6970667358 0x22 SLT KECCAK256 STATICCALL PUSH1 0x98 PUSH10 0x6DB04EFF5773D712A1B1 MSTORE8 0xDE 0xB0 GASPRICE 0xF8 SMOD ADDRESS DUP15 0x29 DIV SSTORE PUSH21 0x8C80CFBC66E264736F6C6343000812003300000000 "
				},
				"gasEstimates": {
					"creation": {
						"codeDepositCost": "639200",
						"executionCost": "infinite",
						"totalCost": "infinite"
					},
					"external": {
						"accel()": "infinite",
						"breakCar()": "infinite",
						"deposit()": "186",
						"depositToGS(uint256)": "infinite",
						"getPrePaid()": "infinite",
						"gs()": "infinite",
						"myCar()": "infinite",
						"reCharge()": "infinite",
						"turnOff()": "38099",
						"turnOn()": "28835"
					}
				},
				"methodIdentifiers": {
					"accel()": "f282df78",
					"breakCar()": "96f1c1a8",
					"deposit()": "d0e30db0",
					"depositToGS(uint256)": "075c478a",
					"getPrePaid()": "37de45f8",
					"gs()": "00e71aaf",
					"myCar()": "9cdde813",
					"reCharge()": "3446136a",
					"turnOff()": "af10c810",
					"turnOn()": "ba33ed7d"
				}
			},
			"storageLayout": {
				"storage": [
					{
						"astId": 17,
						"contract": "contracts/3-2.sol:Q3",
						"label": "myCar",
						"offset": 0,
						"slot": "0",
						"type": "t_struct(car)14_storage"
					},
					{
						"astId": 186,
						"contract": "contracts/3-2.sol:Q3",
						"label": "gs",
						"offset": 0,
						"slot": "3",
						"type": "t_contract(GASSTATION)386"
					}
				],
				"types": {
					"t_contract(GASSTATION)386": {
						"encoding": "inplace",
						"label": "contract GASSTATION",
						"numberOfBytes": "20"
					},
					"t_enum(carStatus)6": {
						"encoding": "inplace",
						"label": "enum Q3.carStatus",
						"numberOfBytes": "1"
					},
					"t_struct(car)14_storage": {
						"encoding": "inplace",
						"label": "struct Q3.car",
						"members": [
							{
								"astId": 9,
								"contract": "contracts/3-2.sol:Q3",
								"label": "status",
								"offset": 0,
								"slot": "0",
								"type": "t_enum(carStatus)6"
							},
							{
								"astId": 11,
								"contract": "contracts/3-2.sol:Q3",
								"label": "fuelGauage",
								"offset": 0,
								"slot": "1",
								"type": "t_uint256"
							},
							{
								"astId": 13,
								"contract": "contracts/3-2.sol:Q3",
								"label": "speed",
								"offset": 0,
								"slot": "2",
								"type": "t_uint256"
							}
						],
						"numberOfBytes": "96"
					},
					"t_uint256": {
						"encoding": "inplace",
						"label": "uint256",
						"numberOfBytes": "32"
					}
				}
			},
			"userdoc": {
				"kind": "user",
				"methods": {},
				"version": 1
			}
		}
	}
}