{
	"contracts/9.sol": {
		"APP": {
			"abi": [
				{
					"inputs": [
						{
							"internalType": "address payable",
							"name": "_bank",
							"type": "address"
						},
						{
							"internalType": "address",
							"name": "_to",
							"type": "address"
						},
						{
							"internalType": "uint256",
							"name": "_amount",
							"type": "uint256"
						}
					],
					"name": "_depositToBank",
					"outputs": [],
					"stateMutability": "nonpayable",
					"type": "function"
				},
				{
					"inputs": [
						{
							"internalType": "address",
							"name": "",
							"type": "address"
						}
					],
					"name": "balance",
					"outputs": [
						{
							"internalType": "uint256",
							"name": "",
							"type": "uint256"
						}
					],
					"stateMutability": "view",
					"type": "function"
				},
				{
					"inputs": [],
					"name": "depositToApp",
					"outputs": [],
					"stateMutability": "payable",
					"type": "function"
				},
				{
					"inputs": [
						{
							"internalType": "address payable",
							"name": "_bank",
							"type": "address"
						},
						{
							"internalType": "uint256",
							"name": "_amount",
							"type": "uint256"
						}
					],
					"name": "depositToBank",
					"outputs": [],
					"stateMutability": "nonpayable",
					"type": "function"
				},
				{
					"inputs": [
						{
							"internalType": "address",
							"name": "_bAccount",
							"type": "address"
						},
						{
							"internalType": "uint256",
							"name": "_amount",
							"type": "uint256"
						}
					],
					"name": "transferTo",
					"outputs": [],
					"stateMutability": "nonpayable",
					"type": "function"
				},
				{
					"inputs": [
						{
							"internalType": "address payable",
							"name": "_aBank",
							"type": "address"
						},
						{
							"internalType": "address",
							"name": "_bAccount",
							"type": "address"
						},
						{
							"internalType": "address payable",
							"name": "_bBank",
							"type": "address"
						},
						{
							"internalType": "uint256",
							"name": "_amount",
							"type": "uint256"
						}
					],
					"name": "transferWire",
					"outputs": [],
					"stateMutability": "nonpayable",
					"type": "function"
				},
				{
					"inputs": [
						{
							"internalType": "uint256",
							"name": "_amount",
							"type": "uint256"
						}
					],
					"name": "withdrawFromApp",
					"outputs": [],
					"stateMutability": "nonpayable",
					"type": "function"
				},
				{
					"inputs": [
						{
							"internalType": "address payable",
							"name": "_bank",
							"type": "address"
						},
						{
							"internalType": "uint256",
							"name": "_amount",
							"type": "uint256"
						}
					],
					"name": "withdrawFromBank",
					"outputs": [],
					"stateMutability": "nonpayable",
					"type": "function"
				},
				{
					"stateMutability": "payable",
					"type": "receive"
				}
			],
			"devdoc": {
				"kind": "dev",
				"methods": {},
				"version": 1
			},
			"evm": {
				"assembly": "    /* \"contracts/9.sol\":142:2591  contract APP {... */\n  mstore(0x40, 0x80)\n  callvalue\n  dup1\n  iszero\n  tag_1\n  jumpi\n  0x00\n  dup1\n  revert\ntag_1:\n  pop\n  dataSize(sub_0)\n  dup1\n  dataOffset(sub_0)\n  0x00\n  codecopy\n  0x00\n  return\nstop\n\nsub_0: assembly {\n        /* \"contracts/9.sol\":142:2591  contract APP {... */\n      mstore(0x40, 0x80)\n      jumpi(tag_1, lt(calldatasize, 0x04))\n      shr(0xe0, calldataload(0x00))\n      dup1\n      0x8bf6146a\n      gt\n      tag_11\n      jumpi\n      dup1\n      0x8bf6146a\n      eq\n      tag_7\n      jumpi\n      dup1\n      0xbb85f016\n      eq\n      tag_8\n      jumpi\n      dup1\n      0xe3d670d7\n      eq\n      tag_9\n      jumpi\n      dup1\n      0xe473adc2\n      eq\n      tag_10\n      jumpi\n      jump(tag_2)\n    tag_11:\n      dup1\n      0x274956e9\n      eq\n      tag_3\n      jumpi\n      dup1\n      0x27b52dde\n      eq\n      tag_4\n      jumpi\n      dup1\n      0x2ccb1b30\n      eq\n      tag_5\n      jumpi\n      dup1\n      0x5d74f844\n      eq\n      tag_6\n      jumpi\n      jump(tag_2)\n    tag_1:\n      jumpi(tag_2, calldatasize)\n      stop\n    tag_2:\n      0x00\n      dup1\n      revert\n        /* \"contracts/9.sol\":2373:2588  function transferWire(address payable _aBank, address _bAccount, address payable _bBank, uint _amount) public {... */\n    tag_3:\n      callvalue\n      dup1\n      iszero\n      tag_14\n      jumpi\n      0x00\n      dup1\n      revert\n    tag_14:\n      pop\n      tag_15\n      0x04\n      dup1\n      calldatasize\n      sub\n      dup2\n      add\n      swap1\n      tag_16\n      swap2\n      swap1\n      tag_17\n      jump\t// in\n    tag_16:\n      tag_18\n      jump\t// in\n    tag_15:\n      stop\n        /* \"contracts/9.sol\":1534:1719  function withdrawFromApp(uint _amount) public balanceCheck(msg.sender, _amount) {... */\n    tag_4:\n      callvalue\n      dup1\n      iszero\n      tag_19\n      jumpi\n      0x00\n      dup1\n      revert\n    tag_19:\n      pop\n      tag_20\n      0x04\n      dup1\n      calldatasize\n      sub\n      dup2\n      add\n      swap1\n      tag_21\n      swap2\n      swap1\n      tag_22\n      jump\t// in\n    tag_21:\n      tag_23\n      jump\t// in\n    tag_20:\n      stop\n        /* \"contracts/9.sol\":2088:2271  function transferTo(address _bAccount, uint _amount) public balanceCheck(msg.sender, _amount) {... */\n    tag_5:\n      callvalue\n      dup1\n      iszero\n      tag_24\n      jumpi\n      0x00\n      dup1\n      revert\n    tag_24:\n      pop\n      tag_25\n      0x04\n      dup1\n      calldatasize\n      sub\n      dup2\n      add\n      swap1\n      tag_26\n      swap2\n      swap1\n      tag_27\n      jump\t// in\n    tag_26:\n      tag_28\n      jump\t// in\n    tag_25:\n      stop\n        /* \"contracts/9.sol\":1801:2011  function withdrawFromBank(address payable _bank, uint _amount) public {... */\n    tag_6:\n      callvalue\n      dup1\n      iszero\n      tag_29\n      jumpi\n      0x00\n      dup1\n      revert\n    tag_29:\n      pop\n      tag_30\n      0x04\n      dup1\n      calldatasize\n      sub\n      dup2\n      add\n      swap1\n      tag_31\n      swap2\n      swap1\n      tag_32\n      jump\t// in\n    tag_31:\n      tag_33\n      jump\t// in\n    tag_30:\n      stop\n        /* \"contracts/9.sol\":635:725  function depositToApp() public payable {... */\n    tag_7:\n      tag_34\n      tag_35\n      jump\t// in\n    tag_34:\n      stop\n        /* \"contracts/9.sol\":1144:1455  function _depositToBank(address payable _bank, address _to, uint _amount) public {... */\n    tag_8:\n      callvalue\n      dup1\n      iszero\n      tag_36\n      jumpi\n      0x00\n      dup1\n      revert\n    tag_36:\n      pop\n      tag_37\n      0x04\n      dup1\n      calldatasize\n      sub\n      dup2\n      add\n      swap1\n      tag_38\n      swap2\n      swap1\n      tag_39\n      jump\t// in\n    tag_38:\n      tag_40\n      jump\t// in\n    tag_37:\n      stop\n        /* \"contracts/9.sol\":162:199  mapping(address=>uint) public balance */\n    tag_9:\n      callvalue\n      dup1\n      iszero\n      tag_41\n      jumpi\n      0x00\n      dup1\n      revert\n    tag_41:\n      pop\n      tag_42\n      0x04\n      dup1\n      calldatasize\n      sub\n      dup2\n      add\n      swap1\n      tag_43\n      swap2\n      swap1\n      tag_44\n      jump\t// in\n    tag_43:\n      tag_45\n      jump\t// in\n    tag_42:\n      mload(0x40)\n      tag_46\n      swap2\n      swap1\n      tag_47\n      jump\t// in\n    tag_46:\n      mload(0x40)\n      dup1\n      swap2\n      sub\n      swap1\n      return\n        /* \"contracts/9.sol\":807:1136  function depositToBank(address payable _bank, uint _amount) public /*payable Fee(_amount)*/ {... */\n    tag_10:\n      callvalue\n      dup1\n      iszero\n      tag_48\n      jumpi\n      0x00\n      dup1\n      revert\n    tag_48:\n      pop\n      tag_49\n      0x04\n      dup1\n      calldatasize\n      sub\n      dup2\n      add\n      swap1\n      tag_50\n      swap2\n      swap1\n      tag_32\n      jump\t// in\n    tag_50:\n      tag_51\n      jump\t// in\n    tag_49:\n      stop\n        /* \"contracts/9.sol\":2373:2588  function transferWire(address payable _aBank, address _bAccount, address payable _bBank, uint _amount) public {... */\n    tag_18:\n        /* \"contracts/9.sol\":2494:2527  withdrawFromBank(_aBank, _amount) */\n      tag_53\n        /* \"contracts/9.sol\":2511:2517  _aBank */\n      dup5\n        /* \"contracts/9.sol\":2519:2526  _amount */\n      dup3\n        /* \"contracts/9.sol\":2494:2510  withdrawFromBank */\n      tag_33\n        /* \"contracts/9.sol\":2494:2527  withdrawFromBank(_aBank, _amount) */\n      jump\t// in\n    tag_53:\n        /* \"contracts/9.sol\":2538:2580  _depositToBank(_bBank, _bAccount, _amount) */\n      tag_54\n        /* \"contracts/9.sol\":2553:2559  _bBank */\n      dup3\n        /* \"contracts/9.sol\":2561:2570  _bAccount */\n      dup5\n        /* \"contracts/9.sol\":2572:2579  _amount */\n      dup4\n        /* \"contracts/9.sol\":2538:2552  _depositToBank */\n      tag_40\n        /* \"contracts/9.sol\":2538:2580  _depositToBank(_bBank, _bAccount, _amount) */\n      jump\t// in\n    tag_54:\n        /* \"contracts/9.sol\":2373:2588  function transferWire(address payable _aBank, address _bAccount, address payable _bBank, uint _amount) public {... */\n      pop\n      pop\n      pop\n      pop\n      jump\t// out\n        /* \"contracts/9.sol\":1534:1719  function withdrawFromApp(uint _amount) public balanceCheck(msg.sender, _amount) {... */\n    tag_23:\n        /* \"contracts/9.sol\":1593:1603  msg.sender */\n      caller\n        /* \"contracts/9.sol\":1605:1612  _amount */\n      dup2\n        /* \"contracts/9.sol\":421:428  _amount */\n      dup1\n        /* \"contracts/9.sol\":406:413  balance */\n      0x00\n        /* \"contracts/9.sol\":406:417  balance[_a] */\n      dup1\n        /* \"contracts/9.sol\":414:416  _a */\n      dup5\n        /* \"contracts/9.sol\":406:417  balance[_a] */\n      0xffffffffffffffffffffffffffffffffffffffff\n      and\n      0xffffffffffffffffffffffffffffffffffffffff\n      and\n      dup2\n      mstore\n      0x20\n      add\n      swap1\n      dup2\n      mstore\n      0x20\n      add\n      0x00\n      keccak256\n      sload\n        /* \"contracts/9.sol\":406:428  balance[_a] >= _amount */\n      lt\n      iszero\n        /* \"contracts/9.sol\":398:429  require(balance[_a] >= _amount) */\n      tag_56\n      jumpi\n      0x00\n      dup1\n      revert\n    tag_56:\n        /* \"contracts/9.sol\":1648:1655  _amount */\n      dup3\n        /* \"contracts/9.sol\":1625:1632  balance */\n      0x00\n        /* \"contracts/9.sol\":1625:1644  balance[msg.sender] */\n      dup1\n        /* \"contracts/9.sol\":1633:1643  msg.sender */\n      caller\n        /* \"contracts/9.sol\":1625:1644  balance[msg.sender] */\n      0xffffffffffffffffffffffffffffffffffffffff\n      and\n      0xffffffffffffffffffffffffffffffffffffffff\n      and\n      dup2\n      mstore\n      0x20\n      add\n      swap1\n      dup2\n      mstore\n      0x20\n      add\n      0x00\n      keccak256\n      0x00\n        /* \"contracts/9.sol\":1625:1655  balance[msg.sender] -= _amount */\n      dup3\n      dup3\n      sload\n      tag_58\n      swap2\n      swap1\n      tag_59\n      jump\t// in\n    tag_58:\n      swap3\n      pop\n      pop\n      dup2\n      swap1\n      sstore\n      pop\n        /* \"contracts/9.sol\":1674:1684  msg.sender */\n      caller\n        /* \"contracts/9.sol\":1666:1694  payable(msg.sender).transfer */\n      0xffffffffffffffffffffffffffffffffffffffff\n      and\n        /* \"contracts/9.sol\":1666:1703  payable(msg.sender).transfer(_amount) */\n      0x08fc\n        /* \"contracts/9.sol\":1695:1702  _amount */\n      dup5\n        /* \"contracts/9.sol\":1666:1703  payable(msg.sender).transfer(_amount) */\n      swap1\n      dup2\n      iszero\n      mul\n      swap1\n      mload(0x40)\n      0x00\n      mload(0x40)\n      dup1\n      dup4\n      sub\n      dup2\n      dup6\n      dup9\n      dup9\n      call\n      swap4\n      pop\n      pop\n      pop\n      pop\n      iszero\n      dup1\n      iszero\n      tag_61\n      jumpi\n      returndatasize\n      0x00\n      dup1\n      returndatacopy\n      revert(0x00, returndatasize)\n    tag_61:\n      pop\n        /* \"contracts/9.sol\":1534:1719  function withdrawFromApp(uint _amount) public balanceCheck(msg.sender, _amount) {... */\n      pop\n      pop\n      pop\n      jump\t// out\n        /* \"contracts/9.sol\":2088:2271  function transferTo(address _bAccount, uint _amount) public balanceCheck(msg.sender, _amount) {... */\n    tag_28:\n        /* \"contracts/9.sol\":2161:2171  msg.sender */\n      caller\n        /* \"contracts/9.sol\":2173:2180  _amount */\n      dup2\n        /* \"contracts/9.sol\":421:428  _amount */\n      dup1\n        /* \"contracts/9.sol\":406:413  balance */\n      0x00\n        /* \"contracts/9.sol\":406:417  balance[_a] */\n      dup1\n        /* \"contracts/9.sol\":414:416  _a */\n      dup5\n        /* \"contracts/9.sol\":406:417  balance[_a] */\n      0xffffffffffffffffffffffffffffffffffffffff\n      and\n      0xffffffffffffffffffffffffffffffffffffffff\n      and\n      dup2\n      mstore\n      0x20\n      add\n      swap1\n      dup2\n      mstore\n      0x20\n      add\n      0x00\n      keccak256\n      sload\n        /* \"contracts/9.sol\":406:428  balance[_a] >= _amount */\n      lt\n      iszero\n        /* \"contracts/9.sol\":398:429  require(balance[_a] >= _amount) */\n      tag_63\n      jumpi\n      0x00\n      dup1\n      revert\n    tag_63:\n        /* \"contracts/9.sol\":2216:2223  _amount */\n      dup3\n        /* \"contracts/9.sol\":2193:2200  balance */\n      0x00\n        /* \"contracts/9.sol\":2193:2212  balance[msg.sender] */\n      dup1\n        /* \"contracts/9.sol\":2201:2211  msg.sender */\n      caller\n        /* \"contracts/9.sol\":2193:2212  balance[msg.sender] */\n      0xffffffffffffffffffffffffffffffffffffffff\n      and\n      0xffffffffffffffffffffffffffffffffffffffff\n      and\n      dup2\n      mstore\n      0x20\n      add\n      swap1\n      dup2\n      mstore\n      0x20\n      add\n      0x00\n      keccak256\n      0x00\n        /* \"contracts/9.sol\":2193:2223  balance[msg.sender] -= _amount */\n      dup3\n      dup3\n      sload\n      tag_65\n      swap2\n      swap1\n      tag_59\n      jump\t// in\n    tag_65:\n      swap3\n      pop\n      pop\n      dup2\n      swap1\n      sstore\n      pop\n        /* \"contracts/9.sol\":2256:2263  _amount */\n      dup3\n        /* \"contracts/9.sol\":2234:2241  balance */\n      0x00\n        /* \"contracts/9.sol\":2234:2252  balance[_bAccount] */\n      dup1\n        /* \"contracts/9.sol\":2242:2251  _bAccount */\n      dup7\n        /* \"contracts/9.sol\":2234:2252  balance[_bAccount] */\n      0xffffffffffffffffffffffffffffffffffffffff\n      and\n      0xffffffffffffffffffffffffffffffffffffffff\n      and\n      dup2\n      mstore\n      0x20\n      add\n      swap1\n      dup2\n      mstore\n      0x20\n      add\n      0x00\n      keccak256\n      0x00\n        /* \"contracts/9.sol\":2234:2263  balance[_bAccount] += _amount */\n      dup3\n      dup3\n      sload\n      tag_66\n      swap2\n      swap1\n      tag_67\n      jump\t// in\n    tag_66:\n      swap3\n      pop\n      pop\n      dup2\n      swap1\n      sstore\n      pop\n        /* \"contracts/9.sol\":2088:2271  function transferTo(address _bAccount, uint _amount) public balanceCheck(msg.sender, _amount) {... */\n      pop\n      pop\n      pop\n      pop\n      jump\t// out\n        /* \"contracts/9.sol\":1801:2011  function withdrawFromBank(address payable _bank, uint _amount) public {... */\n    tag_33:\n        /* \"contracts/9.sol\":1882:1897  Bank targetBank */\n      0x00\n        /* \"contracts/9.sol\":1905:1910  _bank */\n      dup3\n        /* \"contracts/9.sol\":1882:1911  Bank targetBank = Bank(_bank) */\n      swap1\n      pop\n        /* \"contracts/9.sol\":1922:1932  targetBank */\n      dup1\n        /* \"contracts/9.sol\":1922:1941  targetBank.Withdraw */\n      0xffffffffffffffffffffffffffffffffffffffff\n      and\n      0x884edad9\n        /* \"contracts/9.sol\":1942:1952  msg.sender */\n      caller\n        /* \"contracts/9.sol\":1954:1961  _amount */\n      dup5\n        /* \"contracts/9.sol\":1922:1962  targetBank.Withdraw(msg.sender, _amount) */\n      mload(0x40)\n      dup4\n      0xffffffff\n      and\n      0xe0\n      shl\n      dup2\n      mstore\n      0x04\n      add\n      tag_69\n      swap3\n      swap2\n      swap1\n      tag_70\n      jump\t// in\n    tag_69:\n      0x00\n      mload(0x40)\n      dup1\n      dup4\n      sub\n      dup2\n      0x00\n      dup8\n      dup1\n      extcodesize\n      iszero\n      dup1\n      iszero\n      tag_71\n      jumpi\n      0x00\n      dup1\n      revert\n    tag_71:\n      pop\n      gas\n      call\n      iszero\n      dup1\n      iszero\n      tag_73\n      jumpi\n      returndatasize\n      0x00\n      dup1\n      returndatacopy\n      revert(0x00, returndatasize)\n    tag_73:\n      pop\n      pop\n      pop\n      pop\n        /* \"contracts/9.sol\":1996:2003  _amount */\n      dup2\n        /* \"contracts/9.sol\":1973:1980  balance */\n      0x00\n        /* \"contracts/9.sol\":1973:1992  balance[msg.sender] */\n      dup1\n        /* \"contracts/9.sol\":1981:1991  msg.sender */\n      caller\n        /* \"contracts/9.sol\":1973:1992  balance[msg.sender] */\n      0xffffffffffffffffffffffffffffffffffffffff\n      and\n      0xffffffffffffffffffffffffffffffffffffffff\n      and\n      dup2\n      mstore\n      0x20\n      add\n      swap1\n      dup2\n      mstore\n      0x20\n      add\n      0x00\n      keccak256\n      0x00\n        /* \"contracts/9.sol\":1973:2003  balance[msg.sender] += _amount */\n      dup3\n      dup3\n      sload\n      tag_74\n      swap2\n      swap1\n      tag_67\n      jump\t// in\n    tag_74:\n      swap3\n      pop\n      pop\n      dup2\n      swap1\n      sstore\n      pop\n        /* \"contracts/9.sol\":1871:2011  {... */\n      pop\n        /* \"contracts/9.sol\":1801:2011  function withdrawFromBank(address payable _bank, uint _amount) public {... */\n      pop\n      pop\n      jump\t// out\n        /* \"contracts/9.sol\":635:725  function depositToApp() public payable {... */\n    tag_35:\n        /* \"contracts/9.sol\":708:717  msg.value */\n      callvalue\n        /* \"contracts/9.sol\":685:692  balance */\n      0x00\n        /* \"contracts/9.sol\":685:704  balance[msg.sender] */\n      dup1\n        /* \"contracts/9.sol\":693:703  msg.sender */\n      caller\n        /* \"contracts/9.sol\":685:704  balance[msg.sender] */\n      0xffffffffffffffffffffffffffffffffffffffff\n      and\n      0xffffffffffffffffffffffffffffffffffffffff\n      and\n      dup2\n      mstore\n      0x20\n      add\n      swap1\n      dup2\n      mstore\n      0x20\n      add\n      0x00\n      keccak256\n      0x00\n        /* \"contracts/9.sol\":685:717  balance[msg.sender] += msg.value */\n      dup3\n      dup3\n      sload\n      tag_76\n      swap2\n      swap1\n      tag_67\n      jump\t// in\n    tag_76:\n      swap3\n      pop\n      pop\n      dup2\n      swap1\n      sstore\n      pop\n        /* \"contracts/9.sol\":635:725  function depositToApp() public payable {... */\n      jump\t// out\n        /* \"contracts/9.sol\":1144:1455  function _depositToBank(address payable _bank, address _to, uint _amount) public {... */\n    tag_40:\n        /* \"contracts/9.sol\":1236:1251  Bank targetBank */\n      0x00\n        /* \"contracts/9.sol\":1259:1264  _bank */\n      dup4\n        /* \"contracts/9.sol\":1236:1265  Bank targetBank = Bank(_bank) */\n      swap1\n      pop\n        /* \"contracts/9.sol\":1307:1314  _amount */\n      dup2\n        /* \"contracts/9.sol\":1284:1291  balance */\n      0x00\n        /* \"contracts/9.sol\":1284:1303  balance[msg.sender] */\n      dup1\n        /* \"contracts/9.sol\":1292:1302  msg.sender */\n      caller\n        /* \"contracts/9.sol\":1284:1303  balance[msg.sender] */\n      0xffffffffffffffffffffffffffffffffffffffff\n      and\n      0xffffffffffffffffffffffffffffffffffffffff\n      and\n      dup2\n      mstore\n      0x20\n      add\n      swap1\n      dup2\n      mstore\n      0x20\n      add\n      0x00\n      keccak256\n      sload\n        /* \"contracts/9.sol\":1284:1314  balance[msg.sender] >= _amount */\n      lt\n      iszero\n        /* \"contracts/9.sol\":1276:1315  require(balance[msg.sender] >= _amount) */\n      tag_78\n      jumpi\n      0x00\n      dup1\n      revert\n    tag_78:\n        /* \"contracts/9.sol\":1334:1344  targetBank */\n      dup1\n        /* \"contracts/9.sol\":1326:1354  payable(targetBank).transfer */\n      0xffffffffffffffffffffffffffffffffffffffff\n      and\n        /* \"contracts/9.sol\":1326:1363  payable(targetBank).transfer(_amount) */\n      0x08fc\n        /* \"contracts/9.sol\":1355:1362  _amount */\n      dup4\n        /* \"contracts/9.sol\":1326:1363  payable(targetBank).transfer(_amount) */\n      swap1\n      dup2\n      iszero\n      mul\n      swap1\n      mload(0x40)\n      0x00\n      mload(0x40)\n      dup1\n      dup4\n      sub\n      dup2\n      dup6\n      dup9\n      dup9\n      call\n      swap4\n      pop\n      pop\n      pop\n      pop\n      iszero\n      dup1\n      iszero\n      tag_80\n      jumpi\n      returndatasize\n      0x00\n      dup1\n      returndatacopy\n      revert(0x00, returndatasize)\n    tag_80:\n      pop\n        /* \"contracts/9.sol\":1397:1404  _amount */\n      dup2\n        /* \"contracts/9.sol\":1374:1381  balance */\n      0x00\n        /* \"contracts/9.sol\":1374:1393  balance[msg.sender] */\n      dup1\n        /* \"contracts/9.sol\":1382:1392  msg.sender */\n      caller\n        /* \"contracts/9.sol\":1374:1393  balance[msg.sender] */\n      0xffffffffffffffffffffffffffffffffffffffff\n      and\n      0xffffffffffffffffffffffffffffffffffffffff\n      and\n      dup2\n      mstore\n      0x20\n      add\n      swap1\n      dup2\n      mstore\n      0x20\n      add\n      0x00\n      keccak256\n      0x00\n        /* \"contracts/9.sol\":1374:1404  balance[msg.sender] -= _amount */\n      dup3\n      dup3\n      sload\n      tag_81\n      swap2\n      swap1\n      tag_59\n      jump\t// in\n    tag_81:\n      swap3\n      pop\n      pop\n      dup2\n      swap1\n      sstore\n      pop\n        /* \"contracts/9.sol\":1415:1425  targetBank */\n      dup1\n        /* \"contracts/9.sol\":1415:1433  targetBank.Deposit */\n      0xffffffffffffffffffffffffffffffffffffffff\n      and\n      0xe1fffcc4\n        /* \"contracts/9.sol\":1434:1437  _to */\n      dup5\n        /* \"contracts/9.sol\":1439:1446  _amount */\n      dup5\n        /* \"contracts/9.sol\":1415:1447  targetBank.Deposit(_to, _amount) */\n      mload(0x40)\n      dup4\n      0xffffffff\n      and\n      0xe0\n      shl\n      dup2\n      mstore\n      0x04\n      add\n      tag_82\n      swap3\n      swap2\n      swap1\n      tag_70\n      jump\t// in\n    tag_82:\n      0x00\n      mload(0x40)\n      dup1\n      dup4\n      sub\n      dup2\n      0x00\n      dup8\n      dup1\n      extcodesize\n      iszero\n      dup1\n      iszero\n      tag_83\n      jumpi\n      0x00\n      dup1\n      revert\n    tag_83:\n      pop\n      gas\n      call\n      iszero\n      dup1\n      iszero\n      tag_85\n      jumpi\n      returndatasize\n      0x00\n      dup1\n      returndatacopy\n      revert(0x00, returndatasize)\n    tag_85:\n      pop\n      pop\n      pop\n      pop\n        /* \"contracts/9.sol\":1225:1455  {... */\n      pop\n        /* \"contracts/9.sol\":1144:1455  function _depositToBank(address payable _bank, address _to, uint _amount) public {... */\n      pop\n      pop\n      pop\n      jump\t// out\n        /* \"contracts/9.sol\":162:199  mapping(address=>uint) public balance */\n    tag_45:\n      mstore(0x20, 0x00)\n      dup1\n      0x00\n      mstore\n      keccak256(0x00, 0x40)\n      0x00\n      swap2\n      pop\n      swap1\n      pop\n      sload\n      dup2\n      jump\t// out\n        /* \"contracts/9.sol\":807:1136  function depositToBank(address payable _bank, uint _amount) public /*payable Fee(_amount)*/ {... */\n    tag_51:\n        /* \"contracts/9.sol\":910:925  Bank targetBank */\n      0x00\n        /* \"contracts/9.sol\":933:938  _bank */\n      dup3\n        /* \"contracts/9.sol\":910:939  Bank targetBank = Bank(_bank) */\n      swap1\n      pop\n        /* \"contracts/9.sol\":981:988  _amount */\n      dup2\n        /* \"contracts/9.sol\":958:965  balance */\n      0x00\n        /* \"contracts/9.sol\":958:977  balance[msg.sender] */\n      dup1\n        /* \"contracts/9.sol\":966:976  msg.sender */\n      caller\n        /* \"contracts/9.sol\":958:977  balance[msg.sender] */\n      0xffffffffffffffffffffffffffffffffffffffff\n      and\n      0xffffffffffffffffffffffffffffffffffffffff\n      and\n      dup2\n      mstore\n      0x20\n      add\n      swap1\n      dup2\n      mstore\n      0x20\n      add\n      0x00\n      keccak256\n      sload\n        /* \"contracts/9.sol\":958:988  balance[msg.sender] >= _amount */\n      lt\n      iszero\n        /* \"contracts/9.sol\":950:989  require(balance[msg.sender] >= _amount) */\n      tag_87\n      jumpi\n      0x00\n      dup1\n      revert\n    tag_87:\n        /* \"contracts/9.sol\":1008:1018  targetBank */\n      dup1\n        /* \"contracts/9.sol\":1000:1028  payable(targetBank).transfer */\n      0xffffffffffffffffffffffffffffffffffffffff\n      and\n        /* \"contracts/9.sol\":1000:1037  payable(targetBank).transfer(_amount) */\n      0x08fc\n        /* \"contracts/9.sol\":1029:1036  _amount */\n      dup4\n        /* \"contracts/9.sol\":1000:1037  payable(targetBank).transfer(_amount) */\n      swap1\n      dup2\n      iszero\n      mul\n      swap1\n      mload(0x40)\n      0x00\n      mload(0x40)\n      dup1\n      dup4\n      sub\n      dup2\n      dup6\n      dup9\n      dup9\n      call\n      swap4\n      pop\n      pop\n      pop\n      pop\n      iszero\n      dup1\n      iszero\n      tag_89\n      jumpi\n      returndatasize\n      0x00\n      dup1\n      returndatacopy\n      revert(0x00, returndatasize)\n    tag_89:\n      pop\n        /* \"contracts/9.sol\":1071:1078  _amount */\n      dup2\n        /* \"contracts/9.sol\":1048:1055  balance */\n      0x00\n        /* \"contracts/9.sol\":1048:1067  balance[msg.sender] */\n      dup1\n        /* \"contracts/9.sol\":1056:1066  msg.sender */\n      caller\n        /* \"contracts/9.sol\":1048:1067  balance[msg.sender] */\n      0xffffffffffffffffffffffffffffffffffffffff\n      and\n      0xffffffffffffffffffffffffffffffffffffffff\n      and\n      dup2\n      mstore\n      0x20\n      add\n      swap1\n      dup2\n      mstore\n      0x20\n      add\n      0x00\n      keccak256\n      0x00\n        /* \"contracts/9.sol\":1048:1078  balance[msg.sender] -= _amount */\n      dup3\n      dup3\n      sload\n      tag_90\n      swap2\n      swap1\n      tag_59\n      jump\t// in\n    tag_90:\n      swap3\n      pop\n      pop\n      dup2\n      swap1\n      sstore\n      pop\n        /* \"contracts/9.sol\":1089:1099  targetBank */\n      dup1\n        /* \"contracts/9.sol\":1089:1107  targetBank.Deposit */\n      0xffffffffffffffffffffffffffffffffffffffff\n      and\n      0xe1fffcc4\n        /* \"contracts/9.sol\":1108:1118  msg.sender */\n      caller\n        /* \"contracts/9.sol\":1120:1127  _amount */\n      dup5\n        /* \"contracts/9.sol\":1089:1128  targetBank.Deposit(msg.sender, _amount) */\n      mload(0x40)\n      dup4\n      0xffffffff\n      and\n      0xe0\n      shl\n      dup2\n      mstore\n      0x04\n      add\n      tag_91\n      swap3\n      swap2\n      swap1\n      tag_70\n      jump\t// in\n    tag_91:\n      0x00\n      mload(0x40)\n      dup1\n      dup4\n      sub\n      dup2\n      0x00\n      dup8\n      dup1\n      extcodesize\n      iszero\n      dup1\n      iszero\n      tag_92\n      jumpi\n      0x00\n      dup1\n      revert\n    tag_92:\n      pop\n      gas\n      call\n      iszero\n      dup1\n      iszero\n      tag_94\n      jumpi\n      returndatasize\n      0x00\n      dup1\n      returndatacopy\n      revert(0x00, returndatasize)\n    tag_94:\n      pop\n      pop\n      pop\n      pop\n        /* \"contracts/9.sol\":899:1136  {... */\n      pop\n        /* \"contracts/9.sol\":807:1136  function depositToBank(address payable _bank, uint _amount) public /*payable Fee(_amount)*/ {... */\n      pop\n      pop\n      jump\t// out\n        /* \"#utility.yul\":88:205   */\n    tag_96:\n        /* \"#utility.yul\":197:198   */\n      0x00\n        /* \"#utility.yul\":194:195   */\n      dup1\n        /* \"#utility.yul\":187:199   */\n      revert\n        /* \"#utility.yul\":334:460   */\n    tag_98:\n        /* \"#utility.yul\":371:378   */\n      0x00\n        /* \"#utility.yul\":411:453   */\n      0xffffffffffffffffffffffffffffffffffffffff\n        /* \"#utility.yul\":404:409   */\n      dup3\n        /* \"#utility.yul\":400:454   */\n      and\n        /* \"#utility.yul\":389:454   */\n      swap1\n      pop\n        /* \"#utility.yul\":334:460   */\n      swap2\n      swap1\n      pop\n      jump\t// out\n        /* \"#utility.yul\":466:570   */\n    tag_99:\n        /* \"#utility.yul\":511:518   */\n      0x00\n        /* \"#utility.yul\":540:564   */\n      tag_117\n        /* \"#utility.yul\":558:563   */\n      dup3\n        /* \"#utility.yul\":540:564   */\n      tag_98\n      jump\t// in\n    tag_117:\n        /* \"#utility.yul\":529:564   */\n      swap1\n      pop\n        /* \"#utility.yul\":466:570   */\n      swap2\n      swap1\n      pop\n      jump\t// out\n        /* \"#utility.yul\":576:714   */\n    tag_100:\n        /* \"#utility.yul\":657:689   */\n      tag_119\n        /* \"#utility.yul\":683:688   */\n      dup2\n        /* \"#utility.yul\":657:689   */\n      tag_99\n      jump\t// in\n    tag_119:\n        /* \"#utility.yul\":650:655   */\n      dup2\n        /* \"#utility.yul\":647:690   */\n      eq\n        /* \"#utility.yul\":637:708   */\n      tag_120\n      jumpi\n        /* \"#utility.yul\":704:705   */\n      0x00\n        /* \"#utility.yul\":701:702   */\n      dup1\n        /* \"#utility.yul\":694:706   */\n      revert\n        /* \"#utility.yul\":637:708   */\n    tag_120:\n        /* \"#utility.yul\":576:714   */\n      pop\n      jump\t// out\n        /* \"#utility.yul\":720:875   */\n    tag_101:\n        /* \"#utility.yul\":774:779   */\n      0x00\n        /* \"#utility.yul\":812:818   */\n      dup2\n        /* \"#utility.yul\":799:819   */\n      calldataload\n        /* \"#utility.yul\":790:819   */\n      swap1\n      pop\n        /* \"#utility.yul\":828:869   */\n      tag_122\n        /* \"#utility.yul\":863:868   */\n      dup2\n        /* \"#utility.yul\":828:869   */\n      tag_100\n      jump\t// in\n    tag_122:\n        /* \"#utility.yul\":720:875   */\n      swap3\n      swap2\n      pop\n      pop\n      jump\t// out\n        /* \"#utility.yul\":881:977   */\n    tag_102:\n        /* \"#utility.yul\":918:925   */\n      0x00\n        /* \"#utility.yul\":947:971   */\n      tag_124\n        /* \"#utility.yul\":965:970   */\n      dup3\n        /* \"#utility.yul\":947:971   */\n      tag_98\n      jump\t// in\n    tag_124:\n        /* \"#utility.yul\":936:971   */\n      swap1\n      pop\n        /* \"#utility.yul\":881:977   */\n      swap2\n      swap1\n      pop\n      jump\t// out\n        /* \"#utility.yul\":983:1105   */\n    tag_103:\n        /* \"#utility.yul\":1056:1080   */\n      tag_126\n        /* \"#utility.yul\":1074:1079   */\n      dup2\n        /* \"#utility.yul\":1056:1080   */\n      tag_102\n      jump\t// in\n    tag_126:\n        /* \"#utility.yul\":1049:1054   */\n      dup2\n        /* \"#utility.yul\":1046:1081   */\n      eq\n        /* \"#utility.yul\":1036:1099   */\n      tag_127\n      jumpi\n        /* \"#utility.yul\":1095:1096   */\n      0x00\n        /* \"#utility.yul\":1092:1093   */\n      dup1\n        /* \"#utility.yul\":1085:1097   */\n      revert\n        /* \"#utility.yul\":1036:1099   */\n    tag_127:\n        /* \"#utility.yul\":983:1105   */\n      pop\n      jump\t// out\n        /* \"#utility.yul\":1111:1250   */\n    tag_104:\n        /* \"#utility.yul\":1157:1162   */\n      0x00\n        /* \"#utility.yul\":1195:1201   */\n      dup2\n        /* \"#utility.yul\":1182:1202   */\n      calldataload\n        /* \"#utility.yul\":1173:1202   */\n      swap1\n      pop\n        /* \"#utility.yul\":1211:1244   */\n      tag_129\n        /* \"#utility.yul\":1238:1243   */\n      dup2\n        /* \"#utility.yul\":1211:1244   */\n      tag_103\n      jump\t// in\n    tag_129:\n        /* \"#utility.yul\":1111:1250   */\n      swap3\n      swap2\n      pop\n      pop\n      jump\t// out\n        /* \"#utility.yul\":1256:1333   */\n    tag_105:\n        /* \"#utility.yul\":1293:1300   */\n      0x00\n        /* \"#utility.yul\":1322:1327   */\n      dup2\n        /* \"#utility.yul\":1311:1327   */\n      swap1\n      pop\n        /* \"#utility.yul\":1256:1333   */\n      swap2\n      swap1\n      pop\n      jump\t// out\n        /* \"#utility.yul\":1339:1461   */\n    tag_106:\n        /* \"#utility.yul\":1412:1436   */\n      tag_132\n        /* \"#utility.yul\":1430:1435   */\n      dup2\n        /* \"#utility.yul\":1412:1436   */\n      tag_105\n      jump\t// in\n    tag_132:\n        /* \"#utility.yul\":1405:1410   */\n      dup2\n        /* \"#utility.yul\":1402:1437   */\n      eq\n        /* \"#utility.yul\":1392:1455   */\n      tag_133\n      jumpi\n        /* \"#utility.yul\":1451:1452   */\n      0x00\n        /* \"#utility.yul\":1448:1449   */\n      dup1\n        /* \"#utility.yul\":1441:1453   */\n      revert\n        /* \"#utility.yul\":1392:1455   */\n    tag_133:\n        /* \"#utility.yul\":1339:1461   */\n      pop\n      jump\t// out\n        /* \"#utility.yul\":1467:1606   */\n    tag_107:\n        /* \"#utility.yul\":1513:1518   */\n      0x00\n        /* \"#utility.yul\":1551:1557   */\n      dup2\n        /* \"#utility.yul\":1538:1558   */\n      calldataload\n        /* \"#utility.yul\":1529:1558   */\n      swap1\n      pop\n        /* \"#utility.yul\":1567:1600   */\n      tag_135\n        /* \"#utility.yul\":1594:1599   */\n      dup2\n        /* \"#utility.yul\":1567:1600   */\n      tag_106\n      jump\t// in\n    tag_135:\n        /* \"#utility.yul\":1467:1606   */\n      swap3\n      swap2\n      pop\n      pop\n      jump\t// out\n        /* \"#utility.yul\":1612:2409   */\n    tag_17:\n        /* \"#utility.yul\":1714:1720   */\n      0x00\n        /* \"#utility.yul\":1722:1728   */\n      dup1\n        /* \"#utility.yul\":1730:1736   */\n      0x00\n        /* \"#utility.yul\":1738:1744   */\n      dup1\n        /* \"#utility.yul\":1787:1790   */\n      0x80\n        /* \"#utility.yul\":1775:1784   */\n      dup6\n        /* \"#utility.yul\":1766:1773   */\n      dup8\n        /* \"#utility.yul\":1762:1785   */\n      sub\n        /* \"#utility.yul\":1758:1791   */\n      slt\n        /* \"#utility.yul\":1755:1875   */\n      iszero\n      tag_137\n      jumpi\n        /* \"#utility.yul\":1794:1873   */\n      tag_138\n      tag_96\n      jump\t// in\n    tag_138:\n        /* \"#utility.yul\":1755:1875   */\n    tag_137:\n        /* \"#utility.yul\":1914:1915   */\n      0x00\n        /* \"#utility.yul\":1939:2000   */\n      tag_139\n        /* \"#utility.yul\":1992:1999   */\n      dup8\n        /* \"#utility.yul\":1983:1989   */\n      dup3\n        /* \"#utility.yul\":1972:1981   */\n      dup9\n        /* \"#utility.yul\":1968:1990   */\n      add\n        /* \"#utility.yul\":1939:2000   */\n      tag_101\n      jump\t// in\n    tag_139:\n        /* \"#utility.yul\":1929:2000   */\n      swap5\n      pop\n        /* \"#utility.yul\":1885:2010   */\n      pop\n        /* \"#utility.yul\":2049:2051   */\n      0x20\n        /* \"#utility.yul\":2075:2128   */\n      tag_140\n        /* \"#utility.yul\":2120:2127   */\n      dup8\n        /* \"#utility.yul\":2111:2117   */\n      dup3\n        /* \"#utility.yul\":2100:2109   */\n      dup9\n        /* \"#utility.yul\":2096:2118   */\n      add\n        /* \"#utility.yul\":2075:2128   */\n      tag_104\n      jump\t// in\n    tag_140:\n        /* \"#utility.yul\":2065:2128   */\n      swap4\n      pop\n        /* \"#utility.yul\":2020:2138   */\n      pop\n        /* \"#utility.yul\":2177:2179   */\n      0x40\n        /* \"#utility.yul\":2203:2264   */\n      tag_141\n        /* \"#utility.yul\":2256:2263   */\n      dup8\n        /* \"#utility.yul\":2247:2253   */\n      dup3\n        /* \"#utility.yul\":2236:2245   */\n      dup9\n        /* \"#utility.yul\":2232:2254   */\n      add\n        /* \"#utility.yul\":2203:2264   */\n      tag_101\n      jump\t// in\n    tag_141:\n        /* \"#utility.yul\":2193:2264   */\n      swap3\n      pop\n        /* \"#utility.yul\":2148:2274   */\n      pop\n        /* \"#utility.yul\":2313:2315   */\n      0x60\n        /* \"#utility.yul\":2339:2392   */\n      tag_142\n        /* \"#utility.yul\":2384:2391   */\n      dup8\n        /* \"#utility.yul\":2375:2381   */\n      dup3\n        /* \"#utility.yul\":2364:2373   */\n      dup9\n        /* \"#utility.yul\":2360:2382   */\n      add\n        /* \"#utility.yul\":2339:2392   */\n      tag_107\n      jump\t// in\n    tag_142:\n        /* \"#utility.yul\":2329:2392   */\n      swap2\n      pop\n        /* \"#utility.yul\":2284:2402   */\n      pop\n        /* \"#utility.yul\":1612:2409   */\n      swap3\n      swap6\n      swap2\n      swap5\n      pop\n      swap3\n      pop\n      jump\t// out\n        /* \"#utility.yul\":2415:2744   */\n    tag_22:\n        /* \"#utility.yul\":2474:2480   */\n      0x00\n        /* \"#utility.yul\":2523:2525   */\n      0x20\n        /* \"#utility.yul\":2511:2520   */\n      dup3\n        /* \"#utility.yul\":2502:2509   */\n      dup5\n        /* \"#utility.yul\":2498:2521   */\n      sub\n        /* \"#utility.yul\":2494:2526   */\n      slt\n        /* \"#utility.yul\":2491:2610   */\n      iszero\n      tag_144\n      jumpi\n        /* \"#utility.yul\":2529:2608   */\n      tag_145\n      tag_96\n      jump\t// in\n    tag_145:\n        /* \"#utility.yul\":2491:2610   */\n    tag_144:\n        /* \"#utility.yul\":2649:2650   */\n      0x00\n        /* \"#utility.yul\":2674:2727   */\n      tag_146\n        /* \"#utility.yul\":2719:2726   */\n      dup5\n        /* \"#utility.yul\":2710:2716   */\n      dup3\n        /* \"#utility.yul\":2699:2708   */\n      dup6\n        /* \"#utility.yul\":2695:2717   */\n      add\n        /* \"#utility.yul\":2674:2727   */\n      tag_107\n      jump\t// in\n    tag_146:\n        /* \"#utility.yul\":2664:2727   */\n      swap2\n      pop\n        /* \"#utility.yul\":2620:2737   */\n      pop\n        /* \"#utility.yul\":2415:2744   */\n      swap3\n      swap2\n      pop\n      pop\n      jump\t// out\n        /* \"#utility.yul\":2750:3224   */\n    tag_27:\n        /* \"#utility.yul\":2818:2824   */\n      0x00\n        /* \"#utility.yul\":2826:2832   */\n      dup1\n        /* \"#utility.yul\":2875:2877   */\n      0x40\n        /* \"#utility.yul\":2863:2872   */\n      dup4\n        /* \"#utility.yul\":2854:2861   */\n      dup6\n        /* \"#utility.yul\":2850:2873   */\n      sub\n        /* \"#utility.yul\":2846:2878   */\n      slt\n        /* \"#utility.yul\":2843:2962   */\n      iszero\n      tag_148\n      jumpi\n        /* \"#utility.yul\":2881:2960   */\n      tag_149\n      tag_96\n      jump\t// in\n    tag_149:\n        /* \"#utility.yul\":2843:2962   */\n    tag_148:\n        /* \"#utility.yul\":3001:3002   */\n      0x00\n        /* \"#utility.yul\":3026:3079   */\n      tag_150\n        /* \"#utility.yul\":3071:3078   */\n      dup6\n        /* \"#utility.yul\":3062:3068   */\n      dup3\n        /* \"#utility.yul\":3051:3060   */\n      dup7\n        /* \"#utility.yul\":3047:3069   */\n      add\n        /* \"#utility.yul\":3026:3079   */\n      tag_104\n      jump\t// in\n    tag_150:\n        /* \"#utility.yul\":3016:3079   */\n      swap3\n      pop\n        /* \"#utility.yul\":2972:3089   */\n      pop\n        /* \"#utility.yul\":3128:3130   */\n      0x20\n        /* \"#utility.yul\":3154:3207   */\n      tag_151\n        /* \"#utility.yul\":3199:3206   */\n      dup6\n        /* \"#utility.yul\":3190:3196   */\n      dup3\n        /* \"#utility.yul\":3179:3188   */\n      dup7\n        /* \"#utility.yul\":3175:3197   */\n      add\n        /* \"#utility.yul\":3154:3207   */\n      tag_107\n      jump\t// in\n    tag_151:\n        /* \"#utility.yul\":3144:3207   */\n      swap2\n      pop\n        /* \"#utility.yul\":3099:3217   */\n      pop\n        /* \"#utility.yul\":2750:3224   */\n      swap3\n      pop\n      swap3\n      swap1\n      pop\n      jump\t// out\n        /* \"#utility.yul\":3230:3720   */\n    tag_32:\n        /* \"#utility.yul\":3306:3312   */\n      0x00\n        /* \"#utility.yul\":3314:3320   */\n      dup1\n        /* \"#utility.yul\":3363:3365   */\n      0x40\n        /* \"#utility.yul\":3351:3360   */\n      dup4\n        /* \"#utility.yul\":3342:3349   */\n      dup6\n        /* \"#utility.yul\":3338:3361   */\n      sub\n        /* \"#utility.yul\":3334:3366   */\n      slt\n        /* \"#utility.yul\":3331:3450   */\n      iszero\n      tag_153\n      jumpi\n        /* \"#utility.yul\":3369:3448   */\n      tag_154\n      tag_96\n      jump\t// in\n    tag_154:\n        /* \"#utility.yul\":3331:3450   */\n    tag_153:\n        /* \"#utility.yul\":3489:3490   */\n      0x00\n        /* \"#utility.yul\":3514:3575   */\n      tag_155\n        /* \"#utility.yul\":3567:3574   */\n      dup6\n        /* \"#utility.yul\":3558:3564   */\n      dup3\n        /* \"#utility.yul\":3547:3556   */\n      dup7\n        /* \"#utility.yul\":3543:3565   */\n      add\n        /* \"#utility.yul\":3514:3575   */\n      tag_101\n      jump\t// in\n    tag_155:\n        /* \"#utility.yul\":3504:3575   */\n      swap3\n      pop\n        /* \"#utility.yul\":3460:3585   */\n      pop\n        /* \"#utility.yul\":3624:3626   */\n      0x20\n        /* \"#utility.yul\":3650:3703   */\n      tag_156\n        /* \"#utility.yul\":3695:3702   */\n      dup6\n        /* \"#utility.yul\":3686:3692   */\n      dup3\n        /* \"#utility.yul\":3675:3684   */\n      dup7\n        /* \"#utility.yul\":3671:3693   */\n      add\n        /* \"#utility.yul\":3650:3703   */\n      tag_107\n      jump\t// in\n    tag_156:\n        /* \"#utility.yul\":3640:3703   */\n      swap2\n      pop\n        /* \"#utility.yul\":3595:3713   */\n      pop\n        /* \"#utility.yul\":3230:3720   */\n      swap3\n      pop\n      swap3\n      swap1\n      pop\n      jump\t// out\n        /* \"#utility.yul\":3726:4361   */\n    tag_39:\n        /* \"#utility.yul\":3811:3817   */\n      0x00\n        /* \"#utility.yul\":3819:3825   */\n      dup1\n        /* \"#utility.yul\":3827:3833   */\n      0x00\n        /* \"#utility.yul\":3876:3878   */\n      0x60\n        /* \"#utility.yul\":3864:3873   */\n      dup5\n        /* \"#utility.yul\":3855:3862   */\n      dup7\n        /* \"#utility.yul\":3851:3874   */\n      sub\n        /* \"#utility.yul\":3847:3879   */\n      slt\n        /* \"#utility.yul\":3844:3963   */\n      iszero\n      tag_158\n      jumpi\n        /* \"#utility.yul\":3882:3961   */\n      tag_159\n      tag_96\n      jump\t// in\n    tag_159:\n        /* \"#utility.yul\":3844:3963   */\n    tag_158:\n        /* \"#utility.yul\":4002:4003   */\n      0x00\n        /* \"#utility.yul\":4027:4088   */\n      tag_160\n        /* \"#utility.yul\":4080:4087   */\n      dup7\n        /* \"#utility.yul\":4071:4077   */\n      dup3\n        /* \"#utility.yul\":4060:4069   */\n      dup8\n        /* \"#utility.yul\":4056:4078   */\n      add\n        /* \"#utility.yul\":4027:4088   */\n      tag_101\n      jump\t// in\n    tag_160:\n        /* \"#utility.yul\":4017:4088   */\n      swap4\n      pop\n        /* \"#utility.yul\":3973:4098   */\n      pop\n        /* \"#utility.yul\":4137:4139   */\n      0x20\n        /* \"#utility.yul\":4163:4216   */\n      tag_161\n        /* \"#utility.yul\":4208:4215   */\n      dup7\n        /* \"#utility.yul\":4199:4205   */\n      dup3\n        /* \"#utility.yul\":4188:4197   */\n      dup8\n        /* \"#utility.yul\":4184:4206   */\n      add\n        /* \"#utility.yul\":4163:4216   */\n      tag_104\n      jump\t// in\n    tag_161:\n        /* \"#utility.yul\":4153:4216   */\n      swap3\n      pop\n        /* \"#utility.yul\":4108:4226   */\n      pop\n        /* \"#utility.yul\":4265:4267   */\n      0x40\n        /* \"#utility.yul\":4291:4344   */\n      tag_162\n        /* \"#utility.yul\":4336:4343   */\n      dup7\n        /* \"#utility.yul\":4327:4333   */\n      dup3\n        /* \"#utility.yul\":4316:4325   */\n      dup8\n        /* \"#utility.yul\":4312:4334   */\n      add\n        /* \"#utility.yul\":4291:4344   */\n      tag_107\n      jump\t// in\n    tag_162:\n        /* \"#utility.yul\":4281:4344   */\n      swap2\n      pop\n        /* \"#utility.yul\":4236:4354   */\n      pop\n        /* \"#utility.yul\":3726:4361   */\n      swap3\n      pop\n      swap3\n      pop\n      swap3\n      jump\t// out\n        /* \"#utility.yul\":4367:4696   */\n    tag_44:\n        /* \"#utility.yul\":4426:4432   */\n      0x00\n        /* \"#utility.yul\":4475:4477   */\n      0x20\n        /* \"#utility.yul\":4463:4472   */\n      dup3\n        /* \"#utility.yul\":4454:4461   */\n      dup5\n        /* \"#utility.yul\":4450:4473   */\n      sub\n        /* \"#utility.yul\":4446:4478   */\n      slt\n        /* \"#utility.yul\":4443:4562   */\n      iszero\n      tag_164\n      jumpi\n        /* \"#utility.yul\":4481:4560   */\n      tag_165\n      tag_96\n      jump\t// in\n    tag_165:\n        /* \"#utility.yul\":4443:4562   */\n    tag_164:\n        /* \"#utility.yul\":4601:4602   */\n      0x00\n        /* \"#utility.yul\":4626:4679   */\n      tag_166\n        /* \"#utility.yul\":4671:4678   */\n      dup5\n        /* \"#utility.yul\":4662:4668   */\n      dup3\n        /* \"#utility.yul\":4651:4660   */\n      dup6\n        /* \"#utility.yul\":4647:4669   */\n      add\n        /* \"#utility.yul\":4626:4679   */\n      tag_104\n      jump\t// in\n    tag_166:\n        /* \"#utility.yul\":4616:4679   */\n      swap2\n      pop\n        /* \"#utility.yul\":4572:4689   */\n      pop\n        /* \"#utility.yul\":4367:4696   */\n      swap3\n      swap2\n      pop\n      pop\n      jump\t// out\n        /* \"#utility.yul\":4702:4820   */\n    tag_108:\n        /* \"#utility.yul\":4789:4813   */\n      tag_168\n        /* \"#utility.yul\":4807:4812   */\n      dup2\n        /* \"#utility.yul\":4789:4813   */\n      tag_105\n      jump\t// in\n    tag_168:\n        /* \"#utility.yul\":4784:4787   */\n      dup3\n        /* \"#utility.yul\":4777:4814   */\n      mstore\n        /* \"#utility.yul\":4702:4820   */\n      pop\n      pop\n      jump\t// out\n        /* \"#utility.yul\":4826:5048   */\n    tag_47:\n        /* \"#utility.yul\":4919:4923   */\n      0x00\n        /* \"#utility.yul\":4957:4959   */\n      0x20\n        /* \"#utility.yul\":4946:4955   */\n      dup3\n        /* \"#utility.yul\":4942:4960   */\n      add\n        /* \"#utility.yul\":4934:4960   */\n      swap1\n      pop\n        /* \"#utility.yul\":4970:5041   */\n      tag_170\n        /* \"#utility.yul\":5038:5039   */\n      0x00\n        /* \"#utility.yul\":5027:5036   */\n      dup4\n        /* \"#utility.yul\":5023:5040   */\n      add\n        /* \"#utility.yul\":5014:5020   */\n      dup5\n        /* \"#utility.yul\":4970:5041   */\n      tag_108\n      jump\t// in\n    tag_170:\n        /* \"#utility.yul\":4826:5048   */\n      swap3\n      swap2\n      pop\n      pop\n      jump\t// out\n        /* \"#utility.yul\":5054:5234   */\n    tag_109:\n        /* \"#utility.yul\":5102:5179   */\n      0x4e487b7100000000000000000000000000000000000000000000000000000000\n        /* \"#utility.yul\":5099:5100   */\n      0x00\n        /* \"#utility.yul\":5092:5180   */\n      mstore\n        /* \"#utility.yul\":5199:5203   */\n      0x11\n        /* \"#utility.yul\":5196:5197   */\n      0x04\n        /* \"#utility.yul\":5189:5204   */\n      mstore\n        /* \"#utility.yul\":5223:5227   */\n      0x24\n        /* \"#utility.yul\":5220:5221   */\n      0x00\n        /* \"#utility.yul\":5213:5228   */\n      revert\n        /* \"#utility.yul\":5240:5434   */\n    tag_59:\n        /* \"#utility.yul\":5280:5284   */\n      0x00\n        /* \"#utility.yul\":5300:5320   */\n      tag_173\n        /* \"#utility.yul\":5318:5319   */\n      dup3\n        /* \"#utility.yul\":5300:5320   */\n      tag_105\n      jump\t// in\n    tag_173:\n        /* \"#utility.yul\":5295:5320   */\n      swap2\n      pop\n        /* \"#utility.yul\":5334:5354   */\n      tag_174\n        /* \"#utility.yul\":5352:5353   */\n      dup4\n        /* \"#utility.yul\":5334:5354   */\n      tag_105\n      jump\t// in\n    tag_174:\n        /* \"#utility.yul\":5329:5354   */\n      swap3\n      pop\n        /* \"#utility.yul\":5378:5379   */\n      dup3\n        /* \"#utility.yul\":5375:5376   */\n      dup3\n        /* \"#utility.yul\":5371:5380   */\n      sub\n        /* \"#utility.yul\":5363:5380   */\n      swap1\n      pop\n        /* \"#utility.yul\":5402:5403   */\n      dup2\n        /* \"#utility.yul\":5396:5400   */\n      dup2\n        /* \"#utility.yul\":5393:5404   */\n      gt\n        /* \"#utility.yul\":5390:5427   */\n      iszero\n      tag_175\n      jumpi\n        /* \"#utility.yul\":5407:5425   */\n      tag_176\n      tag_109\n      jump\t// in\n    tag_176:\n        /* \"#utility.yul\":5390:5427   */\n    tag_175:\n        /* \"#utility.yul\":5240:5434   */\n      swap3\n      swap2\n      pop\n      pop\n      jump\t// out\n        /* \"#utility.yul\":5440:5631   */\n    tag_67:\n        /* \"#utility.yul\":5480:5483   */\n      0x00\n        /* \"#utility.yul\":5499:5519   */\n      tag_178\n        /* \"#utility.yul\":5517:5518   */\n      dup3\n        /* \"#utility.yul\":5499:5519   */\n      tag_105\n      jump\t// in\n    tag_178:\n        /* \"#utility.yul\":5494:5519   */\n      swap2\n      pop\n        /* \"#utility.yul\":5533:5553   */\n      tag_179\n        /* \"#utility.yul\":5551:5552   */\n      dup4\n        /* \"#utility.yul\":5533:5553   */\n      tag_105\n      jump\t// in\n    tag_179:\n        /* \"#utility.yul\":5528:5553   */\n      swap3\n      pop\n        /* \"#utility.yul\":5576:5577   */\n      dup3\n        /* \"#utility.yul\":5573:5574   */\n      dup3\n        /* \"#utility.yul\":5569:5578   */\n      add\n        /* \"#utility.yul\":5562:5578   */\n      swap1\n      pop\n        /* \"#utility.yul\":5597:5600   */\n      dup1\n        /* \"#utility.yul\":5594:5595   */\n      dup3\n        /* \"#utility.yul\":5591:5601   */\n      gt\n        /* \"#utility.yul\":5588:5624   */\n      iszero\n      tag_180\n      jumpi\n        /* \"#utility.yul\":5604:5622   */\n      tag_181\n      tag_109\n      jump\t// in\n    tag_181:\n        /* \"#utility.yul\":5588:5624   */\n    tag_180:\n        /* \"#utility.yul\":5440:5631   */\n      swap3\n      swap2\n      pop\n      pop\n      jump\t// out\n        /* \"#utility.yul\":5637:5755   */\n    tag_110:\n        /* \"#utility.yul\":5724:5748   */\n      tag_183\n        /* \"#utility.yul\":5742:5747   */\n      dup2\n        /* \"#utility.yul\":5724:5748   */\n      tag_102\n      jump\t// in\n    tag_183:\n        /* \"#utility.yul\":5719:5722   */\n      dup3\n        /* \"#utility.yul\":5712:5749   */\n      mstore\n        /* \"#utility.yul\":5637:5755   */\n      pop\n      pop\n      jump\t// out\n        /* \"#utility.yul\":5761:6093   */\n    tag_70:\n        /* \"#utility.yul\":5882:5886   */\n      0x00\n        /* \"#utility.yul\":5920:5922   */\n      0x40\n        /* \"#utility.yul\":5909:5918   */\n      dup3\n        /* \"#utility.yul\":5905:5923   */\n      add\n        /* \"#utility.yul\":5897:5923   */\n      swap1\n      pop\n        /* \"#utility.yul\":5933:6004   */\n      tag_185\n        /* \"#utility.yul\":6001:6002   */\n      0x00\n        /* \"#utility.yul\":5990:5999   */\n      dup4\n        /* \"#utility.yul\":5986:6003   */\n      add\n        /* \"#utility.yul\":5977:5983   */\n      dup6\n        /* \"#utility.yul\":5933:6004   */\n      tag_110\n      jump\t// in\n    tag_185:\n        /* \"#utility.yul\":6014:6086   */\n      tag_186\n        /* \"#utility.yul\":6082:6084   */\n      0x20\n        /* \"#utility.yul\":6071:6080   */\n      dup4\n        /* \"#utility.yul\":6067:6085   */\n      add\n        /* \"#utility.yul\":6058:6064   */\n      dup5\n        /* \"#utility.yul\":6014:6086   */\n      tag_108\n      jump\t// in\n    tag_186:\n        /* \"#utility.yul\":5761:6093   */\n      swap4\n      swap3\n      pop\n      pop\n      pop\n      jump\t// out\n\n    auxdata: 0xa26469706673582212205aba46d2f3dccf9d67f4037bb23d7996ca7d553e83981c31b9ba4e4a5a92db3664736f6c63430008120033\n}\n",
				"bytecode": {
					"linkReferences": {},
					"object": "608060405234801561001057600080fd5b50610b60806100206000396000f3fe60806040526004361061007f5760003560e01c80638bf6146a1161004e5780638bf6146a1461012f578063bb85f01614610139578063e3d670d714610162578063e473adc21461019f57610086565b8063274956e91461008b57806327b52dde146100b45780632ccb1b30146100dd5780635d74f8441461010657610086565b3661008657005b600080fd5b34801561009757600080fd5b506100b260048036038101906100ad919061089d565b6101c8565b005b3480156100c057600080fd5b506100db60048036038101906100d69190610904565b6101e3565b005b3480156100e957600080fd5b5061010460048036038101906100ff9190610931565b6102d1565b005b34801561011257600080fd5b5061012d60048036038101906101289190610971565b6103ce565b005b61013761049a565b005b34801561014557600080fd5b50610160600480360381019061015b91906109b1565b6104f1565b005b34801561016e57600080fd5b5061018960048036038101906101849190610a04565b610650565b6040516101969190610a40565b60405180910390f35b3480156101ab57600080fd5b506101c660048036038101906101c19190610971565b610668565b005b6101d284826103ce565b6101dd8284836104f1565b50505050565b3381806000808473ffffffffffffffffffffffffffffffffffffffff1673ffffffffffffffffffffffffffffffffffffffff16815260200190815260200160002054101561023057600080fd5b826000803373ffffffffffffffffffffffffffffffffffffffff1673ffffffffffffffffffffffffffffffffffffffff168152602001908152602001600020600082825461027e9190610a8a565b925050819055503373ffffffffffffffffffffffffffffffffffffffff166108fc849081150290604051600060405180830381858888f193505050501580156102cb573d6000803e3d6000fd5b50505050565b3381806000808473ffffffffffffffffffffffffffffffffffffffff1673ffffffffffffffffffffffffffffffffffffffff16815260200190815260200160002054101561031e57600080fd5b826000803373ffffffffffffffffffffffffffffffffffffffff1673ffffffffffffffffffffffffffffffffffffffff168152602001908152602001600020600082825461036c9190610a8a565b92505081905550826000808673ffffffffffffffffffffffffffffffffffffffff1673ffffffffffffffffffffffffffffffffffffffff16815260200190815260200160002060008282546103c19190610abe565b9250508190555050505050565b60008290508073ffffffffffffffffffffffffffffffffffffffff1663884edad933846040518363ffffffff1660e01b815260040161040e929190610b01565b600060405180830381600087803b15801561042857600080fd5b505af115801561043c573d6000803e3d6000fd5b50505050816000803373ffffffffffffffffffffffffffffffffffffffff1673ffffffffffffffffffffffffffffffffffffffff168152602001908152602001600020600082825461048e9190610abe565b92505081905550505050565b346000803373ffffffffffffffffffffffffffffffffffffffff1673ffffffffffffffffffffffffffffffffffffffff16815260200190815260200160002060008282546104e89190610abe565b92505081905550565b6000839050816000803373ffffffffffffffffffffffffffffffffffffffff1673ffffffffffffffffffffffffffffffffffffffff16815260200190815260200160002054101561054157600080fd5b8073ffffffffffffffffffffffffffffffffffffffff166108fc839081150290604051600060405180830381858888f19350505050158015610587573d6000803e3d6000fd5b50816000803373ffffffffffffffffffffffffffffffffffffffff1673ffffffffffffffffffffffffffffffffffffffff16815260200190815260200160002060008282546105d69190610a8a565b925050819055508073ffffffffffffffffffffffffffffffffffffffff1663e1fffcc484846040518363ffffffff1660e01b8152600401610618929190610b01565b600060405180830381600087803b15801561063257600080fd5b505af1158015610646573d6000803e3d6000fd5b5050505050505050565b60006020528060005260406000206000915090505481565b6000829050816000803373ffffffffffffffffffffffffffffffffffffffff1673ffffffffffffffffffffffffffffffffffffffff1681526020019081526020016000205410156106b857600080fd5b8073ffffffffffffffffffffffffffffffffffffffff166108fc839081150290604051600060405180830381858888f193505050501580156106fe573d6000803e3d6000fd5b50816000803373ffffffffffffffffffffffffffffffffffffffff1673ffffffffffffffffffffffffffffffffffffffff168152602001908152602001600020600082825461074d9190610a8a565b925050819055508073ffffffffffffffffffffffffffffffffffffffff1663e1fffcc433846040518363ffffffff1660e01b815260040161078f929190610b01565b600060405180830381600087803b1580156107a957600080fd5b505af11580156107bd573d6000803e3d6000fd5b50505050505050565b600080fd5b600073ffffffffffffffffffffffffffffffffffffffff82169050919050565b60006107f6826107cb565b9050919050565b610806816107eb565b811461081157600080fd5b50565b600081359050610823816107fd565b92915050565b6000610834826107cb565b9050919050565b61084481610829565b811461084f57600080fd5b50565b6000813590506108618161083b565b92915050565b6000819050919050565b61087a81610867565b811461088557600080fd5b50565b60008135905061089781610871565b92915050565b600080600080608085870312156108b7576108b66107c6565b5b60006108c587828801610814565b94505060206108d687828801610852565b93505060406108e787828801610814565b92505060606108f887828801610888565b91505092959194509250565b60006020828403121561091a576109196107c6565b5b600061092884828501610888565b91505092915050565b60008060408385031215610948576109476107c6565b5b600061095685828601610852565b925050602061096785828601610888565b9150509250929050565b60008060408385031215610988576109876107c6565b5b600061099685828601610814565b92505060206109a785828601610888565b9150509250929050565b6000806000606084860312156109ca576109c96107c6565b5b60006109d886828701610814565b93505060206109e986828701610852565b92505060406109fa86828701610888565b9150509250925092565b600060208284031215610a1a57610a196107c6565b5b6000610a2884828501610852565b91505092915050565b610a3a81610867565b82525050565b6000602082019050610a556000830184610a31565b92915050565b7f4e487b7100000000000000000000000000000000000000000000000000000000600052601160045260246000fd5b6000610a9582610867565b9150610aa083610867565b9250828203905081811115610ab857610ab7610a5b565b5b92915050565b6000610ac982610867565b9150610ad483610867565b9250828201905080821115610aec57610aeb610a5b565b5b92915050565b610afb81610829565b82525050565b6000604082019050610b166000830185610af2565b610b236020830184610a31565b939250505056fea26469706673582212205aba46d2f3dccf9d67f4037bb23d7996ca7d553e83981c31b9ba4e4a5a92db3664736f6c63430008120033",
					"opcodes": "PUSH1 0x80 PUSH1 0x40 MSTORE CALLVALUE DUP1 ISZERO PUSH2 0x10 JUMPI PUSH1 0x0 DUP1 REVERT JUMPDEST POP PUSH2 0xB60 DUP1 PUSH2 0x20 PUSH1 0x0 CODECOPY PUSH1 0x0 RETURN INVALID PUSH1 0x80 PUSH1 0x40 MSTORE PUSH1 0x4 CALLDATASIZE LT PUSH2 0x7F JUMPI PUSH1 0x0 CALLDATALOAD PUSH1 0xE0 SHR DUP1 PUSH4 0x8BF6146A GT PUSH2 0x4E JUMPI DUP1 PUSH4 0x8BF6146A EQ PUSH2 0x12F JUMPI DUP1 PUSH4 0xBB85F016 EQ PUSH2 0x139 JUMPI DUP1 PUSH4 0xE3D670D7 EQ PUSH2 0x162 JUMPI DUP1 PUSH4 0xE473ADC2 EQ PUSH2 0x19F JUMPI PUSH2 0x86 JUMP JUMPDEST DUP1 PUSH4 0x274956E9 EQ PUSH2 0x8B JUMPI DUP1 PUSH4 0x27B52DDE EQ PUSH2 0xB4 JUMPI DUP1 PUSH4 0x2CCB1B30 EQ PUSH2 0xDD JUMPI DUP1 PUSH4 0x5D74F844 EQ PUSH2 0x106 JUMPI PUSH2 0x86 JUMP JUMPDEST CALLDATASIZE PUSH2 0x86 JUMPI STOP JUMPDEST PUSH1 0x0 DUP1 REVERT JUMPDEST CALLVALUE DUP1 ISZERO PUSH2 0x97 JUMPI PUSH1 0x0 DUP1 REVERT JUMPDEST POP PUSH2 0xB2 PUSH1 0x4 DUP1 CALLDATASIZE SUB DUP2 ADD SWAP1 PUSH2 0xAD SWAP2 SWAP1 PUSH2 0x89D JUMP JUMPDEST PUSH2 0x1C8 JUMP JUMPDEST STOP JUMPDEST CALLVALUE DUP1 ISZERO PUSH2 0xC0 JUMPI PUSH1 0x0 DUP1 REVERT JUMPDEST POP PUSH2 0xDB PUSH1 0x4 DUP1 CALLDATASIZE SUB DUP2 ADD SWAP1 PUSH2 0xD6 SWAP2 SWAP1 PUSH2 0x904 JUMP JUMPDEST PUSH2 0x1E3 JUMP JUMPDEST STOP JUMPDEST CALLVALUE DUP1 ISZERO PUSH2 0xE9 JUMPI PUSH1 0x0 DUP1 REVERT JUMPDEST POP PUSH2 0x104 PUSH1 0x4 DUP1 CALLDATASIZE SUB DUP2 ADD SWAP1 PUSH2 0xFF SWAP2 SWAP1 PUSH2 0x931 JUMP JUMPDEST PUSH2 0x2D1 JUMP JUMPDEST STOP JUMPDEST CALLVALUE DUP1 ISZERO PUSH2 0x112 JUMPI PUSH1 0x0 DUP1 REVERT JUMPDEST POP PUSH2 0x12D PUSH1 0x4 DUP1 CALLDATASIZE SUB DUP2 ADD SWAP1 PUSH2 0x128 SWAP2 SWAP1 PUSH2 0x971 JUMP JUMPDEST PUSH2 0x3CE JUMP JUMPDEST STOP JUMPDEST PUSH2 0x137 PUSH2 0x49A JUMP JUMPDEST STOP JUMPDEST CALLVALUE DUP1 ISZERO PUSH2 0x145 JUMPI PUSH1 0x0 DUP1 REVERT JUMPDEST POP PUSH2 0x160 PUSH1 0x4 DUP1 CALLDATASIZE SUB DUP2 ADD SWAP1 PUSH2 0x15B SWAP2 SWAP1 PUSH2 0x9B1 JUMP JUMPDEST PUSH2 0x4F1 JUMP JUMPDEST STOP JUMPDEST CALLVALUE DUP1 ISZERO PUSH2 0x16E JUMPI PUSH1 0x0 DUP1 REVERT JUMPDEST POP PUSH2 0x189 PUSH1 0x4 DUP1 CALLDATASIZE SUB DUP2 ADD SWAP1 PUSH2 0x184 SWAP2 SWAP1 PUSH2 0xA04 JUMP JUMPDEST PUSH2 0x650 JUMP JUMPDEST PUSH1 0x40 MLOAD PUSH2 0x196 SWAP2 SWAP1 PUSH2 0xA40 JUMP JUMPDEST PUSH1 0x40 MLOAD DUP1 SWAP2 SUB SWAP1 RETURN JUMPDEST CALLVALUE DUP1 ISZERO PUSH2 0x1AB JUMPI PUSH1 0x0 DUP1 REVERT JUMPDEST POP PUSH2 0x1C6 PUSH1 0x4 DUP1 CALLDATASIZE SUB DUP2 ADD SWAP1 PUSH2 0x1C1 SWAP2 SWAP1 PUSH2 0x971 JUMP JUMPDEST PUSH2 0x668 JUMP JUMPDEST STOP JUMPDEST PUSH2 0x1D2 DUP5 DUP3 PUSH2 0x3CE JUMP JUMPDEST PUSH2 0x1DD DUP3 DUP5 DUP4 PUSH2 0x4F1 JUMP JUMPDEST POP POP POP POP JUMP JUMPDEST CALLER DUP2 DUP1 PUSH1 0x0 DUP1 DUP5 PUSH20 0xFFFFFFFFFFFFFFFFFFFFFFFFFFFFFFFFFFFFFFFF AND PUSH20 0xFFFFFFFFFFFFFFFFFFFFFFFFFFFFFFFFFFFFFFFF AND DUP2 MSTORE PUSH1 0x20 ADD SWAP1 DUP2 MSTORE PUSH1 0x20 ADD PUSH1 0x0 KECCAK256 SLOAD LT ISZERO PUSH2 0x230 JUMPI PUSH1 0x0 DUP1 REVERT JUMPDEST DUP3 PUSH1 0x0 DUP1 CALLER PUSH20 0xFFFFFFFFFFFFFFFFFFFFFFFFFFFFFFFFFFFFFFFF AND PUSH20 0xFFFFFFFFFFFFFFFFFFFFFFFFFFFFFFFFFFFFFFFF AND DUP2 MSTORE PUSH1 0x20 ADD SWAP1 DUP2 MSTORE PUSH1 0x20 ADD PUSH1 0x0 KECCAK256 PUSH1 0x0 DUP3 DUP3 SLOAD PUSH2 0x27E SWAP2 SWAP1 PUSH2 0xA8A JUMP JUMPDEST SWAP3 POP POP DUP2 SWAP1 SSTORE POP CALLER PUSH20 0xFFFFFFFFFFFFFFFFFFFFFFFFFFFFFFFFFFFFFFFF AND PUSH2 0x8FC DUP5 SWAP1 DUP2 ISZERO MUL SWAP1 PUSH1 0x40 MLOAD PUSH1 0x0 PUSH1 0x40 MLOAD DUP1 DUP4 SUB DUP2 DUP6 DUP9 DUP9 CALL SWAP4 POP POP POP POP ISZERO DUP1 ISZERO PUSH2 0x2CB JUMPI RETURNDATASIZE PUSH1 0x0 DUP1 RETURNDATACOPY RETURNDATASIZE PUSH1 0x0 REVERT JUMPDEST POP POP POP POP JUMP JUMPDEST CALLER DUP2 DUP1 PUSH1 0x0 DUP1 DUP5 PUSH20 0xFFFFFFFFFFFFFFFFFFFFFFFFFFFFFFFFFFFFFFFF AND PUSH20 0xFFFFFFFFFFFFFFFFFFFFFFFFFFFFFFFFFFFFFFFF AND DUP2 MSTORE PUSH1 0x20 ADD SWAP1 DUP2 MSTORE PUSH1 0x20 ADD PUSH1 0x0 KECCAK256 SLOAD LT ISZERO PUSH2 0x31E JUMPI PUSH1 0x0 DUP1 REVERT JUMPDEST DUP3 PUSH1 0x0 DUP1 CALLER PUSH20 0xFFFFFFFFFFFFFFFFFFFFFFFFFFFFFFFFFFFFFFFF AND PUSH20 0xFFFFFFFFFFFFFFFFFFFFFFFFFFFFFFFFFFFFFFFF AND DUP2 MSTORE PUSH1 0x20 ADD SWAP1 DUP2 MSTORE PUSH1 0x20 ADD PUSH1 0x0 KECCAK256 PUSH1 0x0 DUP3 DUP3 SLOAD PUSH2 0x36C SWAP2 SWAP1 PUSH2 0xA8A JUMP JUMPDEST SWAP3 POP POP DUP2 SWAP1 SSTORE POP DUP3 PUSH1 0x0 DUP1 DUP7 PUSH20 0xFFFFFFFFFFFFFFFFFFFFFFFFFFFFFFFFFFFFFFFF AND PUSH20 0xFFFFFFFFFFFFFFFFFFFFFFFFFFFFFFFFFFFFFFFF AND DUP2 MSTORE PUSH1 0x20 ADD SWAP1 DUP2 MSTORE PUSH1 0x20 ADD PUSH1 0x0 KECCAK256 PUSH1 0x0 DUP3 DUP3 SLOAD PUSH2 0x3C1 SWAP2 SWAP1 PUSH2 0xABE JUMP JUMPDEST SWAP3 POP POP DUP2 SWAP1 SSTORE POP POP POP POP POP JUMP JUMPDEST PUSH1 0x0 DUP3 SWAP1 POP DUP1 PUSH20 0xFFFFFFFFFFFFFFFFFFFFFFFFFFFFFFFFFFFFFFFF AND PUSH4 0x884EDAD9 CALLER DUP5 PUSH1 0x40 MLOAD DUP4 PUSH4 0xFFFFFFFF AND PUSH1 0xE0 SHL DUP2 MSTORE PUSH1 0x4 ADD PUSH2 0x40E SWAP3 SWAP2 SWAP1 PUSH2 0xB01 JUMP JUMPDEST PUSH1 0x0 PUSH1 0x40 MLOAD DUP1 DUP4 SUB DUP2 PUSH1 0x0 DUP8 DUP1 EXTCODESIZE ISZERO DUP1 ISZERO PUSH2 0x428 JUMPI PUSH1 0x0 DUP1 REVERT JUMPDEST POP GAS CALL ISZERO DUP1 ISZERO PUSH2 0x43C JUMPI RETURNDATASIZE PUSH1 0x0 DUP1 RETURNDATACOPY RETURNDATASIZE PUSH1 0x0 REVERT JUMPDEST POP POP POP POP DUP2 PUSH1 0x0 DUP1 CALLER PUSH20 0xFFFFFFFFFFFFFFFFFFFFFFFFFFFFFFFFFFFFFFFF AND PUSH20 0xFFFFFFFFFFFFFFFFFFFFFFFFFFFFFFFFFFFFFFFF AND DUP2 MSTORE PUSH1 0x20 ADD SWAP1 DUP2 MSTORE PUSH1 0x20 ADD PUSH1 0x0 KECCAK256 PUSH1 0x0 DUP3 DUP3 SLOAD PUSH2 0x48E SWAP2 SWAP1 PUSH2 0xABE JUMP JUMPDEST SWAP3 POP POP DUP2 SWAP1 SSTORE POP POP POP POP JUMP JUMPDEST CALLVALUE PUSH1 0x0 DUP1 CALLER PUSH20 0xFFFFFFFFFFFFFFFFFFFFFFFFFFFFFFFFFFFFFFFF AND PUSH20 0xFFFFFFFFFFFFFFFFFFFFFFFFFFFFFFFFFFFFFFFF AND DUP2 MSTORE PUSH1 0x20 ADD SWAP1 DUP2 MSTORE PUSH1 0x20 ADD PUSH1 0x0 KECCAK256 PUSH1 0x0 DUP3 DUP3 SLOAD PUSH2 0x4E8 SWAP2 SWAP1 PUSH2 0xABE JUMP JUMPDEST SWAP3 POP POP DUP2 SWAP1 SSTORE POP JUMP JUMPDEST PUSH1 0x0 DUP4 SWAP1 POP DUP2 PUSH1 0x0 DUP1 CALLER PUSH20 0xFFFFFFFFFFFFFFFFFFFFFFFFFFFFFFFFFFFFFFFF AND PUSH20 0xFFFFFFFFFFFFFFFFFFFFFFFFFFFFFFFFFFFFFFFF AND DUP2 MSTORE PUSH1 0x20 ADD SWAP1 DUP2 MSTORE PUSH1 0x20 ADD PUSH1 0x0 KECCAK256 SLOAD LT ISZERO PUSH2 0x541 JUMPI PUSH1 0x0 DUP1 REVERT JUMPDEST DUP1 PUSH20 0xFFFFFFFFFFFFFFFFFFFFFFFFFFFFFFFFFFFFFFFF AND PUSH2 0x8FC DUP4 SWAP1 DUP2 ISZERO MUL SWAP1 PUSH1 0x40 MLOAD PUSH1 0x0 PUSH1 0x40 MLOAD DUP1 DUP4 SUB DUP2 DUP6 DUP9 DUP9 CALL SWAP4 POP POP POP POP ISZERO DUP1 ISZERO PUSH2 0x587 JUMPI RETURNDATASIZE PUSH1 0x0 DUP1 RETURNDATACOPY RETURNDATASIZE PUSH1 0x0 REVERT JUMPDEST POP DUP2 PUSH1 0x0 DUP1 CALLER PUSH20 0xFFFFFFFFFFFFFFFFFFFFFFFFFFFFFFFFFFFFFFFF AND PUSH20 0xFFFFFFFFFFFFFFFFFFFFFFFFFFFFFFFFFFFFFFFF AND DUP2 MSTORE PUSH1 0x20 ADD SWAP1 DUP2 MSTORE PUSH1 0x20 ADD PUSH1 0x0 KECCAK256 PUSH1 0x0 DUP3 DUP3 SLOAD PUSH2 0x5D6 SWAP2 SWAP1 PUSH2 0xA8A JUMP JUMPDEST SWAP3 POP POP DUP2 SWAP1 SSTORE POP DUP1 PUSH20 0xFFFFFFFFFFFFFFFFFFFFFFFFFFFFFFFFFFFFFFFF AND PUSH4 0xE1FFFCC4 DUP5 DUP5 PUSH1 0x40 MLOAD DUP4 PUSH4 0xFFFFFFFF AND PUSH1 0xE0 SHL DUP2 MSTORE PUSH1 0x4 ADD PUSH2 0x618 SWAP3 SWAP2 SWAP1 PUSH2 0xB01 JUMP JUMPDEST PUSH1 0x0 PUSH1 0x40 MLOAD DUP1 DUP4 SUB DUP2 PUSH1 0x0 DUP8 DUP1 EXTCODESIZE ISZERO DUP1 ISZERO PUSH2 0x632 JUMPI PUSH1 0x0 DUP1 REVERT JUMPDEST POP GAS CALL ISZERO DUP1 ISZERO PUSH2 0x646 JUMPI RETURNDATASIZE PUSH1 0x0 DUP1 RETURNDATACOPY RETURNDATASIZE PUSH1 0x0 REVERT JUMPDEST POP POP POP POP POP POP POP POP JUMP JUMPDEST PUSH1 0x0 PUSH1 0x20 MSTORE DUP1 PUSH1 0x0 MSTORE PUSH1 0x40 PUSH1 0x0 KECCAK256 PUSH1 0x0 SWAP2 POP SWAP1 POP SLOAD DUP2 JUMP JUMPDEST PUSH1 0x0 DUP3 SWAP1 POP DUP2 PUSH1 0x0 DUP1 CALLER PUSH20 0xFFFFFFFFFFFFFFFFFFFFFFFFFFFFFFFFFFFFFFFF AND PUSH20 0xFFFFFFFFFFFFFFFFFFFFFFFFFFFFFFFFFFFFFFFF AND DUP2 MSTORE PUSH1 0x20 ADD SWAP1 DUP2 MSTORE PUSH1 0x20 ADD PUSH1 0x0 KECCAK256 SLOAD LT ISZERO PUSH2 0x6B8 JUMPI PUSH1 0x0 DUP1 REVERT JUMPDEST DUP1 PUSH20 0xFFFFFFFFFFFFFFFFFFFFFFFFFFFFFFFFFFFFFFFF AND PUSH2 0x8FC DUP4 SWAP1 DUP2 ISZERO MUL SWAP1 PUSH1 0x40 MLOAD PUSH1 0x0 PUSH1 0x40 MLOAD DUP1 DUP4 SUB DUP2 DUP6 DUP9 DUP9 CALL SWAP4 POP POP POP POP ISZERO DUP1 ISZERO PUSH2 0x6FE JUMPI RETURNDATASIZE PUSH1 0x0 DUP1 RETURNDATACOPY RETURNDATASIZE PUSH1 0x0 REVERT JUMPDEST POP DUP2 PUSH1 0x0 DUP1 CALLER PUSH20 0xFFFFFFFFFFFFFFFFFFFFFFFFFFFFFFFFFFFFFFFF AND PUSH20 0xFFFFFFFFFFFFFFFFFFFFFFFFFFFFFFFFFFFFFFFF AND DUP2 MSTORE PUSH1 0x20 ADD SWAP1 DUP2 MSTORE PUSH1 0x20 ADD PUSH1 0x0 KECCAK256 PUSH1 0x0 DUP3 DUP3 SLOAD PUSH2 0x74D SWAP2 SWAP1 PUSH2 0xA8A JUMP JUMPDEST SWAP3 POP POP DUP2 SWAP1 SSTORE POP DUP1 PUSH20 0xFFFFFFFFFFFFFFFFFFFFFFFFFFFFFFFFFFFFFFFF AND PUSH4 0xE1FFFCC4 CALLER DUP5 PUSH1 0x40 MLOAD DUP4 PUSH4 0xFFFFFFFF AND PUSH1 0xE0 SHL DUP2 MSTORE PUSH1 0x4 ADD PUSH2 0x78F SWAP3 SWAP2 SWAP1 PUSH2 0xB01 JUMP JUMPDEST PUSH1 0x0 PUSH1 0x40 MLOAD DUP1 DUP4 SUB DUP2 PUSH1 0x0 DUP8 DUP1 EXTCODESIZE ISZERO DUP1 ISZERO PUSH2 0x7A9 JUMPI PUSH1 0x0 DUP1 REVERT JUMPDEST POP GAS CALL ISZERO DUP1 ISZERO PUSH2 0x7BD JUMPI RETURNDATASIZE PUSH1 0x0 DUP1 RETURNDATACOPY RETURNDATASIZE PUSH1 0x0 REVERT JUMPDEST POP POP POP POP POP POP POP JUMP JUMPDEST PUSH1 0x0 DUP1 REVERT JUMPDEST PUSH1 0x0 PUSH20 0xFFFFFFFFFFFFFFFFFFFFFFFFFFFFFFFFFFFFFFFF DUP3 AND SWAP1 POP SWAP2 SWAP1 POP JUMP JUMPDEST PUSH1 0x0 PUSH2 0x7F6 DUP3 PUSH2 0x7CB JUMP JUMPDEST SWAP1 POP SWAP2 SWAP1 POP JUMP JUMPDEST PUSH2 0x806 DUP2 PUSH2 0x7EB JUMP JUMPDEST DUP2 EQ PUSH2 0x811 JUMPI PUSH1 0x0 DUP1 REVERT JUMPDEST POP JUMP JUMPDEST PUSH1 0x0 DUP2 CALLDATALOAD SWAP1 POP PUSH2 0x823 DUP2 PUSH2 0x7FD JUMP JUMPDEST SWAP3 SWAP2 POP POP JUMP JUMPDEST PUSH1 0x0 PUSH2 0x834 DUP3 PUSH2 0x7CB JUMP JUMPDEST SWAP1 POP SWAP2 SWAP1 POP JUMP JUMPDEST PUSH2 0x844 DUP2 PUSH2 0x829 JUMP JUMPDEST DUP2 EQ PUSH2 0x84F JUMPI PUSH1 0x0 DUP1 REVERT JUMPDEST POP JUMP JUMPDEST PUSH1 0x0 DUP2 CALLDATALOAD SWAP1 POP PUSH2 0x861 DUP2 PUSH2 0x83B JUMP JUMPDEST SWAP3 SWAP2 POP POP JUMP JUMPDEST PUSH1 0x0 DUP2 SWAP1 POP SWAP2 SWAP1 POP JUMP JUMPDEST PUSH2 0x87A DUP2 PUSH2 0x867 JUMP JUMPDEST DUP2 EQ PUSH2 0x885 JUMPI PUSH1 0x0 DUP1 REVERT JUMPDEST POP JUMP JUMPDEST PUSH1 0x0 DUP2 CALLDATALOAD SWAP1 POP PUSH2 0x897 DUP2 PUSH2 0x871 JUMP JUMPDEST SWAP3 SWAP2 POP POP JUMP JUMPDEST PUSH1 0x0 DUP1 PUSH1 0x0 DUP1 PUSH1 0x80 DUP6 DUP8 SUB SLT ISZERO PUSH2 0x8B7 JUMPI PUSH2 0x8B6 PUSH2 0x7C6 JUMP JUMPDEST JUMPDEST PUSH1 0x0 PUSH2 0x8C5 DUP8 DUP3 DUP9 ADD PUSH2 0x814 JUMP JUMPDEST SWAP5 POP POP PUSH1 0x20 PUSH2 0x8D6 DUP8 DUP3 DUP9 ADD PUSH2 0x852 JUMP JUMPDEST SWAP4 POP POP PUSH1 0x40 PUSH2 0x8E7 DUP8 DUP3 DUP9 ADD PUSH2 0x814 JUMP JUMPDEST SWAP3 POP POP PUSH1 0x60 PUSH2 0x8F8 DUP8 DUP3 DUP9 ADD PUSH2 0x888 JUMP JUMPDEST SWAP2 POP POP SWAP3 SWAP6 SWAP2 SWAP5 POP SWAP3 POP JUMP JUMPDEST PUSH1 0x0 PUSH1 0x20 DUP3 DUP5 SUB SLT ISZERO PUSH2 0x91A JUMPI PUSH2 0x919 PUSH2 0x7C6 JUMP JUMPDEST JUMPDEST PUSH1 0x0 PUSH2 0x928 DUP5 DUP3 DUP6 ADD PUSH2 0x888 JUMP JUMPDEST SWAP2 POP POP SWAP3 SWAP2 POP POP JUMP JUMPDEST PUSH1 0x0 DUP1 PUSH1 0x40 DUP4 DUP6 SUB SLT ISZERO PUSH2 0x948 JUMPI PUSH2 0x947 PUSH2 0x7C6 JUMP JUMPDEST JUMPDEST PUSH1 0x0 PUSH2 0x956 DUP6 DUP3 DUP7 ADD PUSH2 0x852 JUMP JUMPDEST SWAP3 POP POP PUSH1 0x20 PUSH2 0x967 DUP6 DUP3 DUP7 ADD PUSH2 0x888 JUMP JUMPDEST SWAP2 POP POP SWAP3 POP SWAP3 SWAP1 POP JUMP JUMPDEST PUSH1 0x0 DUP1 PUSH1 0x40 DUP4 DUP6 SUB SLT ISZERO PUSH2 0x988 JUMPI PUSH2 0x987 PUSH2 0x7C6 JUMP JUMPDEST JUMPDEST PUSH1 0x0 PUSH2 0x996 DUP6 DUP3 DUP7 ADD PUSH2 0x814 JUMP JUMPDEST SWAP3 POP POP PUSH1 0x20 PUSH2 0x9A7 DUP6 DUP3 DUP7 ADD PUSH2 0x888 JUMP JUMPDEST SWAP2 POP POP SWAP3 POP SWAP3 SWAP1 POP JUMP JUMPDEST PUSH1 0x0 DUP1 PUSH1 0x0 PUSH1 0x60 DUP5 DUP7 SUB SLT ISZERO PUSH2 0x9CA JUMPI PUSH2 0x9C9 PUSH2 0x7C6 JUMP JUMPDEST JUMPDEST PUSH1 0x0 PUSH2 0x9D8 DUP7 DUP3 DUP8 ADD PUSH2 0x814 JUMP JUMPDEST SWAP4 POP POP PUSH1 0x20 PUSH2 0x9E9 DUP7 DUP3 DUP8 ADD PUSH2 0x852 JUMP JUMPDEST SWAP3 POP POP PUSH1 0x40 PUSH2 0x9FA DUP7 DUP3 DUP8 ADD PUSH2 0x888 JUMP JUMPDEST SWAP2 POP POP SWAP3 POP SWAP3 POP SWAP3 JUMP JUMPDEST PUSH1 0x0 PUSH1 0x20 DUP3 DUP5 SUB SLT ISZERO PUSH2 0xA1A JUMPI PUSH2 0xA19 PUSH2 0x7C6 JUMP JUMPDEST JUMPDEST PUSH1 0x0 PUSH2 0xA28 DUP5 DUP3 DUP6 ADD PUSH2 0x852 JUMP JUMPDEST SWAP2 POP POP SWAP3 SWAP2 POP POP JUMP JUMPDEST PUSH2 0xA3A DUP2 PUSH2 0x867 JUMP JUMPDEST DUP3 MSTORE POP POP JUMP JUMPDEST PUSH1 0x0 PUSH1 0x20 DUP3 ADD SWAP1 POP PUSH2 0xA55 PUSH1 0x0 DUP4 ADD DUP5 PUSH2 0xA31 JUMP JUMPDEST SWAP3 SWAP2 POP POP JUMP JUMPDEST PUSH32 0x4E487B7100000000000000000000000000000000000000000000000000000000 PUSH1 0x0 MSTORE PUSH1 0x11 PUSH1 0x4 MSTORE PUSH1 0x24 PUSH1 0x0 REVERT JUMPDEST PUSH1 0x0 PUSH2 0xA95 DUP3 PUSH2 0x867 JUMP JUMPDEST SWAP2 POP PUSH2 0xAA0 DUP4 PUSH2 0x867 JUMP JUMPDEST SWAP3 POP DUP3 DUP3 SUB SWAP1 POP DUP2 DUP2 GT ISZERO PUSH2 0xAB8 JUMPI PUSH2 0xAB7 PUSH2 0xA5B JUMP JUMPDEST JUMPDEST SWAP3 SWAP2 POP POP JUMP JUMPDEST PUSH1 0x0 PUSH2 0xAC9 DUP3 PUSH2 0x867 JUMP JUMPDEST SWAP2 POP PUSH2 0xAD4 DUP4 PUSH2 0x867 JUMP JUMPDEST SWAP3 POP DUP3 DUP3 ADD SWAP1 POP DUP1 DUP3 GT ISZERO PUSH2 0xAEC JUMPI PUSH2 0xAEB PUSH2 0xA5B JUMP JUMPDEST JUMPDEST SWAP3 SWAP2 POP POP JUMP JUMPDEST PUSH2 0xAFB DUP2 PUSH2 0x829 JUMP JUMPDEST DUP3 MSTORE POP POP JUMP JUMPDEST PUSH1 0x0 PUSH1 0x40 DUP3 ADD SWAP1 POP PUSH2 0xB16 PUSH1 0x0 DUP4 ADD DUP6 PUSH2 0xAF2 JUMP JUMPDEST PUSH2 0xB23 PUSH1 0x20 DUP4 ADD DUP5 PUSH2 0xA31 JUMP JUMPDEST SWAP4 SWAP3 POP POP POP JUMP INVALID LOG2 PUSH5 0x6970667358 0x22 SLT KECCAK256 GAS 0xBA CHAINID 0xD2 RETURN 0xDC 0xCF SWAP14 PUSH8 0xF4037BB23D7996CA PUSH30 0x553E83981C31B9BA4E4A5A92DB3664736F6C634300081200330000000000 "
				},
				"gasEstimates": {
					"creation": {
						"codeDepositCost": "582400",
						"executionCost": "613",
						"totalCost": "583013"
					},
					"external": {
						"_depositToBank(address,address,uint256)": "infinite",
						"balance(address)": "2858",
						"depositToApp()": "infinite",
						"depositToBank(address,uint256)": "infinite",
						"transferTo(address,uint256)": "infinite",
						"transferWire(address,address,address,uint256)": "infinite",
						"withdrawFromApp(uint256)": "infinite",
						"withdrawFromBank(address,uint256)": "infinite"
					}
				},
				"methodIdentifiers": {
					"_depositToBank(address,address,uint256)": "bb85f016",
					"balance(address)": "e3d670d7",
					"depositToApp()": "8bf6146a",
					"depositToBank(address,uint256)": "e473adc2",
					"transferTo(address,uint256)": "2ccb1b30",
					"transferWire(address,address,address,uint256)": "274956e9",
					"withdrawFromApp(uint256)": "27b52dde",
					"withdrawFromBank(address,uint256)": "5d74f844"
				}
			},
			"storageLayout": {
				"storage": [
					{
						"astId": 5,
						"contract": "contracts/9.sol:APP",
						"label": "balance",
						"offset": 0,
						"slot": "0",
						"type": "t_mapping(t_address,t_uint256)"
					}
				],
				"types": {
					"t_address": {
						"encoding": "inplace",
						"label": "address",
						"numberOfBytes": "20"
					},
					"t_mapping(t_address,t_uint256)": {
						"encoding": "mapping",
						"key": "t_address",
						"label": "mapping(address => uint256)",
						"numberOfBytes": "32",
						"value": "t_uint256"
					},
					"t_uint256": {
						"encoding": "inplace",
						"label": "uint256",
						"numberOfBytes": "32"
					}
				}
			},
			"userdoc": {
				"kind": "user",
				"methods": {},
				"version": 1
			}
		}
	}
}